:020000040800F2
:10000000000002208D63000849080008510800081C
:10001000590800086108000869080008000000008D
:10002000000000000000000000000000B15F0008B8
:1000300071080008000000000162000879580008FB
:10004000DD630008DD630008DD630008DD63000890
:10005000DD630008DD630008DD630008DD63000880
:10006000DD630008DD630008DD630008DD63000870
:10007000DD630008DD630008DD630008DD63000860
:10008000DD630008DD630008DD630008DD63000850
:10009000DD630008DD630008DD630008DD63000840
:1000A000DD630008DD630008DD630008DD63000830
:1000B000DD630008DD630008DD630008DD63000820
:1000C000DD630008DD630008DD63000881080008C7
:1000D000DD630008DD630008DD630008DD63000800
:1000E000DD630008DD630008DD630008DD630008F0
:1000F000DD630008DD630008DD630008DD630008E0
:10010000DD630008DD630008DD630008DD630008CF
:10011000DD630008DD630008DD6300089508000862
:10012000A9080008DD630008DD630008BD080008B9
:10013000DD630008DD630008DD630008DD6300089F
:10014000DD630008DD630008DD630008DD6300088F
:10015000DD630008DD630008DD630008DD6300087F
:10016000DD630008DD630008DD630008DD6300086F
:10017000DD630008DD630008DD63000800000000A7
:08018000DD630008DD630008E7
:10019000830730B547D0541E002A3ED0CAB203466A
:1001A00001E0013C39D303F8012B9D07F9D1032C61
:1001B0002CD9CDB205EB05250F2C05EB054535D91E
:1001C000A4F1100222F00F0C03F1100EE6444FEAE6
:1001D000121C1A46156055609560D5601032724544
:1001E000F8D10CF1010214F00C0F03EB021204F031
:1001F0000F0C13D0ACF1040323F0030304331344B6
:1002000042F8045B9A42FBD10CF003042CB1C9B252
:100210001C4403F8011B9C42FBD130BD64461346CD
:10022000002CF4D1F9E703461446C0E71A46A44669
:10023000E0E700BF70B50F4B0F4DAB42A3EB0506D7
:1002400007D0B610002455F8043B01349847A64265
:10025000F9D806F015FA094D094B5E1BAB424FEA7F
:10026000A60606D0002455F8043B01349847A64260
:10027000F9D870BD3867000838670008386700088B
:100280003C670008844641EA000313F003036DD184
:10029000403A41D351F8043B40F8043B51F8043B49
:1002A00040F8043B51F8043B40F8043B51F8043B50
:1002B00040F8043B51F8043B40F8043B51F8043B40
:1002C00040F8043B51F8043B40F8043B51F8043B30
:1002D00040F8043B51F8043B40F8043B51F8043B20
:1002E00040F8043B51F8043B40F8043B51F8043B10
:1002F00040F8043B51F8043B40F8043B51F8043B00
:1003000040F8043B51F8043B40F8043B51F8043BEF
:1003100040F8043B403ABDD2303211D351F8043B8F
:1003200040F8043B51F8043B40F8043B51F8043BCF
:1003300040F8043B51F8043B40F8043B103AEDD23E
:100340000C3205D351F8043B40F8043B043AF9D28F
:10035000043208D0D2071CBF11F8013B00F8013B62
:1003600001D30B8803806046704700BF082A13D36F
:100370008B078DD010F003038AD0C3F10403D21A87
:10038000DB071CBF11F8013B00F8013B80D331F8BB
:10039000023B20F8023B7BE7043AD9D3013A11F83B
:1003A000013B00F8013BF9D20B7803704B784370A6
:1003B0008B7883706046704753B94AB9002908BFEB
:1003C00000281CBF4FF0FF314FF0FF3000F00CB899
:1003D000ADF1080C6DE904CE06F001F8DDF804E09B
:1003E000DDE9022304B07047704700BF10B5054C2B
:1003F000237833B9044B13B10448AFF300800123D1
:10040000237010BD18000020000000008066000866
:1004100008B5034B1BB103490348AFF3008008BD87
:10042000000000001C0000208066000880B500AFBE
:1004300002F092FB00F016F800F096F803F006F9CF
:1004400000F0F8F802F0A2FE02F0A0FF4FF4FA70FC
:1004500002F0C4FB05F02AFA03F020F905F04AFA8D
:1004600000BFFDE780B594B000AF07F12003302254
:1004700000211846FFF78CFE07F10C0300221A60DA
:100480005A609A60DA601A610023BB60284B1B6CCB
:10049000274A43F080531364254B1B6C03F08053B1
:1004A000BB60BB6800237B60224B1B68214A43F47E
:1004B000804313601F4B1B6803F480437B607B68A1
:1004C00001233B624FF480337B620223BB634FF412
:1004D0008003FB6306233B64A8237B640223BB6485
:1004E0000423FB6407F12003184601F01BF90346BF
:1004F000002B01D000F032F80F23FB6002233B6198
:1005000000237B614FF4A053BB614FF48053FB6128
:1005100007F10C030521184601F07CFB0346002B74
:1005200001D000F01BF800BF5037BD4680BD00BFB2
:10053000003802400070004080B582B000AF7860A3
:100540007B681B68044A934201D102F027FB00BF7D
:100550000837BD4680BD00BF0014004080B400AF26
:1005600072B600BF00BFFDE780B588B000AF07F1ED
:100570000C0300221A605A609A60DA601A61002344
:10058000BB60294B1B6B284A43F002031363264BC5
:100590001B6B03F00203BB60BB6800237B60224B34
:1005A0001B6B214A43F0010313631F4B1B6B03F0CA
:1005B00001037B607B6800233B601B4B1B6B1A4A6B
:1005C00043F080031363184B1B6B03F080033B6005
:1005D0003B6801221021154801F0B6FE01220121DD
:1005E000134801F0B1FE1023FB6001233B6101239E
:1005F0007B610223BB6107F10C0319460B4801F034
:1006000007FD0123FB6001233B6101237B61022382
:10061000BB6107F10C031946054801F0F9FC00BF66
:100620002037BD4680BD00BF0038024000000240B8
:100630000004024080B500AF174B184A1A60164BF1
:100640004FF482725A60144B00229A60124B0022BF
:10065000DA60114B02221A610F4B01225A610E4BD4
:100660004FF400729A610C4B1822DA610A4B002297
:100670001A62094B00225A62074B00229A62064B0B
:100680000A22DA62044800F04FF90346002B01D039
:10069000FFF764FF00BF80BD340000200030014040
:1006A00080B58AB000AF786007F1140300221A60A9
:1006B0005A609A60DA601A617B681B685A4A9342F2
:1006C00040F0AE8000233B61584B5B6C574A43F4CB
:1006D00080535364554B5B6C03F480533B613B691F
:1006E0000023FB60514B1B6B504A43F00203136322
:1006F0004E4B1B6B03F00203FB60FB680023BB60E7
:100700004A4B1B6B494A43F001031363474B1B6B76
:1007100003F00103BB60BB6818237B610223BB614C
:100720000023FB6103233B6205237B6207F1140373
:1007300019463F4801F06CFC80237B610223BB61BA
:100740000023FB6103233B6205237B6207F1140353
:100750001946384801F05CFC374B384A1A60364B72
:100760004FF0C0625A60344B00229A60324B002234
:10077000DA60314B4FF480621A612F4B00225A61CC
:100780002D4B00229A612C4B0022DA612A4B002269
:100790001A62294B00225A62274801F0EFFD0346F6
:1007A000002B01D0FFF7DAFE7B68234ADA64224A85
:1007B0007B689363224B234A1A60214B4FF0C0623F
:1007C0005A601F4B40229A601D4B0022DA601C4B7E
:1007D0004FF480621A611A4B00225A61184B0022B2
:1007E0009A61174B0022DA61154B00221A62144BF2
:1007F00000225A62124801F0C1FD0346002B01D0CD
:10080000FFF7ACFE7B680E4A9A640D4A7B689363DF
:1008100000220521232002F075F9232002F08EF931
:1008200000BF2837BD4680BD00300140003802407F
:1008300000040240000002408C00002010640240CE
:10084000EC0000205864024080B400AF00BFFDE718
:1008500080B400AF00BFFDE780B400AF00BFFDE78C
:1008600080B400AF00BFFDE780B400AF00BFFDE77C
:1008700080B400AF00BFBD465DF8047B7047000048
:1008800080B500AF024800F0DFFC00BF80BD00BFB4
:100890003400002080B500AF024802F08DFA00BF9E
:1008A00080BD00BF9801002080B500AF024801F074
:1008B00035FE00BF80BD00BF8C00002080B500AFBA
:1008C000024801F02BFE00BF80BD00BFEC000020FD
:1008D00080B582B000AF00237B60124B5B6C114A85
:1008E00043F4804353640F4B5B6C03F480437B60A1
:1008F0007B6800233B600B4B1B6C0A4A43F0805320
:100900001364084B1B6C03F080533B603B68002270
:100910000F216FF0010002F0F5F800BF0837BD4667
:1009200080BD00BF0038024080B582B000AF786063
:100930007B68002B01D101237BE07B685B6A002B85
:1009400008D17B685B68B3F5827F09D07B680022A1
:10095000DA6105E07B6800221A617B6800225A6137
:100960007B6800229A627B6893F85130DBB2002BDF
:1009700006D17B68002283F850207868FFF790FE4C
:100980007B68022283F851207B681B681A687B68A9
:100990001B6822F040021A607B685B6803F4827275
:1009A0007B689B6803F404431A437B68DB6803F4A9
:1009B00000631A437B681B6903F002031A437B68D8
:1009C0005B6903F001031A437B689B6903F40073BE
:1009D0001A437B68DB6903F038031A437B681B6AA0
:1009E00003F0800342EA03017B689B6A03F4005230
:1009F0007B681B680A431A607B689B691B0C03F0C9
:100A000004017B685B6A03F010027B681B680A4381
:100A10005A607B681B68DA697B681B6822F4006295
:100A2000DA617B6800225A657B68012283F85120D5
:100A3000002318460837BD4680BD80B588B000AF9A
:100A4000F860B9603B601346FB8002F0BBF8F861C8
:100A5000FB887B83FB6893F85130DBB2012B01D01C
:100A600002232AE1BB68002B02D0FB88002B01D1B6
:100A7000012322E1FB6893F85030012B01D10223BE
:100A80001BE1FB68012283F85020FB68032283F8F6
:100A90005120FB6800225A65FB68BA681A63FB683C
:100AA000FA889A86FB68FA88DA86FB6800229A63DD
:100AB000FB6800229A87FB680022DA87FB68002225
:100AC0005A64FB6800221A64FB689B68B3F5004F08
:100AD0000FD1FB681B681A68FB681B6822F0400294
:100AE0001A60FB681B681A68FB681B6842F4804246
:100AF0001A60FB681B681B6803F04003402B07D09B
:100B0000FB681B681A68FB681B6842F040021A60A9
:100B1000FB68DB68B3F5006F52D1FB685B68002BA4
:100B200002D07B8B012B45D1FB681B6B1A88FB68BD
:100B30001B68DA60FB681B6B9A1CFB681A63FB6816
:100B4000DB8E9BB2013B9AB2FB68DA8632E0FB682F
:100B50001B689B6803F00203022B12D1FB681B6B1E
:100B60001A88FB681B68DA60FB681B6B9A1CFB68C1
:100B70001A63FB68DB8E9BB2013B9AB2FB68DA8694
:100B800018E002F01FF80246FB69D31A3A689A424D
:100B900003D83B68B3F1FF3F02D13B68002B09D17A
:100BA000FB68012283F85120FB68002283F8502063
:100BB000032382E0FB68DB8E9BB2002BC7D153E09E
:100BC000FB685B68002B02D07B8B012B47D1FB6855
:100BD0001A6BFB681B680C3312781A70FB681B6B6E
:100BE0005A1CFB681A63FB68DB8E9BB2013B9AB20E
:100BF000FB68DA8633E0FB681B689B6803F002033E
:100C0000022B13D1FB681A6BFB681B680C3312783C
:100C10001A70FB681B6B5A1CFB681A63FB68DB8E3F
:100C20009BB2013B9AB2FB68DA8618E001F0CAFF7A
:100C30000246FB69D31A3A689A4203D83B68B3F17B
:100C4000FF3F02D13B68002B09D1FB68012283F8EA
:100C50005120FB68002283F8502003232DE0FB681D
:100C6000DB8E9BB2002BC6D1FA693968F86800F0B8
:100C700005FD0346002B02D0FB6820225A65FB6865
:100C80009B68002B0AD100237B61FB681B68DB6833
:100C90007B61FB681B689B687B617B69FB68012249
:100CA00083F85120FB68002283F85020FB685B6DBD
:100CB000002B01D0012300E0002318462037BD4659
:100CC00080BD80B588B002AFF860B9603B60134664
:100CD000FB80FB6893F85130DBB2012B01D002237B
:100CE00004E1FB685B68B3F5827F12D1FB689B6807
:100CF000002B0ED1FB68042283F85120FA883B6850
:100D000000931346BA68B968F86800F0F3F8034630
:100D1000ECE001F057FF7861BB68002B02D0FB8844
:100D2000002B01D10123E1E0FB6893F85030012B47
:100D300001D10223DAE0FB68012283F85020FB682E
:100D4000042283F85120FB6800225A65FB68BA68C8
:100D50009A63FB68FA889A87FB68FA88DA87FB68E7
:100D600000221A63FB6800229A86FB680022DA865A
:100D7000FB6800221A64FB6800225A64FB689B68C7
:100D8000B3F5004F0FD1FB681B681A68FB681B683E
:100D900022F040021A60FB681B681A68FB681B6837
:100DA00022F480421A60FB681B681B6803F0400352
:100DB000402B07D0FB681B681A68FB681B6842F071
:100DC00040021A60FB68DB68002B70D135E0FB68DD
:100DD0001B689B6803F00103012B15D1FB681B689E
:100DE00003F10C02FB689B6B1278D2B21A70FB689D
:100DF0009B6B5A1CFB689A63FB68DB8F9BB2013BC1
:100E00009AB2FB68DA8718E001F0DCFE02467B69E3
:100E1000D31A3A689A4203D83B68B3F1FF3F02D134
:100E20003B68002B09D1FB68012283F85120FB6845
:100E3000002283F85020032358E0FB68DB8F9BB22D
:100E4000002BC4D138E0FB681B689B6803F00103EA
:100E5000012B13D1FB681B68DA68FB689B6B92B2AD
:100E60001A80FB689B6B9A1CFB689A63FB68DB8F9C
:100E70009BB2013B9AB2FB68DA8718E001F0A2FE50
:100E800002467B69D31A3A689A4203D83B68B3F1A9
:100E9000FF3F02D13B68002B09D1FB68012283F898
:100EA0005120FB68002283F8502003231EE0FB68DA
:100EB000DB8F9BB2002BC6D17A693968F86800F0E5
:100EC00077FB0346002B02D0FB6820225A65FB68A3
:100ED000012283F85120FB68002283F85020FB6830
:100EE0005B6D002B01D0012300E00023184618376A
:100EF000BD4680BD80B58AB000AFF860B9607A6049
:100F00007B8001237B6201F05DFE3862FB6893F811
:100F10005130FB77FB685B68BB617B88FB82FB7FA2
:100F2000012B0CD0BB69B3F5827F06D1FB689B68AF
:100F3000002B02D1FB7F042B01D002237FE1BB6891
:100F4000002B05D07B68002B02D07B88002B01D1C1
:100F5000012374E1FB6893F85030012B01D1022387
:100F60006DE1FB68012283F85020FB6893F8513053
:100F7000DBB2042B03D0FB68052283F85120FB6809
:100F800000225A65FB687A689A63FB687A88DA8778
:100F9000FB687A889A87FB68BA681A63FB687A8864
:100FA000DA86FB687A889A86FB6800221A64FB68F6
:100FB00000225A64FB681B681B6803F04003402B47
:100FC00007D0FB681B681A68FB681B6842F0400288
:100FD0001A60FB68DB68B3F5006F7ED1FB685B6865
:100FE000002B02D0FB8A012B6CD1FB681B6B1A888B
:100FF000FB681B68DA60FB681B6B9A1CFB681A6352
:10100000FB68DB8E9BB2013B9AB2FB68DA8659E043
:10101000FB681B689B6803F00203022B1BD1FB6873
:10102000DB8E9BB2002B16D07B6A012B13D1FB68A1
:101030001B6B1A88FB681B68DA60FB681B6B9A1CC9
:10104000FB681A63FB68DB8E9BB2013B9AB2FB68BC
:10105000DA8600237B62FB681B689B6803F0010350
:10106000012B19D1FB68DB8F9BB2002B14D0FB68DE
:101070001B68DA68FB689B6B92B21A80FB689B6BFB
:101080009A1CFB689A63FB68DB8F9BB2013B9AB2A8
:10109000FB68DA8701237B6201F094FD02463B6A1C
:1010A000D31A3A6B9A420DD83B6BB3F1FF3F09D08C
:1010B000FB68012283F85120FB68002283F850204E
:1010C0000323BCE0FB68DB8E9BB2002BA0D1FB6846
:1010D000DB8F9BB2002B9BD182E0FB685B68002B0F
:1010E00002D0FB8A012B71D1FB681A6BFB681B686D
:1010F0000C3312781A70FB681B6B5A1CFB681A635E
:10110000FB68DB8E9BB2013B9AB2FB68DA865DE03E
:10111000FB681B689B6803F00203022B1CD1FB6871
:10112000DB8E9BB2002B17D07B6A012B14D1FB689E
:101130001A6BFB681B680C3312781A70FB681B6B08
:101140005A1CFB681A63FB68DB8E9BB2013B9AB2A8
:10115000FB68DA8600237B62FB681B689B6803F0F0
:101160000103012B19D1FB68DB8F9BB2002B14D03C
:10117000FB681B68DA68FB689B6BD2B21A70FB686D
:101180009B6B5A1CFB689A63FB68DB8F9BB2013B2D
:101190009AB2FB68DA8701237B6201F013FD0246F5
:1011A0003B6AD31A3A6B9A4203D83B6BB3F1FF3FC9
:1011B00002D13B6B002B09D1FB68012283F851203F
:1011C000FB68002283F85020032338E0FB68DB8EA5
:1011D0009BB2002B9CD1FB68DB8F9BB2002B97D17D
:1011E0003A6A396BF86800F049FA0346002B08D0D8
:1011F000FB6820225A65FB68002283F850200123F7
:101200001DE0FB689B68002B0AD100233B61FB6853
:101210001B68DB683B61FB681B689B683B613B6943
:10122000FB68012283F85120FB68002283F85020DC
:10123000FB685B6D002B01D0012300E00023184602
:101240002837BD4680BD000080B588B000AF78600B
:101250007B681B685B68FB617B681B689B68BB6184
:10126000BB699B0903F00103002B0FD1BB6903F09D
:101270000103002B0AD0FB699B0903F00103002B3B
:1012800004D07B681B6C78689847D7E0BB695B0823
:1012900003F00103002B0AD0FB69DB0903F0010313
:1012A000002B04D07B685B6C78689847C6E0BB690C
:1012B0005B0903F00103002B0CD1BB699B0903F010
:1012C0000103002B06D1BB691B0A03F00103002BAD
:1012D00000F0B480FB695B0903F00103002B00F010
:1012E000AD80BB699B0903F00103002B23D07B6811
:1012F00093F85130DBB2032B11D07B685B6D43F068
:1013000004027B685A6500237B617B681B68DB688D
:101310007B617B681B689B687B617B690BE00023BA
:101320003B617B681B68DB683B617B681B689B6873
:101330003B613B6982E0BB695B0903F00103002B61
:1013400014D07B685B6D43F001027B685A65002313
:10135000FB607B681B689B68FB607B681B681A6886
:101360007B681B6822F040021A60FB68BB691B0A9D
:1013700003F00103002B0CD07B685B6D43F0080287
:101380007B685A650023BB607B681B689B68BB60F9
:10139000BB687B685B6D002B4FD07B681B685A680D
:1013A0007B681B6822F0E0025A607B68012283F8A8
:1013B0005120FB6903F00203002B04D1FB6903F009
:1013C0000103002B34D07B681B685A687B681B685C
:1013D00022F003025A607B68DB6C002B11D07B6823
:1013E000DB6C184A1A657B68DB6C184601F074F8F0
:1013F0000346002B05D07B685B6D43F040027B68A1
:101400005A657B689B6C002B16D07B689B6C0D4AE1
:101410001A657B689B6C184601F05EF80346002B4A
:101420000AD07B685B6D43F040027B685A6503E03D
:10143000786800F009F800E000BF00BF2037BD4623
:1014400080BD00BF7914000880B483B000AF78601D
:1014500000BF0C37BD465DF8047B704780B483B095
:1014600000AF78607B6893F85130DBB218460C37D8
:10147000BD465DF8047B704780B584B000AF7860EE
:101480007B689B6BFB60FB680022DA87FB680022AD
:10149000DA86F868FFF7D8FF00BF1037BD4680BD79
:1014A00080B588B000AFF860B9603B601346FB714F
:1014B00001F088FB0246BB6A9B1A3A681344FB6141
:1014C00001F080FBB861394B1B685B011B0DFA69A9
:1014D00002FB03F37B6154E03B68B3F1FF3F50D064
:1014E00001F070FB0246BB69D31AFA699A4202D92D
:1014F000FB69002B3DD1FB681B685A68FB681B68C1
:1015000022F0E0025A60FB685B68B3F5827F11D17C
:10151000FB689B68B3F5004F04D0FB689B68B3F58C
:10152000806F07D1FB681B681A68FB681B6822F094
:1015300040021A60FB689B6AB3F5005F0FD1FB683D
:101540001B681A68FB681B6822F400521A60FB686B
:101550001B681A68FB681B6842F400521A60FB683B
:10156000012283F85120FB68002283F850200323D6
:1015700017E07B69002B01D10023FB617B69013BF4
:101580007B61FB681B689A68BB681340BA689A4223
:101590000CBF01230023DBB21A46FB799A429BD190
:1015A000002318462037BD4680BD00BF080000203C
:1015B00080B586B002AFF860B9607A60FB685B689E
:1015C000B3F5827F11D1FB689B68B3F5004F04D05F
:1015D000FB689B68B3F5806F07D1FB681B681A68CE
:1015E000FB681B6822F040021A60FB685B68B3F579
:1015F000827F2AD1FB689B68B3F5806F12D07B682D
:101600000093BB6800228021F868FFF749FF03467A
:10161000002B2DD0FB685B6D43F02002FB685A6500
:10162000032326E07B680093BB6800220121F86851
:10163000FFF736FF0346002B1AD0FB685B6D43F0C3
:101640002002FB685A65032313E07B680093BB68A4
:1016500000220121F868FFF723FF0346002B07D083
:10166000FB685B6D43F02002FB685A65032300E0D2
:10167000002318461037BD4680BD000080B588B0F5
:1016800002AFF860B9607A607B680093BB680122A2
:101690000221F868FFF704FF0346002B07D0FB6820
:1016A0005B6D43F02002FB685A65032332E01B4B5D
:1016B0001B681B4AA2FB03235B0D4FF47A7202FBEB
:1016C00003F37B61FB685B68B3F5827F12D17B68B3
:1016D0000093BB6800228021F868FFF7E1FE034613
:1016E000002B16D0FB685B6D43F02002FB685A6547
:1016F00003230FE07B69002B0AD07B69013B7B61F0
:10170000FB681B689B6803F08003802BF2D000E02D
:1017100000BF002318461837BD4680BD08000020D2
:10172000819F5E1680B586B000AF78607B68002B25
:1017300001D1012367E27B681B6803F00103002BE2
:1017400075D0884B9B6803F00C03042B0CD0854BA1
:101750009B6803F00C03082B12D1824B5B6803F4E7
:101760008003B3F5800F0BD17E4B1B6803F400336D
:10177000002B5BD07B685B68002B57D1012342E2D2
:101780007B685B68B3F5803F06D1764B1B68754A72
:1017900043F4803313601DE07B685B68B3F5A02FD2
:1017A0000CD1704B1B686F4A43F4802313606D4B60
:1017B0001B686C4A43F4803313600BE0694B1B6871
:1017C000684A23F480331360664B1B68654A23F430
:1017D000802313607B685B68002B13D001F0F2F963
:1017E000386108E001F0EEF902463B69D31A642B38
:1017F00001D9032307E25B4B1B6803F40033002B82
:10180000F0D014E001F0DEF9386108E001F0DAF917
:1018100002463B69D31A642B01D90323F3E1514BF0
:101820001B6803F40033002BF0D100E000BF7B689D
:101830001B6803F00203002B63D04A4B9B6803F044
:101840000C03002B0BD0474B9B6803F00C03082BB9
:101850001CD1444B5B6803F48003002B16D1414B31
:101860001B6803F00203002B05D07B68DB68012BAB
:1018700001D00123C7E13B4B1B6823F0F8027B68D2
:101880001B69DB00374913430B603AE07B68DB6878
:10189000002B20D0344B01221A6001F093F93861FB
:1018A00008E001F08FF902463B69D31A022B01D9F7
:1018B0000323A8E12B4B1B6803F00203002BF0D09D
:1018C000284B1B6823F0F8027B681B69DB00254965
:1018D00013430B6015E0244B00221A6001F072F9EB
:1018E000386108E001F06EF902463B69D31A022B19
:1018F00001D9032387E11B4B1B6803F00203002B74
:10190000F0D17B681B6803F00803002B36D07B689E
:101910005B69002B16D0154B01221A6001F052F9B9
:10192000386108E001F04EF902463B69D31A022BF8
:1019300001D9032367E10B4B5B6F03F00203002B1C
:10194000F0D01BE0094B00221A6001F03BF938612E
:101950000EE001F037F902463B69D31A022B07D992
:10196000032350E10038024000004742800E474206
:10197000884B5B6F03F00203002BEAD17B681B6886
:1019800003F00403002B00F097800023FB75814BCC
:101990001B6C03F08053002B0FD10023BB607D4BE9
:1019A0001B6C7C4A43F0805313647A4B1B6C03F02E
:1019B0008053BB60BB680123FB75774B1B6803F446
:1019C0008073002B18D1744B1B68734A43F48073E7
:1019D000136001F0F7F8386108E001F0F3F802460F
:1019E0003B69D31A022B01D903230CE16A4B1B6814
:1019F00003F48073002BF0D07B689B68012B06D129
:101A0000644B1B6F634A43F0010313671CE07B6860
:101A10009B68052B0CD15F4B1B6F5E4A43F00403A0
:101A200013675C4B1B6F5B4A43F0010313670BE0CA
:101A3000584B1B6F574A23F001031367554B1B6F1D
:101A4000544A23F0040313677B689B68002B15D06E
:101A500001F0B8F838610AE001F0B4F802463B69D9
:101A6000D31A41F28832934201D90323CBE0494B88
:101A70001B6F03F00203002BEED014E001F0A2F87C
:101A800038610AE001F09EF802463B69D31A41F240
:101A90008832934201D90323B5E03E4B1B6F03F01C
:101AA0000203002BEED1FB7D012B05D1394B1B6CC2
:101AB000384A23F0805313647B689B69002B00F045
:101AC000A180344B9B6803F00C03082B5CD07B682F
:101AD0009B69022B41D1314B00221A6001F072F850
:101AE000386108E001F06EF802463B69D31A022B18
:101AF00001D9032387E0274B1B6803F00073002BF9
:101B0000F0D17B68DA697B681B6A1A437B685B6A81
:101B10009B011A437B689B6A5B08013B1B041A43C9
:101B20007B68DB6A1B061B4913434B601B4B01227E
:101B30001A6001F047F8386108E001F043F8024606
:101B40003B69D31A022B01D903235CE0114B1B68BC
:101B500003F00073002BF0D054E0104B00221A6009
:101B600001F030F8386108E001F02CF802463B69DA
:101B7000D31A022B01D9032345E0064B1B6803F05F
:101B80000073002BF0D13DE07B689B69012B07D1EE
:101B9000012338E0003802400070004060004742F6
:101BA0001B4B5B68FB607B689B69012B28D0FB6843
:101BB00003F480027B68DB699A4221D1FB6803F061
:101BC0003F027B681B6A9A421AD1FA6847F6C073D3
:101BD00013407A68526A9201934211D1FB6803F470
:101BE00040327B689B6A5B08013B1B049A4207D129
:101BF000FB6803F070627B68DB6A1B069A4201D0C7
:101C0000012300E0002318461837BD4680BD00BF01
:101C10000038024080B584B000AF786039607B68DE
:101C2000002B01D10123CCE0684B1B6803F00703B4
:101C30003A689A420CD9654B3A68D2B21A70634B33
:101C40001B6803F007033A689A4201D00123B8E009
:101C50007B681B6803F00203002B20D07B681B68A5
:101C600003F00403002B05D0594B9B68584A43F4FA
:101C7000E05393607B681B6803F00803002B05D0DA
:101C8000534B9B68524A43F460439360504B9B68AC
:101C900023F0F0027B689B684D4913438B607B689F
:101CA0001B6803F00103002B44D07B685B68012BA9
:101CB00007D1474B1B6803F40033002B19D10123D4
:101CC0007FE07B685B68022B03D07B685B68032B3B
:101CD00007D13F4B1B6803F00073002B09D1012390
:101CE0006FE03B4B1B6803F00203002B01D1012383
:101CF00067E0374B9B6823F003027B685B683449DD
:101D000013438B6000F05EFFF8600AE000F05AFFBA
:101D10000246FB68D31A41F28832934201D9032369
:101D20004FE02B4B9B6803F00C027B685B689B00C9
:101D30009A42EBD1254B1B6803F007033A689A429D
:101D40000CD2224B3A68D2B21A70204B1B6803F0B7
:101D500007033A689A4201D0012332E07B681B688E
:101D600003F00403002B08D0194B9B6823F4E052C6
:101D70007B68DB68164913438B607B681B6803F044
:101D80000803002B09D0124B9B6823F460427B6848
:101D90001B69DB000E4913438B6000F021F80246FB
:101DA0000B4B9B681B0903F00F030A49CB5C22FA1B
:101DB00003F3094A1360094B1B68184601F0A2FCA3
:101DC000002318461037BD4680BD00BF003C0240CE
:101DD00000380240D0660008080000200000002003
:101DE0002DE9B04F90B000AF00237B630023FB636D
:101DF00000233B630023BB63594B9B6803F00C0338
:101E0000082B0DD0082B00F2A180002B02D0042B50
:101E100003D09BE0534BBB639BE0534BBB6398E009
:101E20004F4B5B6803F03F037B634D4B5B6803F4F0
:101E30008003002B28D04A4B5B689B0900223B6241
:101E40007A623B6AC3F308000021474B03FB01F2AF
:101E5000002300FB03F31344434AA0FB0212FA627F
:101E60000A46BA62FA6A1344FB627B6B0022BB61CA
:101E7000FA61D7E90623D7E90A01FEF79DFA02467F
:101E80000B461346FB6353E0354B5B689B0900220E
:101E90003B617A613B69C3F3080A4FF0000B52467D
:101EA0005B464FF000004FF00001590141EAD2615A
:101EB000500102460B46B2EB0A0863EB0B094FF0E8
:101EC00000024FF000034FEA891343EA98634FEA98
:101ED0008812B2EB080463EB09054FF000024FF0E3
:101EE0000003EB0043EA5473E20014461D4614EB72
:101EF0000A033B6045EB0B037B604FF000024FF0A1
:101F00000003D7E9004529468B02214643EA915355
:101F100021468A02104619467B6B0022BB60FA609C
:101F2000D7E90223FEF748FA02460B461346FB6345
:101F30000B4B5B681B0C03F0030301335B003B633B
:101F4000FA6B3B6BB2FBF3F3BB6302E0054BBB6385
:101F500000BFBB6B18464037BD46BDE8B08F00BF21
:101F6000003802400024F400001BB70080B400AF2A
:101F7000034B1B681846BD465DF8047B704700BFE5
:101F80000800002080B500AFFFF7F0FF0246054BC8
:101F90009B689B0A03F007030349CB5C22FA03F317
:101FA000184680BD00380240E066000880B483B067
:101FB00000AF786039607B680F221A60124B9B6813
:101FC00003F003027B685A600F4B9B6803F0F0023A
:101FD0007B689A600C4B9B6803F4E0527B68DA6084
:101FE000094B9B68DB0803F4E0527B681A61074BDE
:101FF0001B6803F007023B681A6000BF0C37BD4640
:102000005DF8047B704700BF00380240003C02408E
:1020100080B489B000AF7860396000237B61002311
:102020003B610023BB610023FB616BE10122FB6983
:1020300002FA03F37B613B681B687A6913403B61DA
:102040003A697B699A4240F05A813B685B6803F0C9
:102050000303012B05D03B685B6803F00303022BED
:1020600030D17B689B68BB61FB695B00032202FA8D
:1020700003F3DB43BA691340BB613B68DA68FB6971
:102080005B0002FA03F3BA691343BB617B68BA6968
:102090009A607B685B68BB610122FB6902FA03F30B
:1020A000DB43BA691340BB613B685B681B0903F003
:1020B0000102FB6902FA03F3BA691343BB617B684F
:1020C000BA695A603B685B6803F00303032B17D0BF
:1020D0007B68DB68BB61FB695B00032202FA03F3E8
:1020E000DB43BA691340BB613B689A68FB695B00DC
:1020F00002FA03F3BA691343BB617B68BA69DA6019
:102100003B685B6803F00303022B23D1FB69DA0809
:102110007B68083253F82230BB61FB6903F0070388
:102120009B000F2202FA03F3DB43BA691340BB6141
:102130003B681A69FB6903F007039B0002FA03F38B
:10214000BA691343BB61FB69DA087B680832B96975
:1021500043F822107B681B68BB61FB695B000322AC
:1021600002FA03F3DB43BA691340BB613B685B6867
:1021700003F00302FB695B0002FA03F3BA6913433D
:10218000BB617B68BA691A603B685B6803F44033E3
:10219000002B00F0B4800023FB60604B5B6C5F4A57
:1021A00043F4804353645D4B5B6C03F48043FB60FA
:1021B000FB685B4AFB699B08023352F82330BB6122
:1021C000FB6903F003039B000F2202FA03F3DB43D6
:1021D000BA691340BB617B68524A93422BD07B683B
:1021E000514A934225D07B68504A93421FD07B6866
:1021F0004F4A934219D07B684E4A934213D07B6872
:102200004D4A93420DD07B684C4A934207D07B687D
:102210004B4A934201D107230EE008230CE006232A
:102220000AE0052308E0042306E0032304E0022378
:1022300002E0012300E00023FA6902F003029200A9
:102240009340BA691343BB613549FB699B0802336C
:10225000BA6941F823203B4B9B68BB613B69DB4378
:10226000BA691340BB613B685B6803F48013002BC1
:1022700003D0BA693B691343BB61324ABB699360BF
:10228000304BDB68BB613B69DB43BA691340BB6120
:102290003B685B6803F40013002B03D0BA693B6909
:1022A0001343BB61274ABB69D360264B5B68BB61A4
:1022B0003B69DB43BA691340BB613B685B6803F46D
:1022C0000033002B03D0BA693B691343BB611D4A3D
:1022D000BB6953601B4B1B68BB613B69DB43BA693D
:1022E0001340BB613B685B6803F48033002B03D071
:1022F000BA693B691343BB61124ABB691360FB694E
:102300000133FB61FB690F2B7FF690AE00BF00BF6E
:102310002437BD465DF8047B704700BF003802409B
:102320000038014000000240000402400008024062
:10233000000C02400010024000140240001802404D
:10234000001C0240003C014080B483B000AF7860C4
:102350000B467B8013467B707B78002B03D07A88FA
:102360007B689A6103E07B881A047B689A6100BFEE
:102370000C37BD465DF8047B7047000080B586B021
:1023800000AF786000237B6100F01CFC38617B6843
:10239000002B01D1012399E07B68022283F83520CC
:1023A0007B68002283F834207B681B681A687B688E
:1023B0001B6822F001021A600FE000F003FC0246E5
:1023C0003B69D31A052B08D97B6820225A657B68A4
:1023D000032283F83520032378E07B681B681B68A1
:1023E00003F00103002BE8D17B681B681B687B614D
:1023F0007A69384B13407B617B685A687B689B68BD
:102400001A437B68DB681A437B681B691A437B6845
:102410005B691A437B689B691A437B68DB691A43D3
:102420007B681B6A13437A6913437B617B685B6A31
:10243000042B07D17B68DA6A7B681B6B13437A69CC
:1024400013437B617B681B687A691A607B681B6831
:102450005B697B617B6923F007037B617B685B6A57
:102460007A6913437B617B685B6A042B17D17B68B5
:102470009B6A7A6913437B617B68DB6A002B0ED011
:10248000786800F00BFA0346002B08D07B684022E6
:102490005A657B68012283F83520012316E07B68AA
:1024A0001B687A695A61786800F0C2F90346FB60DC
:1024B0007B68DB6D3F229A40FB689A607B68002254
:1024C0005A657B68012283F83520002318461837A7
:1024D000BD4680BD3F8010F080B483B000AF78600F
:1024E0007B6893F83530DBB2022B04D07B68802206
:1024F0005A6501230CE07B68052283F835207B6850
:102500001B681A687B681B6822F001021A600023AE
:1025100018460C37BD465DF8047B704780B586B021
:1025200000AF78600023BB608E4B1B688E4AA2FB15
:1025300003239B0A7B617B689B6D3B613B691B6846
:10254000FB607B68DB6D08229A40FB681340002B20
:102550001AD07B681B681B6803F00403002B13D0A0
:102560007B681B681A687B681B6822F004021A608B
:102570007B68DB6D08229A403B699A607B685B6DE3
:1025800043F001027B685A657B68DB6D01229A404B
:10259000FB681340002B12D07B681B685B6903F05B
:1025A0008003002B0BD07B68DB6D01229A403B69D6
:1025B0009A607B685B6D43F002027B685A657B68BA
:1025C000DB6D04229A40FB681340002B12D07B681D
:1025D0001B681B6803F00203002B0BD07B68DB6DCC
:1025E00004229A403B699A607B685B6D43F0040269
:1025F0007B685A657B68DB6D10229A40FB6813404C
:10260000002B43D07B681B681B6803F00803002B7A
:102610003CD07B68DB6D10229A403B699A607B68F6
:102620001B681B6803F48023002B18D07B681B6891
:102630001B6803F40023002B08D17B681B6C002B64
:1026400024D07B681B6C786898471FE07B689B6C84
:10265000002B1BD07B689B6C7868984716E07B68E2
:102660001B681B6803F48073002B07D17B681B6811
:102670001A687B681B6822F008021A607B681B6C72
:10268000002B03D07B681B6C786898477B68DB6DF8
:1026900020229A40FB681340002B00F08F807B685B
:1026A0001B681B6803F01003002B00F087807B6819
:1026B000DB6D20229A403B699A607B6893F8353045
:1026C000DBB2052B36D17B681B681A687B681B68F8
:1026D00022F016021A607B681B685A697B681B68C7
:1026E00022F080025A617B681B6C002B03D17B684F
:1026F0009B6C002B07D07B681B681A687B681B6883
:1027000022F008021A607B68DB6D3F229A403B6929
:102710009A607B68012283F835207B68002283F869
:1027200034207B681B6D002B7ED07B681B6D786826
:10273000984779E07B681B681B6803F48023002BB3
:102740001DD07B681B681B6803F40023002B0DD190
:102750007B685B6C002B31D07B685B6C786898473A
:102760002CE000BF08000020B5814E1B7B68DB6BAE
:10277000002B23D07B68DB6B786898471EE07B6872
:102780001B681B6803F48073002B0FD17B681B68E8
:102790001A687B681B6822F010021A607B680122AD
:1027A00083F835207B68002283F834207B68DB6B5C
:1027B000002B03D07B68DB6B786898477B685B6D88
:1027C000002B32D07B685B6D03F00103002B22D01D
:1027D0007B68052283F835207B681B681A687B6854
:1027E0001B6822F001021A60BB680133BB607A6982
:1027F0009A4207D37B681B681B6803F00103002B18
:10280000F2D100E000BF7B68012283F835207B68AD
:10281000002283F834207B68DB6C002B05D07B68BA
:10282000DB6C7868984700E000BF1837BD4680BD74
:1028300080B485B000AF78607B681B68DBB2103B6A
:10284000144AA2FB03231B09FB60134AFB681344D1
:102850001B781A467B68DA65FB68032B09D97B680D
:102860001B6823F47F7323F003031A1D7B689A65AA
:1028700007E07B681B6823F47F7323F003037A6807
:1028800093657B689B6D18461437BD465DF8047BE5
:10289000704700BFABAAAAAAC866000880B485B07A
:1028A00000AF78600023FB737B689B6ABB607B682A
:1028B0009B69002B1FD1BB68032B56D801A252F88D
:1028C00023F000BFD5280008E7280008D528000815
:1028D0006B2900087B68DB6A03F08073002B46D00D
:1028E0000123FB7343E07B68DB6AB3F1C07F40D117
:1028F0000123FB733DE07B689B69B3F5005F21D149
:10290000BB68032B37D801A252F823F01D29000819
:10291000232900081D290008352900080123FB731D
:1029200030E07B68DB6A03F08073002B25D0012345
:10293000FB7322E07B68DB6AB3F1C07F1FD1012308
:10294000FB731CE0BB68022B03D9BB68032B03D0CD
:1029500018E00123FB7315E07B68DB6A03F08073EA
:10296000002B0ED00123FB730BE000BF0AE000BF79
:1029700008E000BF06E000BF04E000BF02E000BFC7
:1029800000E000BFFB7B18461437BD465DF8047BB2
:10299000704700BF80B485B000AF78607B6803F0FB
:1029A0000703FB600C4BDB68BB60BA684FF6FF03A4
:1029B0001340BB60FB681A02BB68134343F0BF635C
:1029C00043F40033BB60044ABB68D36000BF1437D4
:1029D000BD465DF8047B704700ED00E080B400AFB9
:1029E000044BDB681B0A03F007031846BD465DF87D
:1029F000047B704700ED00E080B483B000AF034675
:102A0000FB7197F90730002B0BDBFB7903F01F02FA
:102A1000074997F907305B09012000FA02F241F8F3
:102A2000232000BF0C37BD465DF8047B704700BF14
:102A300000E100E080B483B000AF03463960FB7171
:102A400097F90730002B0ADB3B68DAB20C4997F99B
:102A500007301201D2B20B4483F800230AE03B682E
:102A6000DAB20849FB7903F00F03043B1201D2B23A
:102A70000B441A7600BF0C37BD465DF8047B7047E7
:102A800000E100E000ED00E080B489B000AFF86044
:102A9000B9607A60FB6803F00703FB61FB69C3F16F
:102AA0000703042B28BF0423BB61FB690433062BF7
:102AB00002D9FB69033B00E000237B614FF0FF324A
:102AC000BB6902FA03F3DA43BB681A407B699A4098
:102AD0004FF0FF317B6901FA03F3D9437B680B4068
:102AE000134318462437BD465DF8047B704780B514
:102AF00082B000AF78607868FFF74CFF00BF0837FE
:102B0000BD4680BD80B586B000AF0346B9607A602F
:102B1000FB7300237B61FFF761FF78617A68B96816
:102B20007869FFF7B1FF024697F90F301146184652
:102B3000FFF780FF00BF1837BD4680BD80B582B06B
:102B400000AF0346FB7197F907301846FFF754FFB3
:102B500000BF0837BD4680BD80B500AF0E4B1B6877
:102B60000D4A43F4007313600B4B1B680A4A43F48D
:102B700080631360084B1B68074A43F4807313603B
:102B80000320FFF7B4FF0F2000F0BCFDFDF7A0FE0F
:102B90000023184680BD00BF003C024080B400AF57
:102BA000064B1B781A46064B1B681344044A1360F5
:102BB00000BFBD465DF8047B704700BF04000020E5
:102BC0004C01002080B400AF034B1B681846BD4683
:102BD0005DF8047B704700BF4C01002080B584B0D5
:102BE00000AF7860FFF7EEFFB8607B68FB60FB68C2
:102BF000B3F1FF3F05D00A4B1B781A46FB6813441C
:102C0000FB6000BFFFF7DEFF0246BB68D31AFA681D
:102C10009A42F7D800BF00BF1037BD4680BD00BF45
:102C20000400002080B582B000AF78607B68002B84
:102C300001D1012341E07B6893F83D30DBB2002BEA
:102C400006D17B68002283F83C20786800F039F8D0
:102C50007B68022283F83D207B681A687B68043316
:102C60001946104600F0C0F97B68012283F846201F
:102C70007B68012283F83E207B68012283F83F2095
:102C80007B68012283F840207B68012283F8412081
:102C90007B68012283F842207B68012283F843206D
:102CA0007B68012283F844207B68012283F8452059
:102CB0007B68012283F83D20002318460837BD4673
:102CC00080BD80B483B000AF786000BF0C37BD46D4
:102CD0005DF8047B7047000080B485B000AF786079
:102CE0007B6893F83D30DBB2012B01D001234EE02D
:102CF0007B68022283F83D207B681B68DA687B686A
:102D00001B6842F00102DA607B681B68234A934229
:102D100022D07B681B68B3F1804F1DD07B681B6895
:102D20001F4A934218D07B681B681E4A934213D0F7
:102D30007B681B681C4A93420ED07B681B681B4A49
:102D4000934209D07B681B68194A934204D07B6880
:102D50001B68184A934211D17B681B689B6803F07B
:102D60000703FB60FB68062B10D07B681B681A68A2
:102D70007B681B6842F001021A6007E07B681B68F1
:102D80001A687B681B6842F001021A60002318462B
:102D90001437BD465DF8047B704700BF000001405A
:102DA0000004004000080040000C00400004014006
:102DB000004001400018004080B584B000AF78604A
:102DC0007B681B68DB68FB607B681B681B69BB60FA
:102DD000BB6803F00203002B20D0FB6803F0020362
:102DE000002B1BD07B681B686FF002021A617B68A6
:102DF00001221A777B681B689B6903F00303002B91
:102E000003D0786800F0D2F805E0786800F0C4F8E4
:102E1000786800F0D5F87B6800221A77BB6803F069
:102E20000403002B20D0FB6803F00403002B1BD00D
:102E30007B681B686FF004021A617B6802221A77B4
:102E40007B681B689B6903F44073002B03D0786890
:102E500000F0ACF805E0786800F09EF8786800F0C3
:102E6000AFF87B6800221A77BB6803F00803002BD9
:102E700020D0FB6803F00803002B1BD07B681B6885
:102E80006FF008021A617B6804221A777B681B685E
:102E9000DB6903F00303002B03D0786800F086F8A9
:102EA00005E0786800F078F8786800F089F87B68C9
:102EB00000221A77BB6803F01003002B20D0FB68B8
:102EC00003F01003002B1BD07B681B686FF010020F
:102ED0001A617B6808221A777B681B68DB6903F438
:102EE0004073002B03D0786800F060F805E0786844
:102EF00000F052F8786800F063F87B6800221A77D7
:102F0000BB6803F00103002B0CD0FB6803F0010346
:102F1000002B07D07B681B686FF001021A6178688C
:102F2000FDF70AFBBB6803F08003002B0CD0FB68A5
:102F300003F08003002B07D07B681B686FF08002D2
:102F40001A61786800F006F9BB6803F04003002BB3
:102F50000CD0FB6803F04003002B07D07B681B6894
:102F60006FF040021A61786800F034F8BB6803F033
:102F70002003002B0CD0FB6803F02003002B07D0AC
:102F80007B681B686FF020021A61786800F0D8F83F
:102F900000BF1037BD4680BD80B483B000AF7860FD
:102FA00000BF0C37BD465DF8047B704780B483B02A
:102FB00000AF786000BF0C37BD465DF8047B7047FA
:102FC00080B483B000AF786000BF0C37BD465DF8B9
:102FD000047B704780B483B000AF786000BF0C37CB
:102FE000BD465DF8047B704780B485B000AF786063
:102FF00039607B681B68FB607B68464A934213D04C
:103000007B68B3F1804F0FD07B68434A93420BD06B
:103010007B68424A934207D07B68414A934203D07F
:103020007B68404A934208D1FB6823F07003FB6041
:103030003B685B68FA681343FB607B68354A9342E0
:103040002BD07B68B3F1804F27D07B68324A934204
:1030500023D07B68314A93421FD07B68304A934229
:103060001BD07B682F4A934217D07B682E4A93422D
:1030700013D07B682D4A93420FD07B682C4A934231
:103080000BD07B682B4A934207D07B682A4A934235
:1030900003D07B68294A934208D1FB6823F440732C
:1030A000FB603B68DB68FA681343FB60FB6823F056
:1030B00080023B685B691343FB607B68FA681A60B7
:1030C0003B689A687B68DA623B681A687B689A6238
:1030D0007B68104A934203D07B68124A934203D123
:1030E0003B681A697B681A637B6801225A617B68B6
:1030F0001B6903F00103012B05D17B681B6923F0D9
:1031000001027B681A6100BF1437BD465DF8047B7D
:10311000704700BF0000014000040040000800406C
:10312000000C004000040140004001400044014008
:103130000048014000180040001C004000200040F2
:1031400080B483B000AF786000BF0C37BD465DF837
:10315000047B704780B483B000AF786000BF0C3749
:10316000BD465DF8047B704780B400AF064BD3F8D2
:103170008830054A43F47003C2F8883000BFBD466A
:103180005DF8047B704700BF00ED00E080B500AF44
:10319000002210212848FFF7D7F8284B7E221A700A
:1031A0004FF47A73012225492548FDF746FC00BFFC
:1031B0002348FEF753F90346032BF9D01F4BB622E1
:1031C0001A704FF47A7301221C491D48FDF735FC33
:1031D00000BF1B48FEF742F90346032BF9D001223A
:1031E00010211548FFF7B0F8002210211248FFF710
:1031F000ABF8124B7D221A704FF47A7301220F49FB
:103200000F48FDF71AFC00BF0D48FEF727F90346EB
:10321000032BF9D0094B04221A7000BF0848FEF7AF
:103220001DF90346032BF9D0012210210248FFF7B4
:103230008BF800BF80BD00BF00000240800100206D
:103240003400002080B582B000AF00221021474832
:10325000FFF77AF8464B92221A704FF47A730122E4
:1032600043494448FDF7E9FB00BF4248FEF7F6F842
:103270000346032BF9D04FF47A7301223E493D48AF
:10328000FDF71FFD00BF3B48FEF7E8F80346042B9F
:10329000F9D000237B6017E04FF47A73012236499E
:1032A0003448FDF70EFD00BF3248FEF7D7F803465D
:1032B000042BF9D0304B1978304A7B6813440A4606
:1032C0001A707B6801337B607B68052BE4DD01228B
:1032D00010212648FFF738F8284B5B781BB21B02F9
:1032E0001AB2264B1B781BB213431BB207EE903A5F
:1032F000B8EEE77A224BD3ED007A67EE277A214BBE
:10330000C3ED007A1D4BDB781BB21B021AB21B4BBC
:103310009B781BB213431BB207EE903AB8EEE77AE4
:10332000174BD3ED007A67EE277A164BC3ED017A7F
:10333000124B5B791BB21B021AB2104B1B791BB2EA
:1033400013431BB207EE903AB8EEE77A0C4BD3ED7D
:10335000007A67EE277A0B4BC3ED027A02210A4806
:1033600000F0DEF800BF0837BD4680BD0000024017
:103370008001002034000020810100207001002025
:103380000C0000205C0100208801002080B500AF07
:10339000002201211748FEF7D7FF174B14221A709D
:1033A0004FF47A73012214491448FDF746FB00BF1D
:1033B0001248FEF753F80346032BF9D00E4BB62202
:1033C0001A704FF47A7301220B490C48FDF735FB54
:1033D00000BF0A48FEF742F80346032BF9D01E202F
:1033E000FFF7FCFB012201210248FEF7ADFF00BF01
:1033F00080BD00BF00040240820100203400002094
:1034000080B582B000AF002201213E48FEF79CFF4C
:103410003D4B80221A704FF47A7301223A493B489F
:10342000FDF70BFB00BF3948FEF718F80346032BE6
:10343000F9D000237B6017E04FF47A7301223449FE
:103440003248FDF73EFC00BF3048FEF707F8034660
:10345000042BF9D02E4B19782E4A7B6813440A4668
:103460001A707B6801337B607B68072BE4DD0122E7
:1034700001212448FEF768FF264BDB781BB21B02B4
:103480001AB2244B9B781BB213431BB207EE903A3F
:10349000B8EEE77A204BD3ED007A67EE277A1F4B20
:1034A000C3ED007A1B4B5B791BB21B021AB2194B9E
:1034B0001B791BB213431BB207EE903AB8EEE77AC2
:1034C000154BD3ED007A67EE277A144BC3ED017AE2
:1034D000104BDB791BB21B021AB20E4B9B791BB24D
:1034E00013431BB207EE903AB8EEE77A0A4BD3EDDE
:1034F000007A67EE277A094BC3ED027A00BF0837DE
:10350000BD4680BD0004024082010020340000203E
:1035100083010020780100201000002050010020CD
:1035200090B585B000AF78600B46FB700023FB734D
:10353000002210213248FEF707FF324BA2221A70F8
:103540004FF47A7301222F492F48FDF776FA4FF492
:103550007A7301222D492C48FDF7B3FB10E0FC7B68
:10356000552000F05DF803461A4604F110033B4471
:1035700003F8042CFB7B0133FB73FB78013BFB70EE
:10358000FB78002BEBD1012210211D48FEF7DCFE59
:103590003B7B1BB2DB001AB27B7B5B09DBB21BB24D
:1035A00013431BB207EE903AF8EEE77A184BC3EDDF
:1035B000007A174BD3ED007A9FED167AF4EEC77AB6
:1035C000F1EE10FA09DD124BD3ED007A9FED127A7D
:1035D00077EEC77A0E4BC3ED007A0D4BD3ED007A30
:1035E000B4EE007A67EE877AB3EE077A77EE877AE1
:1035F0000A4BC3ED007A00BF1437BD4690BD00BF33
:1036000000000240840100203400002081010020DD
:103610006C01002000C07F440000004568010020CC
:1036200080B586B002AF0346FB7107F10F02F91DAA
:103630004FF47A73009301230348FDF75BFCFB7B97
:1036400018461037BD4680BD3400002080B582B0DA
:1036500000AF00237B60104B1B6B0F4A43F48003C9
:1036600013630D4B1B6B03F480037B607B680022AC
:1036700005213820FFF746FA3820FFF75FFA0022CD
:1036800005213B20FFF73EFA3B20FFF757FA00BF2A
:103690000837BD4680BD00BF0038024080B500AF8E
:1036A000084A0021084802F04BF90346074A136014
:1036B000074A0021074802F043F90346064A13600F
:1036C00000BF80BDE8660008DD36000890010020DC
:1036D0000C670008E93600089401002080B483B02C
:1036E00000AF786000BFFDE780B582B000AF7860C2
:1036F000FFF7A8FDFFF784FE012002F0B3F900BF39
:10370000F6E7000080B58EB000AF78600023FB6262
:103710000023BB620023FB60334B1B6C324A43F037
:1037200020031364304B1B6C03F02003FB60FB6829
:1037300007F1100207F1140311461846FEF736FC94
:103740003B6AFB62FB6A002B03D1FEF71BFC78632C
:1037500004E0FEF717FC03465B007B637B6B234AA8
:10376000A2FB03239B0C013BBB62214B214A1A6045
:103770001F4B40F2E732DA601D4ABB6A53601C4BB4
:1037800000221A611A4B00229A60194B00229A619A
:103790001748FFF747FA034687F8333097F8333076
:1037A000002B1BD11248FFF797FA034687F83330F6
:1037B00097F83330002B11D13720FFF7BFF97B6822
:1037C0000F2B08D8002279683720FFF79BF90A4AA7
:1037D0007B68136002E0012387F8333097F83330B9
:1037E00018463837BD4680BD0038024083DE1B4393
:1037F00098010020001400400000002080B483B035
:1038000000AF78607B6803F108027B685A607B68D0
:103810004FF0FF329A607B6803F108027B68DA6040
:103820007B6803F108027B681A617B6800221A60DA
:1038300000BF0C37BD465DF8047B704780B483B091
:1038400000AF78607B6800221A6100BF0C37BD466C
:103850005DF8047B704780B485B000AF7860396054
:103860007B685B68FB603B68FA685A60FB689A6833
:103870003B689A60FB689B683A685A60FB683A68E4
:103880009A603B687A681A617B681B685A1C7B687F
:103890001A6000BF1437BD465DF8047B704780B4E2
:1038A00085B000AF786039603B681B68BB60BB685F
:1038B000B3F1FF3F03D17B681B69FB600CE07B68C1
:1038C0000833FB6002E0FB685B68FB60FB685B68D9
:1038D0001B68BA689A42F6D2FB685A683B685A601D
:1038E0003B685B683A689A603B68FA689A60FB6874
:1038F0003A685A603B687A681A617B681B685A1C90
:103900007B681A6000BF1437BD465DF8047B7047C2
:1039100080B485B000AF78607B681B69FB607B6812
:103920005B687A6892689A607B689B687A6852687C
:103930005A60FB685B687A689A4203D17B689A6830
:10394000FB685A607B6800221A61FB681B685A1E7C
:10395000FB681A60FB681B6818461437BD465DF8A3
:10396000047B704780B584B000AF786039607B68B5
:10397000FB60FB68002B0BD14FF0500383F31188E1
:10398000BFF36F8FBFF34F8FBB6000BF00BFFDE77A
:1039900002F0DAFBFB681A68FB68DB6BF968096CFC
:1039A00001FB03F31A44FB689A60FB6800229A63E8
:1039B000FB681A68FB685A60FB681A68FB68DB6B77
:1039C000013BF968096C01FB03F31A44FB68DA60F8
:1039D000FB68FF2283F84420FB68FF2283F8452020
:1039E0003B68002B14D1FB681B69002B1AD0FB68C5
:1039F0001033184601F01AF90346002B12D00D4B74
:103A00004FF080521A60BFF34F8FBFF36F8F09E002
:103A1000FB6810331846FFF7F1FEFB6824331846A5
:103A2000FFF7ECFE02F0C2FB012318461037BD463B
:103A300080BD00BF04ED00E080B58EB002AFF8603D
:103A4000B9607A603B60FB68002B0BD14FF05003EC
:103A500083F31188BFF36F8FBFF34F8FBB6200BF3B
:103A600000BFFDE73B68002B0BD14FF0500383F301
:103A70001188BFF36F8FBFF34F8F7B6200BF00BF12
:103A8000FDE77B68002B02D0BB68002B01D001232F
:103A900000E00023002B0BD14FF0500383F311887B
:103AA000BFF36F8FBFF34F8F3B6200BF00BFFDE7D7
:103AB0007B68002B02D1BB68002B01D1012300E001
:103AC0000023002B0BD14FF0500383F31188BFF379
:103AD0006F8FBFF34F8FFB6100BF00BFFDE7502327
:103AE0007B617B69502B0BD04FF0500383F311881F
:103AF000BFF36F8FBFF34F8FBB6100BF00BFFDE708
:103B00007B693B68FB62FB6A002B0DD0FB6A0122DC
:103B100083F8462097F83820FB6A009313467A68AA
:103B2000B968F86800F005F8FB6A18463037BD46FA
:103B300080BD80B584B000AFF860B9607A60FB707A
:103B4000BB68002B03D1BB69BA691A6002E0BB698C
:103B50007A681A60BB69FA68DA63BB69BA681A6482
:103B60000121B869FFF7FEFEBB69FA7883F84C20A3
:103B700000BF1037BD4680BD80B58EB000AFF86085
:103B8000B9607A603B6000237B63FB683B633B6BFF
:103B9000002B0BD14FF0500383F31188BFF36F8FCD
:103BA000BFF34F8FBB6200BF00BFFDE7BB68002BB8
:103BB00003D13B6B1B6C002B01D1012300E00023E0
:103BC000002B0BD14FF0500383F31188BFF36F8F9D
:103BD000BFF34F8F7B6200BF00BFFDE73B68022B46
:103BE00003D13B6BDB6B012B01D1012300E00023F0
:103BF000002B0BD14FF0500383F31188BFF36F8F6D
:103C0000BFF34F8F3B6200BF00BFFDE701F0CEF96D
:103C10000346002B02D17B68002B01D1012300E079
:103C20000023002B0BD14FF0500383F31188BFF317
:103C30006F8FBFF34F8FFB6100BF00BFFDE702F046
:103C400083FA3B6B9A6B3B6BDB6B9A4202D33B680C
:103C5000022B29D13A68B968386B00F00FFAF86284
:103C60003B6B5B6A002B10D03B6B2433184600F093
:103C7000DDFF0346002B13D03F4B4FF080521A60FC
:103C8000BFF34F8FBFF36F8F0AE0FB6A002B07D0A3
:103C9000394B4FF080521A60BFF34F8FBFF36F8FD5
:103CA00002F084FA012363E07B68002B03D102F069
:103CB0007DFA00235CE07B6B002B06D107F1140337
:103CC000184601F017F801237B6302F06FFA00F049
:103CD00087FD02F039FA3B6B93F844305BB2B3F1E5
:103CE000FF3F03D13B6B002283F844203B6B93F8EA
:103CF00045305BB2B3F1FF3F03D13B6B002283F849
:103D0000452002F053FA3A1D07F1140311461846F4
:103D100001F006F80346002B24D1386B00F0A6FA18
:103D20000346002B18D03B6B10337A6811461846B7
:103D300000F02AFF386B00F031FA00F05FFD034617
:103D4000002B7FF47CAF0C4B4FF080521A60BFF316
:103D50004F8FBFF36F8F72E7386B00F01FFA00F0E0
:103D60004DFD6CE7386B00F019FA00F047FD0023B9
:103D700018463837BD4680BD04ED00E080B590B0F0
:103D800000AFF860B9607A603B60FB68BB63BB6BF7
:103D9000002B0BD14FF0500383F31188BFF36F8FCB
:103DA000BFF34F8FBB6200BF00BFFDE7BB68002BB6
:103DB00003D1BB6B1B6C002B01D1012300E000235E
:103DC000002B0BD14FF0500383F31188BFF36F8F9B
:103DD000BFF34F8F7B6200BF00BFFDE73B68022B44
:103DE00003D1BB6BDB6B012B01D1012300E000236E
:103DF000002B0BD14FF0500383F31188BFF36F8F6B
:103E0000BFF34F8F3B6200BF00BFFDE702F07CFABB
:103E1000EFF311824FF0500383F31188BFF36F8FDC
:103E2000BFF34F8FFA61BB61FB697B63BB6B9A6B1E
:103E3000BB6BDB6B9A4202D33B68022B2FD1BB6B6F
:103E400093F8453087F83330BB6B9B6BFB623A6865
:103E5000B968B86B00F012F997F93330B3F1FF3F4E
:103E600012D1BB6B5B6A002B16D0BB6B2433184698
:103E700000F0DCFE0346002B0ED07B68002B0BD03D
:103E80007B6801221A6007E097F833300133DBB218
:103E90005AB2BB6B83F845200123FB6301E000238A
:103EA000FB637B6B7B617B6983F3118800BFFB6BDA
:103EB00018464037BD4680BD80B58CB000AFF86075
:103EC000B9607A600023FB62FB68BB62BB6A002BAF
:103ED0000BD14FF0500383F31188BFF36F8FBFF303
:103EE0004F8F3B6200BF00BFFDE7BB68002B03D1D3
:103EF000BB6A1B6C002B01D1012300E00023002BC7
:103F00000BD14FF0500383F31188BFF36F8FBFF3D2
:103F10004F8FFB6100BF00BFFDE701F047F803468C
:103F2000002B02D17B68002B01D1012300E000238C
:103F3000002B0BD14FF0500383F31188BFF36F8F29
:103F4000BFF34F8FBB6100BF00BFFDE702F0FCF87D
:103F5000BB6A9B6B7B627B6A002B1FD0B968B86A17
:103F600000F0F6F87B6A5A1EBB6A9A63BB6A1B694B
:103F7000002B0FD0BB6A1033184600F057FE0346E3
:103F8000002B07D03C4B4FF080521A60BFF34F8F8D
:103F9000BFF36F8F02F00AF9012369E07B68002B01
:103FA00003D102F003F9002362E0FB6A002B06D183
:103FB00007F11003184600F09DFE0123FB6202F09A
:103FC000F5F800F00DFC02F0BFF8BB6A93F844303E
:103FD0005BB2B3F1FF3F03D1BB6A002283F84420F8
:103FE000BB6A93F845305BB2B3F1FF3F03D1BB6AC4
:103FF000002283F8452002F0D9F83A1D07F110039A
:104000001146184600F08CFE0346002B23D1B86AF7
:1040100000F016F90346002B17D0BB6A24337A68E8
:104020001146184600F0B0FDB86A00F0B7F800F08D
:10403000E5FB0346002B89D10F4B4FF080521A60ED
:10404000BFF34F8FBFF36F8F80E7B86A00F0A6F819
:1040500000F0D4FB7AE7B86A00F0A0F800F0CEFBDD
:10406000B86A00F0EDF80346002B3FF46FAF002371
:1040700018463037BD4680BD04ED00E080B586B0FF
:1040800000AFF860B9607A6000237B61FB689B6BCE
:104090003B61FB681B6C002B0DD1FB681B68002B80
:1040A0004DD1FB689B68184600F09EFF7861FB6865
:1040B00000229A6043E07B68002B19D1FB685868A6
:1040C000FB681B6C1A46B968FCF7DCF8FB685A6899
:1040D000FB681B6C1A44FB685A60FB685A68FB68F3
:1040E0009B689A422BD3FB681A68FB685A6026E0EB
:1040F000FB68D868FB681B6C1A46B968FCF7C2F805
:10410000FB68DA68FB681B6C5B421A44FB68DA6088
:10411000FB68DA68FB681B689A4207D2FB689A68FA
:10412000FB681B6C5B421A44FB68DA607B68022BFD
:1041300005D13B69002B02D03B69013B3B613B69E8
:104140005A1CFB689A637B6918461837BD4680BDC8
:1041500080B582B000AF786039607B681B6C002B43
:1041600018D07B68DA687B681B6C1A447B68DA605D
:104170007B68DA687B689B689A4203D37B681A681D
:104180007B68DA607B68D9687B681B6C1A46386884
:10419000FCF778F800BF0837BD4680BD80B584B015
:1041A00000AF786001F0D0FF7B6893F84530FB7377
:1041B00011E07B685B6A002B12D07B6824331846C1
:1041C00000F034FD0346002B01D000F00DFEFB7B18
:1041D000013BDBB2FB7397F90F30002BE9DC00E009
:1041E00000BF7B68FF2283F8452001F0DFFF01F06C
:1041F000ABFF7B6893F84430BB7311E07B681B69AD
:10420000002B12D07B681033184600F00FFD0346D8
:10421000002B01D000F0E8FDBB7B013BDBB2BB73A0
:1042200097F90E30002BE9DC00E000BF7B68FF222D
:1042300083F8442001F0BAFF00BF1037BD4680BDAF
:1042400080B584B000AF786001F07EFF7B689B6B27
:10425000002B02D10123FB6001E00023FB6001F091
:10426000A5FFFB6818461037BD4680BD80B584B0F9
:1042700000AF786001F068FF7B689A6B7B68DB6B4E
:104280009A4202D10123FB6001E00023FB6001F0B0
:104290008DFFFB6818461037BD4680BD80B485B0E1
:1042A00000AF786039600023FB6014E00F4AFB68C0
:1042B00052F83330002B0BD10C49FB683A6841F8B7
:1042C00033200A4AFB68DB0013447A685A6006E030
:1042D000FB680133FB60FB68072BE7D900BF00BF19
:1042E0001437BD465DF8047B704700BFE001002035
:1042F00080B586B000AFF860B9607A60FB687B611A
:1043000001F022FF7B6993F844305BB2B3F1FF3FC9
:1043100003D17B69002283F844207B6993F8453000
:104320005BB2B3F1FF3F03D17B69002283F84520E4
:1043300001F03CFF7B699B6B002B06D17B6924332A
:104340007A68B968184600F045FC7869FFF726FFDF
:1043500000BF1837BD4680BD80B58EB004AFF86091
:10436000B9607A603B607B6B002B0BD14FF0500340
:1043700083F31188BFF36F8FBFF34F8F3B6200BF92
:1043800000BFFDE7BB6B002B0BD14FF0500383F355
:104390001188BFF36F8FBFF34F8FFB6100BF00BF6A
:1043A000FDE75C233B613B695C2B0BD04FF0500376
:1043B00083F31188BFF36F8FBFF34F8FBB6100BFD3
:1043C00000BFFDE73B69BB6B002B1ED07B6B002B56
:1043D0001BD0BB6B7B627B6A7A6B1A637B6A02229F
:1043E00083F85920002303937B6A029307F1140397
:1043F00001933B6B00933B687A68B968F86800F0FA
:1044000050F8786A00F0DEF801E000237B617B69F8
:1044100018462837BD4680BD80B58CB004AFF86023
:10442000B9603B601346FB80FB889B00184601F097
:1044300069FB78617B69002B0ED05C2001F062FB88
:10444000F861FB69002B03D0FB697A691A6305E008
:10445000786901F025FC01E00023FB61FB69002B7A
:1044600017D0FB69002283F85920FA8800230393B0
:10447000FB690293FB6A0193BB6A00933B68B968CE
:10448000F86800F00EF8F86900F09CF80123BB61B1
:1044900002E04FF0FF33BB61BB6918462037BD46D1
:1044A00080BD80B588B000AFF860B9607A603B60CD
:1044B0003B6B186B7B689B001A46A521FBF768FED7
:1044C0003B6B1A6B7B6803F18043013B9B001344F9
:1044D000BB61BB6923F00703BB61BB6903F0070342
:1044E000002B0BD04FF0500383F31188BFF36F8F75
:1044F000BFF34F8F7B6100BF00BFFDE7BB68002BA0
:104500001FD00023FB6112E0BA68FB6913441978DD
:104510003A6BFB69134434330A461A70BA68FB6974
:1045200013441B78002B06D0FB690133FB61FB6948
:104530000F2BE9D900E000BF3B6B002283F843203A
:1045400003E03B6B002283F83420BB6A372B01D990
:104550003723BB623B6BBA6ADA623B6BBA6ADA64D6
:104560003B6B00221A653B6B04331846FFF766F974
:104570003B6B18331846FFF761F93B6B3A6B1A61D6
:10458000BB6AC3F138023B6B9A613B6B3A6B5A6270
:104590003B6B00225A653B6B002283F858203A6837
:1045A000F968B86901F09CFC02463B6B1A60FB6A33
:1045B000002B02D0FB6A3A6B1A6000BF2037BD4661
:1045C00080BD000080B582B000AF786001F0BCFD16
:1045D0002D4B1B6801332C4A13602C4B1B68002B9E
:1045E00009D12A4A7B681360274B1B68012B10D125
:1045F00000F01EFC0DE0264B1B68002B09D1234B5D
:104600001B68DA6A7B68DB6A9A4202D81F4A7B68B9
:104610001360204B1B6801331E4A13601D4B1A6840
:104620007B685A647B68DA6A1B4B1B689A4203D921
:104630007B68DB6A184A13607B68DA6A13469B0062
:1046400013449B00154A1A447B68043319461046EC
:10465000FFF701F901F0AAFD0D4B1B68002B0ED0EE
:104660000A4B1B68DA6A7B68DB6A9A4207D20C4BFA
:104670004FF080521A60BFF34F8FBFF36F8F00BFB0
:104680000837BD4680BD00BFF40600202002002090
:104690000007002010070020FC0600202402002054
:1046A00004ED00E080B584B000AF78600023FB60CB
:1046B0007B68002B18D0144B1B68002B0BD04FF0DD
:1046C000500383F31188BFF36F8FBFF34F8FBB602D
:1046D00000BF00BFFDE700F083F80021786800F01C
:1046E000F3FC00F08BF8F860FB68002B07D1074B58
:1046F0004FF080521A60BFF34F8FBFF36F8F00BF30
:104700001037BD4680BD00BF1C07002004ED00E04F
:1047100080B58AB004AF0023BB6000237B603A46BB
:10472000391D07F10803184601F0B8F939687B68AC
:10473000BA68029201930023009300230A4622499B
:104740002248FFF709FE0346214A1360204B1B68ED
:10475000002B02D001237B6101E000237B617B6998
:10476000012B02D100F004FD78617B69012B16D189
:104770004FF0500383F31188BFF36F8FBFF34F8F58
:104780003B6100BF134B4FF0FF321A60124B012206
:104790001A60124B00221A6001F032FC0FE07B69B4
:1047A000B3F1FF3F0BD14FF0500383F31188BFF3F8
:1047B0006F8FBFF34F8FFB6000BF00BFFDE700BFEF
:1047C0001837BD4680BD00BFB0660008014E000826
:1047D000180700201407002000070020F80600201A
:1047E00080B400AF044B1B680133034A136000BF61
:1047F000BD465DF8047B70471C07002080B584B07F
:1048000000AF0023FB600023BB60424B1B68002B02
:104810000BD14FF0500383F31188BFF36F8FBFF3B9
:104820004F8F3B6000BF00BFFDE701F08DFC394BAF
:104830001B68013B374A1360364B1B68002B62D163
:10484000354B1B68002B5ED02FE0344BDB68DB68F8
:10485000FB60FB6818331846FFF75AF8FB6804330F
:104860001846FFF755F8FB68DA6A2D4B1B689A4229
:1048700003D9FB68DB6A2A4A1360FB68DA6A1346CD
:104880009B0013449B00274A1A44FB6804331946D3
:104890001046FEF7E0FFFB68DA6A234B1B68DB6A11
:1048A0009A4202D3214B01221A601C4B1B68002B39
:1048B000CBD1FB68002B01D000F058FB1C4B1B68D0
:1048C0007B607B68002B10D000F046F80346002B7D
:1048D00002D0164B01221A607B68013B7B607B682B
:1048E000002BF1D1124B00221A60104B1B68002BD9
:1048F00009D00123BB600F4B4FF080521A60BFF309
:104900004F8FBFF36F8F01F051FCBB681846103713
:10491000BD4680BD1C070020F4060020B406002020
:10492000FC060020240200202002002008070020AE
:104930000407002004ED00E080B483B000AF054B15
:104940001B687B607B6818460C37BD465DF8047BAE
:10495000704700BFF806002080B586B000AF002386
:104960007B614F4B1B68002B40F090804D4B1B68C8
:1049700001333B614B4A3B6913603B69002B21D1FA
:10498000494B1B681B68002B0BD04FF0500383F37F
:104990001188BFF36F8FBFF34F8F3B6000BF00BF25
:1049A000FDE7414B1B68FB60404B1B683E4A1360B0
:1049B0003E4AFB6813603E4B1B6801333C4A136060
:1049C00000F0D4FA3B4B1B683A699A4249D3364B04
:1049D0001B681B68002B04D1364B4FF0FF321A6066
:1049E0003FE0314B1B68DB68DB68BB60BB685B6822
:1049F0007B603A697B689A4203D22E4A7B681360D7
:104A00002FE0BB6804331846FEF782FFBB689B6A41
:104A1000002B04D0BB6818331846FEF779FFBB683B
:104A2000DA6A254B1B689A4203D9BB68DB6A224AC3
:104A30001360BB68DA6A13469B0013449B001F4A4D
:104A40001A44BB68043319461046FEF704FFBB68DE
:104A5000DA6A1B4B1B68DB6A9A42B8D301237B617D
:104A6000B5E7174B1B68DA6A144913469B001344D9
:104A70009B000B441B68012B01D901237B61114B67
:104A80001B68002B07D001237B6104E00E4B1B68E1
:104A900001330D4A13607B6918461837BD4680BD47
:104AA0001C070020F8060020AC060020B0060020FD
:104AB0000C07002014070020FC0600202402002020
:104AC00020020020080700200407002080B485B0E1
:104AD00000AF284B1B68002B03D0274B01221A6024
:104AE00042E0254B00221A60244B1B68FB6011E05A
:104AF000FB68002B0BD14FF0500383F31188BFF3F9
:104B00006F8FBFF34F8F7B6000BF00BFFDE7FB6877
:104B1000013BFB601A49FA6813469B0013449B0053
:104B20000B441B68002BE3D0FA6813469B00134428
:104B30009B00134A1344BB60BB685B685A68BB6840
:104B40005A60BB685A68BB6808339A4204D1BB6894
:104B50005B685A68BB685A60BB685B68DB68094A77
:104B60001360064AFB68136000BF1437BD465DF84A
:104B7000047B70471C07002008070020FC0600206B
:104B8000240200202002002080B584B000AF7860AD
:104B900039607B68002B0BD14FF0500383F31188F1
:104BA000BFF36F8FBFF34F8FFB6000BF00BFFDE708
:104BB000074B1B68183319467868FEF770FE012111
:104BC000386800F081FA00BF1037BD4680BD00BFD5
:104BD0002002002080B586B000AFF860B9607A602E
:104BE000FB68002B0BD14FF0500383F31188BFF308
:104BF0006F8FBFF34F8F7B6100BF00BFFDE70A4B94
:104C00001B6818331946F868FEF725FE7B68002BF1
:104C100002D04FF0FF33BB607968B86800F054FAF7
:104C200000BF1837BD4680BD2002002080B586B089
:104C300000AF78607B68DB68DB683B613B69002B19
:104C40000BD14FF0500383F31188BFF36F8FBFF385
:104C50004F8FFB6000BF00BFFDE73B69183318466C
:104C6000FEF756FE1D4B1B68002B1DD13B6904331C
:104C70001846FEF74DFE3B69DA6A194B1B689A42EB
:104C800003D93B69DB6A164A13603B69DA6A13464B
:104C90009B0013449B00134A1A443B690433194692
:104CA0001046FEF7D8FD05E03B69183319460E485B
:104CB000FEF7D1FD3B69DA6A0C4B1B68DB6A9A424E
:104CC00005D901237B610A4B01221A6001E0002310
:104CD0007B617B6918461837BD4680BD1C070020E4
:104CE000FC06002024020020B40600202002002040
:104CF0000807002080B483B000AF7860064B1A68C4
:104D00007B681A60054B1A687B685A6000BF0C37D5
:104D1000BD465DF8047B70470C070020F8060020B4
:104D200080B588B000AF786039607B68002B0BD10C
:104D30004FF0500383F31188BFF36F8FBFF34F8F92
:104D40003B6100BF00BFFDE73B68002B0BD14FF07C
:104D5000500383F31188BFF36F8FBFF34F8FFB6056
:104D600000BF00BFFDE701F0EFF91D4B1B68BB6101
:104D70007B685B68BA69D31A7B613B681B68B3F1D7
:104D8000FF3F02D10023FB6123E07B681A68154BCB
:104D90001B689A4207D07B685B68BA699A4202D363
:104DA0000123FB6115E03B681B687A699A420BD2CC
:104DB0003B681A687B69D21A3B681A607868FFF70B
:104DC00099FF0023FB6104E03B6800221A60012385
:104DD000FB6101F0EBF9FB6918462037BD4680BD49
:104DE000F80600200C07002080B400AF034B01221E
:104DF0001A6000BFBD465DF8047B704708070020BD
:104E000080B582B000AF786000F052F8064B1B68A6
:104E1000012BF9D9054B4FF080521A60BFF34F8F29
:104E2000BFF36F8FF0E700BF2402002004ED00E025
:104E300080B582B000AF00237B600CE07A68134637
:104E40009B0013449B00124A13441846FEF7D6FCFD
:104E50007B6801337B607B68372BEFD90D48FEF709
:104E6000CDFC0D48FEF7CAFC0C48FEF7C7FC0C4809
:104E7000FEF7C4FC0B48FEF7C1FC0B4B054A1A6059
:104E80000A4B054A1A6000BF0837BD4680BD00BF07
:104E9000240200208406002098060020B40600208A
:104EA000C8060020E0060020AC060020B006002066
:104EB00080B582B000AF19E001F046F9104BDB6815
:104EC000DB687B607B6804331846FEF721FD0D4BE1
:104ED0001B68013B0B4A13600B4B1B68013B0A4AE2
:104EE000136001F063F9786800F010F8064B1B6856
:104EF000002BE1D100BF00BF0837BD4680BD00BF19
:104F0000C8060020F4060020DC06002080B584B02E
:104F100000AF78607B6893F85930002B08D17B682C
:104F20001B6B184600F0BCFE786800F0B9FE19E073
:104F30007B6893F85930012B03D1786800F0B0FEFC
:104F400010E07B6893F85930022B0BD04FF05003E0
:104F500083F31188BFF36F8FBFF34F8FFB6000BFE8
:104F600000BFFDE700BF1037BD4680BD80B483B0F1
:104F700000AF0C4B1B681B68002B04D10A4B4FF091
:104F8000FF321A6008E0074B1B68DB68DB687B6058
:104F90007B685B68044A136000BF0C37BD465DF850
:104FA000047B7047AC0600201407002080B483B057
:104FB00000AF0B4B1B68002B02D101237B6008E084
:104FC000084B1B68002B02D102237B6001E0002309
:104FD0007B607B6818460C37BD465DF8047B7047E4
:104FE000000700201C07002080B586B000AF786065
:104FF0007B683B6100237B617B68002B58D02F4B83
:105000001B683A699A420BD04FF0500383F3118822
:10501000BFF36F8FBFF34F8FFB6000BF00BFFDE793
:105020003B691B6D002B0BD14FF0500383F31188AC
:10503000BFF36F8FBFF34F8FBB6000BF00BFFDE7B3
:105040003B691B6D5A1E3B691A653B69DA6A3B690D
:10505000DB6C9A422CD03B691B6D002B28D13B693D
:1050600004331846FEF754FC3B69DA6C3B69DA629C
:105070003B69DB6AC3F138023B699A613B69DA6AD2
:105080000F4B1B689A4203D93B69DB6A0C4A1360D9
:105090003B69DA6A13469B0013449B00094A1A4491
:1050A0003B69043319461046FEF7D5FB01237B61AB
:1050B0007B6918461837BD4680BD00BF200200201E
:1050C000FC0600202402002080B584B000AF786088
:1050D0003960214B1B68FB60204B1B68043318466A
:1050E000FEF716FC7B68B3F1FF3F0AD13B68002B4B
:1050F00007D01A4B1B68043319461948FEF7ABFB5F
:1051000026E0FA687B681344BB60144B1B68BA68DE
:105110005A60BA68FB689A4209D2124B1A680F4B60
:105120001B68043319461046FEF7B9FB10E00E4B1E
:105130001A680A4B1B68043319461046FEF7AFFB8A
:105140000A4B1B68BA689A4202D2084ABB681360CD
:1051500000BF1037BD4680BDF806002020020020A9
:10516000E0060020B0060020AC0600201407002056
:1051700080B58AB004AF00237B6100F013FB1D4BA8
:105180001B68002B21D00023FB600023BB603A1D6D
:1051900007F1080107F10C03184600F099FC796843
:1051A000BB68FA68029201930223009300230A4627
:1051B00011491248FFF7D0F80346114A1360104B0B
:1051C0001B68002B01D001237B617B69002B0BD175
:1051D0004FF0500383F31188BFF36F8FBFF34F8FEE
:1051E0003B6100BF00BFFDE77B6918461837BD462D
:1051F00080BD00BF50070020B86600083D5300087E
:105200005407002080B58AB000AFF860B9607A60BA
:105210003B6000237B62FB68002B0BD14FF05003F7
:1052200083F31188BFF36F8FBFF34F8F3B6200BFD3
:1052300000BFFDE7194B1B68002B2AD0BB683B6100
:105240007B687B61FB68BB61BB68052B18DCFFF7E3
:10525000ADFE0346022B09D1104B186807F110016F
:1052600000233A6BFEF788FC786212E00B4B18685B
:1052700007F1100100230022FEF77EFC786208E0AF
:10528000064B186807F1100100233A68FEF776FD17
:1052900078627B6A18462837BD4680BD50070020DB
:1052A00080B588B002AF78603960234B1B68DB683B
:1052B000DB687B617B6904331846FEF729FB7B6959
:1052C00093F8283003F00403002B23D07B699A69FC
:1052D0007B68D1187B683A68786900F0D5F8034696
:1052E000002B20D00023009300237A6800217869E6
:1052F000FFF788FF38613B69002B14D14FF0500352
:1053000083F31188BFF36F8FBFF34F8FFB6000BF34
:1053100000BFFDE77B6993F8283023F00103DAB280
:105320007B6983F828207B691B6A7869984700BFEE
:105330001837BD4680BD00BF4807002080B584B047
:1053400000AF786007F10803184600F059F8F860DC
:10535000BB681946F86800F005F800F0D7F800BF00
:10536000F0E7000080B584B000AF78603960FFF7E7
:1053700037FA07F10803184600F066F8F860BB68D2
:10538000002B30D13B68002B0AD17A68FB689A4227
:1053900006D8FFF733FAF9687868FFF781FF24E051
:1053A0003B68002B08D0134B1B681B68002B01D1F6
:1053B000012300E000233B600F4B18687A68FB680C
:1053C000D31A3A681946FEF793FFFFF717FA034618
:1053D000002B0AD1094B4FF080521A60BFF34F8F58
:1053E000BFF36F8F01E0FFF709FA00BF1037BD462A
:1053F00080BD00BF4C0700205007002004ED00E0F6
:1054000080B485B000AF78600E4B1B681B68002B22
:1054100001D1012200E000227B681A607B681B68D2
:10542000002B05D1074B1B68DB681B68FB6001E0A4
:105430000023FB60FB6818461437BD465DF8047B0B
:10544000704700BF4807002080B584B000AF786087
:10545000FFF772FAF8600B4B1B68FA689A4205D2A4
:1054600000F03AF97B6801221A6002E07B680022B2
:105470001A60044AFB681360FB6818461037BD4683
:1054800080BD00BF5807002080B586B000AFF8602F
:10549000B9607A603B6000237B61FB68BA685A6040
:1054A000FB68FA681A61BA687B689A4212D87A680F
:1054B0003B68D21AFB689B699A4202D301237B6145
:1054C0001BE0104B1A68FB68043319461046FEF7C0
:1054D000E6F912E07A683B689A4206D2BA683B68FD
:1054E0009A4202D301237B6107E0074B1A68FB68ED
:1054F000043319461046FEF7D2F97B69184618376F
:10550000BD4680BD4C0700204807002080B58EB006
:1055100002AFCEE07B68002B19DA3B1D0433FB623F
:10552000FB6A002B0BD14FF0500383F31188BFF3BC
:105530006F8FBFF34F8FFB6100BF00BFFDE7FB6ABA
:105540001B68FA6A5068FA6A9268114698477B6845
:10555000002BC0F2AE80FB68BB62BB6A5B69002BAC
:1055600004D0BB6A04331846FEF7D2F93B4618460E
:10557000FFF76AFF78627B68092B00F2978001A22F
:1055800052F823F0AD550008AD550008AD550008A0
:10559000235600083756000883560008AD5500080A
:1055A000AD5500082356000837560008BB6A93F82B
:1055B000283043F00103DAB2BB6A83F82820BA68C6
:1055C000BB6A9B69D118BB687A6AB86AFFF75CFF4F
:1055D0000346002B6CD0BB6A1B6AB86A9847BB6A4B
:1055E00093F8283003F00403002B61D0BA68BB6A3B
:1055F0009B691A440023009300230021B86AFFF737
:1056000001FE38623B6A002B52D14FF0500383F306
:105610001188BFF36F8FBFF34F8FBB6100BF00BF17
:10562000FDE7BB6A93F8283023F00103DAB2BB6AC6
:1056300083F828203DE0BB6A93F8283043F001034B
:10564000DAB2BB6A83F82820BA68BB6A9A61BB6A7F
:105650009B69002B0BD14FF0500383F31188BFF3EC
:105660006F8FBFF34F8F7B6100BF00BFFDE7BB6A49
:105670009A697B6AD1187B6A7A6AB86AFFF704FF75
:1056800017E0BB6A93F8283003F00203002B03D124
:10569000B86A00F005FB0CE0BB6A93F8283023F0F1
:1056A0000103DAB2BB6A83F8282002E000BF00E001
:1056B00000BF084B1B68391D00221846FEF7FCFB93
:1056C0000346002B7FF426AF00BF00BF3037BD4636
:1056D00080BD00BF5007002080B588B002AF49E010
:1056E0002E4B1B68DB681B683B612C4B1B68DB681F
:1056F000DB68FB60FB6804331846FEF709F9FB68BA
:105700001B6AF8689847FB6893F8283003F0040395
:10571000002B2FD0FB689B693A691344BB60BA68C1
:105720003B699A420ED9FB68BA685A60FB68FA680E
:105730001A611A4B1A68FB68043319461046FEF7C3
:10574000AEF817E00023009300233A690021F868BF
:10575000FFF758FD78607B68002B0BD14FF05003AA
:1057600083F31188BFF36F8FBFF34F8F3B6000BF90
:1057700000BFFDE7094B1B681B68002BB0D1074B2E
:105780001B687B61064B1B68044A1360044A7B69F3
:10579000136000BF1837BD4680BD00BF480700201A
:1057A0004C07002080B582B002AF00F0CDFC154B55
:1057B0001B68002B20D11448FEF720F81348FEF791
:1057C0001DF8134B104A1A60124B104A1A6000233E
:1057D0000093114B114A10210A20FEF72DF90346C0
:1057E000084A1360074B1B68002B05D0054B1B684C
:1057F0000B491846FEF752FD00F0D8FC00BFBD462D
:1058000080BD00BF50070020200700203407002083
:10581000480700204C070020FC0700205C07002000
:10582000C066000880B483B000AF03463960FB71E6
:1058300097F90730002B0ADB3B68DAB20C4997F97D
:1058400007301201D2B20B4483F800230AE03B6810
:10585000DAB20849FB7903F00F03043B1201D2B21C
:105860000B441A7600BF0C37BD465DF8047B7047C9
:1058700000E100E000ED00E080B500AF054B1B68E3
:10588000FFF794FB0346012B01D000F0EDFC00BFB5
:1058900080BD00BF10E000E080B500AF00216FF0D8
:1058A0000400FFF7BFFF00BF80BD000080B483B0DD
:1058B00000AFEFF305833B603B68002B03D06FF034
:1058C00005037B600CE00A4B1B68002B05D1084BDD
:1058D00001221A6000237B6002E04FF0FF337B60FF
:1058E0007B6818460C37BD465DF8047B704700BFE7
:1058F0004C08002080B582B000AFEFF305833B6019
:105900003B68002B03D06FF005037B6010E00B4B6E
:105910001B68012B09D1FFF7BFFF084B02221A6059
:10592000FEF7F6FE00237B6002E04FF0FF337B6062
:105930007B6818460837BD4680BD00BF4C08002074
:1059400080B58EB004AFF860B9607A6000233B6127
:10595000EFF305837B617B69002B7ED1FB68002B15
:105960007BD080233B621823FB6100237B624FF0D6
:10597000FF33BB617B68002B45D07B681B68002B25
:1059800002D07B681B687B627B689B69002B02D01E
:105990007B689B69FB61FB69002B08D0FB69382B96
:1059A00005D87B685B6803F00103002B01D000235E
:1059B00054E07B685B69002B03D07B685B699B08C4
:1059C0003B627B689B68002B0ED07B68DB685B2B9F
:1059D0000AD97B681B69002B06D07B685B69002BAA
:1059E00002D00123BB6110E07B689B68002B0CD1C7
:1059F0007B68DB68002B08D17B681B69002B04D116
:105A00000023BB6101E00023BB61BB69012B10D106
:105A10007B681B697A68926802920193FB69009324
:105A2000BB683A6A796AF868FEF796FC03463B6100
:105A300013E0BB69002B10D13B6A9AB207F1100347
:105A40000193FB690093BB68796AF868FEF7E4FC90
:105A50000346012B01D000233B613B6918462837E0
:105A6000BD4680BD80B584B000AF7860EFF305839C
:105A7000BB60BB68002B03D06FF00503FB6007E041
:105A80000023FB607B68002B02D07868FEF70AFEDB
:105A9000FB6818461037BD4680BD000080B485B055
:105AA00000AFF860B9607A60FB68074A1A60BB68AB
:105AB000064A1A607B6880221A6000BF1437BD4610
:105AC0005DF8047B704700BF50080020AC08002040
:105AD00080B485B000AFF860B9607A60FB68074AAF
