:020000040800F2
:10000000000002203D4200083507000837070008BD
:10001000390700083B0700083D0700080000000002
:10002000000000000000000000000000713F000818
:100030003F0700080000000011400008033B0008D3
:100040008D4200088D4200088D4200088D42000854
:100050008D4200088D4200088D4200088D42000844
:100060008D4200088D4200088D4200088D42000834
:100070008D4200088D4200088D4200088D42000824
:100080008D4200088D4200088D4200088D42000814
:100090008D4200088D4200088D4200088D42000804
:1000A0008D4200088D4200088D4200088D420008F4
:1000B0008D4200088D4200088D4200088D420008E4
:1000C0008D4200088D4200088D420008410700085B
:1000D0008D4200088D4200088D4200088D420008C4
:1000E0008D4200088D4200088D4200088D420008B4
:1000F0008D4200088D4200088D4200088D420008A4
:100100008D4200088D4200088D4200088D42000893
:100110008D4200088D4200088D42000851070008FA
:10012000610700088D4200088D4200087107000831
:100130008D4200088D4200088D4200088D42000863
:100140008D4200088D4200088D4200088D42000853
:100150008D4200088D4200088D4200088D42000843
:100160008D4200088D4200088D4200088D42000833
:100170008D4200088D4200088D42000800000000FA
:080180008D4200088D420008C9
:10019000830730B547D0541E002A3ED0CAB203466A
:1001A00001E0013C39D303F8012B9D07F9D1032C61
:1001B0002CD9CDB205EB05250F2C05EB054535D91E
:1001C000A4F1100222F00F0C03F1100EE6444FEAE6
:1001D000121C1A46156055609560D5601032724544
:1001E000F8D10CF1010214F00C0F03EB021204F031
:1001F0000F0C13D0ACF1040323F0030304331344B6
:1002000042F8045B9A42FBD10CF003042CB1C9B252
:100210001C4403F8011B9C42FBD130BD64461346CD
:10022000002CF4D1F9E703461446C0E71A46A44669
:10023000E0E700BF70B50F4B0F4DAB42A3EB0506D7
:1002400007D0B610002455F8043B01349847A64265
:10025000F9D804F06DF9094D094B5E1BAB424FEA2A
:10026000A60606D0002455F8043B01349847A64260
:10027000F9D870BDE8450008E8450008E8450008E1
:10028000EC450008844641EA000313F003036DD1F6
:10029000403A41D351F8043B40F8043B51F8043B49
:1002A00040F8043B51F8043B40F8043B51F8043B50
:1002B00040F8043B51F8043B40F8043B51F8043B40
:1002C00040F8043B51F8043B40F8043B51F8043B30
:1002D00040F8043B51F8043B40F8043B51F8043B20
:1002E00040F8043B51F8043B40F8043B51F8043B10
:1002F00040F8043B51F8043B40F8043B51F8043B00
:1003000040F8043B51F8043B40F8043B51F8043BEF
:1003100040F8043B403ABDD2303211D351F8043B8F
:1003200040F8043B51F8043B40F8043B51F8043BCF
:1003300040F8043B51F8043B40F8043B103AEDD23E
:100340000C3205D351F8043B40F8043B043AF9D28F
:10035000043208D0D2071CBF11F8013B00F8013B62
:1003600001D30B8803806046704700BF082A13D36F
:100370008B078DD010F003038AD0C3F10403D21A87
:10038000DB071CBF11F8013B00F8013B80D331F8BB
:10039000023B20F8023B7BE7043AD9D3013A11F83B
:1003A000013B00F8013BF9D20B7803704B784370A6
:1003B0008B7883706046704753B94AB9002908BFEB
:1003C00000281CBF4FF0FF314FF0FF3000F00CB899
:1003D000ADF1080C6DE904CE03F059FFDDF804E03F
:1003E000DDE9022304B07047704700BF10B5054C2B
:1003F000237833B9044B13B10448AFF300800123D1
:10040000237010BD180000200000000030450008D7
:1004100008B5034B1BB103490348AFF3008008BD87
:10042000000000001C0000203045000808B50268EC
:10043000034B9A4200D008BD01F0D8FCFBE700BF97
:100440000014004072B6FEE700B595B030220021DE
:1004500008A8FFF79DFE00230393049305930693DA
:1004600007930193204A116C41F080511164126C82
:1004700002F080520192019A02931C4B1A6842F4D6
:1004800080421A601B6803F480430293029B01239D
:1004900008934FF48033099302230E934FF48002A4
:1004A0000F9206221092A822119212930423139302
:1004B00008A800F0D1FD98B90F23039302230493F9
:1004C000002305934FF4A05306934FF480530793F2
:1004D000052103A801F010F820B915B05DF804FB60
:1004E000FFF7B0FFFFF7AEFF00380240007000409A
:1004F00008B501F061FCFFF7A7FF00F013F801F069
:10050000B1FF00F05DF803F009FB01F0DBFF03F041
:1005100017FB01F08FFE012001F07AFC01F036FF9D
:10052000F7E70000F0B589B000220392049205922B
:100530000692079200921F4B196B41F0020119635A
:10054000196B01F00201009100990192196B41F0C1
:1005500001011963196B01F00101019101990292E6
:100560001A6B42F080021A631B6B03F08003029344
:10057000029B114F01221021384601F097F90F4DCF
:1005800001221146284601F091F91023039301241A
:10059000049405940226069603A9384601F090F8C3
:1005A000039404940594069603A9284601F088F85C
:1005B00009B0F0BD003802400000024000040240D3
:1005C00008B50F480F4B03604FF48273436000235C
:1005D0008360C36002220261012242614FF4007213
:1005E00082611822C2610362436283620A23C3628A
:1005F00000F0D2F900B908BDFFF724FFFBE700BF08
:10060000F4000020003001402DE9F04188B00023C3
:100610000393049305930693079302683E4B9A4213
:1006200002D008B0BDE8F08104460025009503F52E
:1006300084335A6C42F480525A645A6C02F48052E9
:100640000092009A01951A6B42F002021A631A6B2B
:1006500002F002020192019A02951A6B42F0010225
:100660001A631B6B03F001030293029B182303938D
:100670004FF00208CDF8108003270697052607964D
:1006800003A9264801F01CF880230393CDF81080BD
:1006900005950697079603A9214801F011F821480E
:1006A000214B03604FF0C06343608560C5604FF429
:1006B0008063036145618561C5610562456201F042
:1006C00077F918BB174BE3649C631848184B036019
:1006D0004FF0C0634360402383600023C3604FF446
:1006E0008062026143618361C3610362436201F01E
:1006F0005FF970B90D4BA3649C6300220521232090
:1007000001F046FB232001F053FB8AE7FFF79AFE36
:10071000D8E7FFF797FEEDE7003001400004024004
:1007200000000240940000201064024034000020C9
:1007300058640240FEE7FEE7FEE7FEE7FEE770478B
:1007400008B5024800F0EAFB08BD00BFF400002035
:1007500008B5024801F0BAFB08BD00BF84010020C3
:1007600008B5024801F0D2F908BD00BF940000208E
:1007700008B5024801F0CAF908BD00BF34000020E6
:1007800000B583B0002200920D4B596C41F48041BA
:100790005964596C01F48041009100990192196CDF
:1007A00041F0805119641B6C03F080530193019B4D
:1007B0000F216FF0010001F0EBFA03B05DF804FBCC
:1007C000003802402DE9F04782B0054688461746BA
:1007D0001E4601F017FB0A9B1B1A03EB060901F0EA
:1007E00011FB8246284B1B68C3F3CB3309FB03F391
:1007F00001932B689C6838EA04040CBF0123002392
:10080000BB423DD0B6F1FF3FF3D001F0FBFAA0EBC5
:100810000A00484507D2019A02B14A46019B013BB2
:1008200001939146E5E72A68536823F0E00353609B
:100830006B68B3F5827F0BD0AB6AB3F5005F14D061
:10084000012385F85130002385F85030032018E04B
:10085000AB68B3F5004F02D0B3F5806FECD12A68D6
:10086000136823F040031360E6E72A68136823F453
:10087000005313602A68136843F400531360DFE7E2
:10088000002002B0BDE8F0870800002070B584B0F9
:1008900004460D46164600920B4601220221FFF740
:1008A00091FFD0B9174B1B68174AA2FB03235B0DBE
:1008B0004FF47A7202FB03F303936368B3F5827F0C
:1008C00011D0039B3BB1039B013B039323689B68BF
:1008D00013F0800FF5D104B070BD636D43F02003B9
:1008E00063650320F7E700962B460022802120460F
:1008F000FFF768FF0028EED0636D43F020036365C7
:100900000320E8E708000020819F5E1610B582B042
:1009100004460B464168B1F5827F14D06168B1F599
:10092000827F2AD1A168B1F5806F19D00092002290
:1009300080212046FFF746FF30B3636D43F020036C
:100940006365032020E08168B1F5004F02D0B1F566
:10095000806FE3D12068016821F040010160DDE78C
:100960000092002201212046FFF72CFF60B1636D49
:1009700043F020036365032006E00092002201217A
:100980002046FFF71FFF08B902B010BD636D43F0AA
:10099000200363650320F7E700285AD010B504460A
:1009A000436A33B94368B3F5827F05D00023C3613E
:1009B00002E00023036143610023A36294F85130F5
:1009C000002B40D0022384F851302268136823F0B2
:1009D00040031360636803F48273A26802F4044264
:1009E0001343E26802F400621343226902F0020238
:1009F0001343626902F001021343A26902F4007218
:100A00001343E26902F038021343226A02F08002C3
:100A10001343A26A02F40052216813430B60638BF4
:100A200003F00403626A02F01002216813434B6072
:100A30002268D36923F40063D36100206065012339
:100A400084F8513010BD84F850302046FFF7DCFDAB
:100A5000B8E701207047000038B590F85150EDB26A
:100A6000012D5DD1044600295BD0002A59D090F8B1
:100A70005030012B57D0012380F85030032380F8E9
:100A800051300023436501638286C28683634364D9
:100A900003648387C3878368B3F5004F2DD0A36CAD
:100AA000224A1A64A36C224ADA63A36C214ADA64EC
:100AB000A36C00221A652268E38E9BB20C32216B74
:100AC000A06C00F0DBFF014610BB23681A6812F02F
:100AD000400F03D11A6842F040021A60002384F8E4
:100AE00050302268536843F02003536022685368F3
:100AF00043F0020353600D4613E00268136823F0CD
:100B0000400313600268136843F480431360C6E730
:100B1000636D43F010036365002384F8503000E0F8
:100B20000225284638BD0225FBE700BF9D0D0008C1
:100B3000E30D0008C10D000838B5044690F85100D7
:100B4000C0B2656801280AD0B5F5827F40F08B807D
:100B5000A568002D40F08980042840F08880002995
:100B600000F08780002A00F08680002B00F085804E
:100B700094F85000012800F08280012084F8500091
:100B800094F85100C0B2042802D0052084F8510026
:100B9000002060652163A386E386A263A387E387C1
:100BA0002064606494F85130DBB2042B1DD0E36CF8
:100BB000344A1A64E36C344ADA63E36C334ADA6425
:100BC000E36C00221A652168E38F9BB2A26B0C31A3
:100BD000E06C00F053FF78B1636D43F01003636580
:100BE000002384F8503001203EE0E36C284A1A6468
:100BF000E36C284ADA63E0E72268536843F00103B4
:100C00005360A26C00231364A26CD363A26CD36400
:100C1000A26C13652268E38E9BB20C32216BA06C30
:100C200000F02CFFB0B923681A6812F0400F03D10E
:100C30001A6842F040021A60002384F8503022689B
:100C4000536843F0200353602268536843F0020363
:100C5000536009E0636D43F010036365002384F87B
:100C60005030012000E0022038BD0220FCE70220C5
:100C7000FAE70120F8E70120F6E70120F4E7022077
:100C8000F2E700BFB50D0008C10E0008C10D000855
:100C9000A90D0008530E000838B590F85150EDB278
:100CA000012D6BD10446806818B96368B3F5827F63
:100CB00047D0002963D0002A61D094F85030012B2E
:100CC0005FD0012384F85030042384F8513000238E
:100CD0006365A163A287E28723646364A386E386D6
:100CE000B0F5004F37D0E36C274A1A64E36C274A0B
:100CF000DA63E36C264ADA64E36C00221A65216841
:100D0000E38F9BB2A26B0C31E06C00F0B7FE0146A2
:100D100060BB23681A6812F0400F03D11A6842F0D2
:100D200040021A60002384F850302268536843F070
:100D3000200353602268536843F0010353600D465B
:100D40001DE0042384F8513013460A462046FFF77D
:100D5000F3FE054613E02268136823F04003136096
:100D60002268136823F480431360BCE7636D43F08B
:100D700010036365002384F8503000E00225284604
:100D800038BD0225FBE700BFA90D0008530E00087F
:100D9000C10D0008704770477047704708B5806BF9
:100DA000FFF7FBFF08BD704708B5806BFFF7FBFF3F
:100DB00008BD704708B5806BFFF7FBFF08BD7047A3
:100DC00008B5806B0268536823F003035360436DDA
:100DD00043F010034365012380F85130FFF7EFFF24
:100DE00008BD30B583B00546846B01F00BF82B6865
:100DF0001B6813F4807F23D1024621684B6823F0DF
:100E000020034B6021684B6823F002034B60642190
:100E10002046FFF73BFD18B1636D43F02003636587
:100E2000A36833B901932368DA6801929B68019340
:100E3000019B0023E386012384F85130636D23B9BD
:100E40002046FFF7A7FF03B030BD2046FFF7B7FFEE
:100E5000F9E738B50546846B00F0D4FF2B681B68B2
:100E600013F4807F1ED1024621684B6823F02003D3
:100E70004B60A3681BB96368B3F5827F16D0216805
:100E80004B6823F001034B6064212046FFF73EFDD1
:100E900008B1202363650023E387012384F85130E0
:100EA000636D4BB92046FFF776FF38BD21684B686C
:100EB00023F003034B60E7E72046FFF780FFF4E7EA
:100EC00038B50546846B00F09DFF2B681B6813F452
:100ED000807F1BD1024621684B6823F020034B60C2
:100EE00064212046FFF7D2FC18B1636D43F0200364
:100EF00063652268536823F0030353600023E3868D
:100F0000E387012384F85130636D1BB92046FFF756
:100F100043FF38BD2046FFF752FFFAE730B585B0F2
:100F20000446026851689368C3F3801013F0400FC1
:100F300005D113F0010F02D011F0400F69D113F069
:100F4000020F02D011F0800F67D1C3F3401513F0E8
:100F5000200F03D110B913F4807F61D011F0200F5E
:100F60005ED078B194F85100C0B203285AD0606DB9
:100F700040F00400606500200090D0680090906808
:100F80000090009865B1606D40F001006065002040
:100F9000029090680290106820F040001060029A61
:100FA00013F4807F09D0636D43F008036365002369
:100FB000039323689B680393039B636D002B2FD0DF
:100FC0002268536823F0E0035360012384F8513012
:100FD00011F0030F2ED02268536823F003035360EF
:100FE000E36C4BB1154A1A65E06C00F07CFD18B15A
:100FF000636D43F040036365A36C8BB10F4A1A65C0
:10100000A06C00F070FD58B1636D43F04003636560
:1010100006E0236C2046984702E0636C2046984720
:1010200005B030BD00230193D36801939368019309
:10103000019BF5E72046FFF7C2FEF1E741100008EB
:1010400008B5806B0023C387C386FFF7B8FE08BDD1
:1010500090F8510070470000002800F0E08170B562
:1010600082B00446036813F0010F3BD09F4B9B688E
:1010700003F00C03042B2CD09C4B9B6803F00C0357
:10108000082B21D06368B3F5803F4FD0B3F5A02F74
:1010900052D0964B1A6822F480321A601A6822F4F1
:1010A00080221A606368002B50D000F0ABFE05462A
:1010B0008E4B1B6813F4003F14D100F0A3FE401BBD
:1010C0006428F5D90320B1E1884B5B6813F4800FE5
:1010D000D8D0864B1B6813F4003F03D06368002B05
:1010E00000F09F81236813F0020F54D07F4B9B6860
:1010F00013F00C0F3ED07D4B9B6803F00C03082BC4
:1011000033D0E368002B68D0794B01221A6000F0DD
:1011100079FE0546754B1B6813F0020F54D100F0A1
:1011200071FE401B0228F5D903207FE16F4A136846
:1011300043F480331360B5E76C4B1A6842F48022A5
:101140001A601A6842F480321A60ABE700F05AFE67
:101150000546664B1B6813F4003FC3D000F052FEF7
:10116000401B6428F5D9032060E1604B5B6813F4F1
:10117000800FC6D15D4B1B6813F0020F03D0E368EC
:10118000012B40F05081594A136823F0F80321697C
:1011900043EAC1031360236813F0080F42D0636968
:1011A0006BB3534B0122C3F8802E00F02BFE054693
:1011B0004E4B5B6F13F0020F34D100F023FE401B47
:1011C0000228F5D9032031E1484A136823F0F803D7
:1011D000216943EAC1031360DDE7454B00221A6031
:1011E00000F010FE0546414B1B6813F0020FD2D0F1
:1011F00000F008FE401B0228F5D9032016E13C4B05
:101200000022C3F8802E00F0FDFD0546374B5B6FD2
:1012100013F0020F06D000F0F5FD401B0228F5D9AF
:10122000032003E1236813F0040F77D02F4B1B6CCE
:1012300013F0805F33D1002301932C4B1A6C42F0E2
:1012400080521A641B6C03F080530193019B0125AB
:10125000284B1B6813F4807F23D0A368012B34D064
:10126000052B38D0214B1A6F22F001021A671A6F32
:1012700022F004021A67A368002B3DD000F0C2FDE3
:1012800006461A4B1B6F13F0020F46D100F0BAFD51
:10129000801B41F288339842F3D90320C6E0002531
:1012A000D6E7144A136843F48073136000F0AAFD74
:1012B0000646104B1B6813F4807FCED100F0A2FDD0
:1012C000801B0228F5D90320B0E0084A136F43F0D1
:1012D00001031367CFE7054B1A6F42F004021A6748
:1012E0001A6F42F001021A67C5E700BF00380240DA
:1012F000000047420070004000F084FD0646524B5B
:101300001B6F13F0020F08D000F07CFD801B41F230
:1013100088339842F3D9032088E0EDB9A369002B04
:1013200000F08380484A926802F00C02082A51D0EB
:10133000022B17D0454B00221A6600F063FD0446CD
:10134000414B1B6813F0007F42D000F05BFD001B97
:101350000228F5D9032069E03B4A136C23F080533F
:101360001364DBE7394B00221A6600F04BFD05469B
:10137000354B1B6813F0007F06D000F043FD401B87
:101380000228F5D9032051E0E369226A1343626A17
:1013900043EA8213A26A5208013A43EA0243E26A2C
:1013A00043EA0263284A5360284B01221A6600F080
:1013B00029FD0446244B1B6813F0007F06D100F082
:1013C00021FD001B0228F5D903202FE000202DE08D
:1013D00000202BE0012B2BD01B4B5B6803F480011A
:1013E000E269914226D103F03F02216A8A4223D169
:1013F000616A47F6C0721A40B2EB811F1ED103F436
:101400004031A26A5208013AB1EB024F18D103F001
:101410007063E26AB3EB026F14D1002006E0012092
:101420007047012002E0012000E0002002B070BD02
:101430000120FBE70120F9E70120F7E70120F5E7AC
:101440000120F3E70120F1E70038024000004742A5
:1014500008B5264B9B6803F00C03042B41D0082BE6
:1014600041D1224B5A6802F03F025B6813F4800FAF
:1014700012D01E4B5968C1F388111D480023A1FBEF
:101480000001FEF799FF194B5B68C3F30143013379
:101490005B00B0FBF3F008BD144B5868C0F3881034
:1014A0004FEA401CBCEB000C6EEB0E0E4FEA8E13A5
:1014B00043EA9C634FEA8C11B1EB0C0163EB0E0322
:1014C000DB0043EA5173C90011EB000C43F1000348
:1014D000990200234FEA8C2041EA9C51FEF76CFFF1
:1014E000D1E70348D7E70348D5E700BF00380240FB
:1014F000001BB7000024F400002800F09B8070B5AA
:101500000D4604464F4B1B6803F007038B4208D27D
:10151000CBB24C4A1370136803F007038B4240F0C0
:101520008B80236813F0020F17D013F0040F04D040
:10153000454A936843F4E0539360236813F0080F1F
:1015400004D0414A936843F4604393603E4A9368F1
:1015500023F0F003A1680B439360236813F0010F9D
:1015600032D06368012B21D09A1E012A25D9364A30
:10157000126812F0020F61D033498A6822F0030228
:1015800013438B6000F03EFC06462F4B9B6803F034
:101590000C036268B3EB820F16D000F033FC801BA3
:1015A00041F288339842F0D9032042E0264A12687B
:1015B00012F4003FE0D101203BE0234A126812F010
:1015C000007FD9D1012034E01E4B1B6803F00703D4
:1015D000AB4207D9EAB21B4B1A701B6803F0070332
:1015E000AB422DD1236813F0040F06D0164A93683E
:1015F00023F4E053E1680B439360236813F0080F72
:1016000007D0114A936823F46043216943EAC10378
:101610009360FFF71DFF0C4B9B68C3F303130B4A4A
:10162000D35CD8400A4B18600A4B186800F066FF7C
:10163000002070BD012070470120FAE70120F8E783
:101640000120F6E7003C02400038024058450008FF
:101650000800002004000020014B1868704700BFFC
:101660000800002008B5FFF7F7FF044B9B68C3F3A1
:101670008223034AD35CD84008BD00BF0038024033
:10168000504500080F2303600B4B9A6802F00302D9
:1016900042609A6802F0F00282609A6802F4E052B6
:1016A000C2609B68DB0803F4E0530361034B1B68D3
:1016B00003F007030B60704700380240003C024013
:1016C00000230F2B00F2E98070B582B065E08568D9
:1016D0004FEA430E032404FA0EF425EA0405CC680D
:1016E00004FA0EF42C438460446824EA02044A6835
:1016F000C2F300129A40224342605CE0DC080834E6
:1017000050F8242003F00705AD004FF00F0E0EFA3D
:1017100005FE22EA0E0E0A69AA4042EA0E0240F8CD
:1017200024205CE0072200E0002202FA0EF22A43A5
:1017300002345A4D45F82420594A94686FEA0C0245
:1017400024EA0C054E6816F4801F01D04CEA04050B
:10175000534CA560E46802EA04054E6816F4001FC5
:1017600001D04CEA04054E4CE560646802EA0405C9
:101770004E6816F4003F01D04CEA0405484C656001
:10178000246822404D6815F4803F01D04CEA0402E1
:10179000434C226001330F2B7DD801229A400C6804
:1017A00004EA020C32EA0404F4D14C6804F00304A5
:1017B000013C012C8BD94A6802F00302032A09D0AC
:1017C000C4685D000322AA4024EA02048A68AA4091
:1017D0002243C2604A6802F00302022A8ED00468E3
:1017E0004FEA430E032202FA0EF224EA02044A6888
:1017F00002F0030202FA0EF2224302604A6812F477
:10180000403FC7D000220192264A546C44F48044E1
:101810005464526C02F480420192019A9C08A51C07
:101820001E4A52F8255003F0030E4FEA8E0E0F2287
:1018300002FA0EF225EA02051B4A90423FF474AF09
:1018400002F5806290421AD002F58062904218D070
:1018500002F58062904216D002F58062904214D068
:1018600002F58062904212D002F58062904210D060
:1018700002F5806290423FF455AF082255E70122FD
:1018800053E7022251E703224FE704224DE70522E6
:101890004BE7062249E702B070BD704700380140AF
:1018A000003C014000380240000002400AB1816162
:1018B000704709048161704730B405682C6824F4CE
:1018C00080242C60046863608368402B05D0036823
:1018D00099600368DA6030BC704703689A600368F7
:1018E000D960F8E710B40368D9B210390A4AA2FBEC
:1018F00001421209094CA25CC2655F2907D96FF346
:10190000090304338365806D5DF8044B70476FF302
:1019100009038365F7E700BFABAAAAAA48450008F8
:10192000836A826992B9012B0AD0022B02D00BB1D3
:1019300000207047C36A13F0807F28D100207047D1
:10194000C36AB3F1C07F24D000207047B2F5005FB6
:1019500009D0022B25D9032B25D1C36A13F0807F30
:1019600023D100207047032B03D8DFE803F01404D1
:10197000140A00207047C36A13F0807F0DD1002045
:101980007047C36AB3F1C07F09D0002070470120BF
:1019900070470120704701207047012070470120E7
:1019A00070470120704700207047012070470000F9
:1019B00070B5044600F026FA002C5BD005460223E1
:1019C00084F83530002384F834302268136823F01B
:1019D0000103136023681A6812F0010F0AD000F0A7
:1019E00011FA431B052BF5D920236365032084F8E6
:1019F000350070BD1A68204911406268A068024332
:101A0000E06802432069024360690243A06902431F
:101A1000E0690243206A02430A43616A04291ED036
:101A20001A602668756925F00705636A1D43042B53
:101A300007D1A36A1D43E36A1BB12046FFF770FF7D
:101A400090B975612046FFF74DFFE26D3F2393404B
:101A5000836000206065012384F83530C9E7E16ABE
:101A6000206B01430A43DBE740236365012084F8D0
:101A70003500BEE70120BCE73F8010F038B50446D2
:101A8000856D90F8340001282BD0012084F83400B3
:101A900094F83500C0B2012804D0002384F8343013
:101AA000022038BD022084F8350000206065204601
:101AB000FFF702FFE26D3F239340AB60226813689B
:101AC00043F016031360236C23B12268136843F0BC
:101AD000080313602268136843F0010313600020B9
:101AE000DFE70220DDE790F83530DBB2022B03D0D0
:101AF0008023436501207047052380F83530026854
:101B0000136823F00103136000207047F0B583B021
:101B1000044600230193724B1D68724BA3FB0535ED
:101B2000AD0A876D3E68C26D08239340334210D0E2
:101B300003681A6812F0040F0BD01A6822F004022E
:101B40001A60C26D08239340BB60436D43F00103EC
:101B50004365E26D01239340334209D02268526904
:101B600012F0800F04D0BB60636D43F00203636525
:101B7000E26D04239340334209D02268126812F0C8
:101B8000020F04D0BB60636D43F004036365E26D34
:101B900010239340334224D02268126812F0080FB9
:101BA0001FD0BB6023681A6812F4802F0DD01B6809
:101BB00013F4002F04D1236C9BB12046984710E00A
:101BC000A36C73B1204698470BE01A6812F4807F2B
:101BD00003D11A6822F008021A60236C0BB1204668
:101BE0009847E26D20239340334255D02268126813
:101BF00012F0100F50D0BB6094F83530DBB2052BDB
:101C00000ED023681A6812F4802F33D01B6813F4A7
:101C1000002F2AD1636C002B3ED0204698473BE032
:101C20002268136823F0160313602268536923F0B7
:101C300080035361236CA3B12268136823F0080367
:101C40001360E26D3F239340BB60012384F835307D
:101C5000002384F83430236D002B3FD02046984772
:101C60003CE0A36C002BE7D1EBE7E36BA3B120468C
:101C7000984711E01A6812F4807F09D11A6822F09F
:101C800010021A60012384F83530002384F83430C0
:101C9000E36B0BB120469847636DFBB1636D13F0A6
:101CA000010F17D0052384F835302268136823F01C
:101CB00001031360019B01330193AB4204D82368F5
:101CC0001B6813F0010FF5D1012384F83530002390
:101CD00084F83430E36C0BB12046984703B0F0BD74
:101CE00008000020B5814E1B002807DB00F01F0212
:101CF000400901239340024A42F82030704700BF58
:101D000000E100E0002808DB0901C9B200F16040F1
:101D100000F5614080F80013704700F00F000901E2
:101D2000C9B2014B1954704714ED00E000B500F042
:101D30000700C0F1070CBCF1040F28BF4FF0040CE2
:101D4000031D062B0FD9C31E4FF0FF3E0EFA0CF0F9
:101D500021EA000199400EFA03FE22EA0E0241EA4E
:101D600002005DF804FB0023EEE70000074AD36899
:101D700023F4E0631B041B0C000200F4E060034347
:101D800043F0BF6343F40033D360704700ED00E0DD
:101D900010B50446054BD868C0F30220FFF7C6FF14
:101DA00001462046FFF7AEFF10BD00BF00ED00E08A
:101DB00008B5FFF799FF08BD08B50B4B1A6842F448
:101DC00000721A601A6842F480621A601A6842F45B
:101DD00080721A600320FFF7C9FF0F2000F08EFB0E
:101DE000FEF7CEFC002008BD003C0240034A11680B
:101DF000034B1B780B441360704700BF4C0100205D
:101E000000000020014B1868704700BF4C01002003
:101E100038B50446FFF7F6FF0546B4F1FF3F02D0A0
:101E2000044B1B781C44FFF7EDFF401BA042FAD384
:101E300038BD00BF000000207047000090F83D3022
:101E4000DBB2012B37D1022380F83D300268D36822
:101E500043F00103D3600368194A934220D0B3F1E1
:101E6000804F1DD0A2F57C42934219D002F58062CA
:101E7000934215D002F58062934211D002F5784268
:101E800093420DD002F57052934209D0A2F59432DC
:101E9000934205D01A6842F001021A600020704790
:101EA0009A6802F00702062A07D01A6842F0010277
:101EB0001A6000207047012070470020704700BF63
:101EC00000000140704770477047704770B5044686
:101ED0000368DE681D6915F0020F10D016F0020FBE
:101EE0000DD06FF002021A610123037703689B692A
:101EF00013F0030F5ED0FFF7E6FF0023237715F002
:101F0000040F12D016F0040F0FD023686FF00402F4
:101F10001A610223237723689B6913F4407F4FD013
:101F20002046FFF7D0FF0023237715F0080F12D0CB
:101F300016F0080F0FD023686FF008021A6104230F
:101F400023772368DB6913F0030F40D02046FFF7A7
:101F5000BAFF0023237715F0100F12D016F0100FE0
:101F60000FD023686FF010021A61082323772368CB
:101F7000DB6913F4407F31D02046FFF7A4FF002334
:101F8000237715F0010F02D016F0010F2DD115F0B7
:101F9000800F02D016F0800F2FD115F0400F02D025
:101FA00016F0400F31D115F0200F02D016F0200F9F
:101FB00033D170BDFFF786FF2046FFF785FF9CE712
:101FC0002046FFF77FFF2046FFF77EFFABE7204666
:101FD000FFF778FF2046FFF777FFBAE72046FFF7C5
:101FE00071FF2046FFF770FFC9E723686FF0010219
:101FF0001A612046FEF71AFAC9E723686FF08002DB
:102000001A61204600F0ABF8C7E723686FF0400282
:102010001A612046FFF759FFC5E723686FF02002D9
:102020001A61204600F09AF8C3E700000368344ABA
:10203000904212D0B0F1804F0FD0A2F57C42904276
:102040000BD002F58062904207D002F58062904288
:1020500003D002F57842904203D123F070034A681E
:102060001343274A90422AD0B0F1804F27D0A2F5DF
:102070007C42904223D002F5806290421FD002F54C
:10208000806290421BD002F57842904217D002F550
:102090007052904213D002F5806290420FD002F548
:1020A000806290420BD0A2F59832904207D002F5A0
:1020B0008062904203D002F58062904203D123F403
:1020C0004073CA68134323F080034A6913430360D3
:1020D0008B68C3620B688362094B984203D003F597
:1020E0008063984201D10B69036301234361036953
:1020F00013F0010F03D0036923F00103036170475C
:102100000000014040B310B5044690F83D30F3B1F3
:10211000022384F83D30214651F8040BFFF786FF77
:10212000012384F8463084F83E3084F83F3084F848
:10213000403084F8413084F8423084F8433084F8E9
:10214000443084F8453084F83D30002010BD80F8DC
:102150003C30FFF771FEDBE70120704770477047A6
:10216000034AD2F8883043F47003C2F888307047CD
:1021700000ED00E010B5002210212B48FFF796FB80
:102180002A497E230B7001222948FEF765FC0120B5
:1021900001F050FD2648FEF75BFF0328FAD02349E3
:1021A000B6230B7001222248FEF756FC012001F0F5
:1021B00041FD1F48FEF74CFF0328FAD0012001F033
:1021C00039FD194C012210212046FFF76FFB002238
:1021D00010212046FFF76AFB14497D230B70012272
:1021E0001348FEF739FC012001F024FD1048FEF7EA
:1021F0002FFF0328FAD00D4904230B7001220C484D
:10220000FEF72AFC012001F015FD0948FEF720FF2A
:102210000328FAD0012001F00DFD0122102102480F
:10222000FFF744FB10BD00BF000002405301002037
:10223000F400002010B5002210213248FFF736FBD1
:10224000314992230B7001223048FEF705FC012032
:1022500001F0F0FC2D48FEF7FBFE0328FAD0012226
:102260002B492A48FEF718FD012001F0E3FC27481E
:10227000FEF7EEFE0428FAD000240FE001222449E4
:102280002248FEF709FD012001F0D4FC214B042B6C
:10229000FCD01F4B1A78204B1A550134052CEDDD6C
:1022A000012210211748FFF701FB1B4A51781378D0
:1022B00043EA01231BB207EE903A184B93ED007AE4
:1022C000F8EEE77A67EE877A1549C1ED007AD078A3
:1022D000937843EA00231BB207EE903AF8EEE77AD0
:1022E00067EE877AC1ED017A5079137943EA0023CA
:1022F0001BB207EE903AF8EEE77A67EE877AC1ED07
:10230000027A10BD0000024053010020F4000020BA
:1023100052010020511000085C0100201000002034
:102320006401002008B5002201211548FFF7BEFA1C
:10233000144914230B7001221348FEF78DFB012072
:1023400001F078FC1048FEF783FE0328FAD00D490F
:10235000B6230B7001220C48FEF77EFB012001F032
:1023600069FC0948FEF774FE0328FAD01E2001F02C
:1023700061FC012211460248FFF798FA08BD00BF30
:102380000004024051010020F400002010B500229A
:1023900001212C48FFF78AFA2B4980230B70012278
:1023A0002A48FEF759FB012001F044FC2748FEF7BC
:1023B0004FFE0328FAD000240FE0012224492348CD
:1023C000FEF76AFC012001F035FC224B042BFCD007
:1023D0001F4B1A78204B1A550134072CEDDD0122D2
:1023E00011461848FFF762FA1B4AD178937843EAFE
:1023F00001231BB207EE903A184B93ED007AF8EEEA
:10240000E77A67EE877A1649C1ED007A5079137939
:1024100043EA00231BB207EE903AF8EEE77A67EE44
:10242000877AC1ED017AD079937943EA00231BB210
:1024300007EE903AF8EEE77A67EE877AC1ED027A16
:1024400010BD00BF0004024051010020F400002034
:102450005001002051100008540100200C00002001
:102460007001002010B582B0002401940D4B1A6B4E
:1024700042F480021A631B6B03F480030193019BF7
:10248000224605213820FFF783FC3820FFF790FC17
:10249000224605213B20FFF77BFC3B20FFF788FC11
:1024A00002B010BD00380240FEE708B5FFF762FE3B
:1024B000FFF738FFFFF7BEFEFFF768FF012001F0CE
:1024C000B9FBF7E708B5074A0021074801F054FBBC
:1024D000064B1860064A0021064801F04DFB064BEA
:1024E000186008BDBC450008A92400088001002030
:1024F00098450008AB2400087C01002030B589B065
:10250000044600230193214B1A6C42F020021A6406
:102510001B6C03F020030193019B02A903A8FFF7A2
:10252000B1F8069BCBB9FFF79DF80346184AA2FB0A
:1025300003239B0C013B1748174A026040F2E73225
:10254000C26043600023036183608361FFF7DAFDAB
:10255000054630B1284609B030BDFFF783F8430087
:10256000E4E70C48FFF76AFC05460028F2D1372063
:10257000FFF71EFC0F2C01D90125EBE700222146B5
:102580003720FFF705FC054B1C60E3E700380240ED
:1025900083DE1B438401002000140040040000205F
:1025A00000F1080343604FF0FF328260C3600361B3
:1025B00000230360704700230361704743684B604A
:1025C0009A688A605160996008610368013303600A
:1025D000704730B40D68B5F1FF3F11D000F108032A
:1025E0001C465B681A68AA42FAD963684B60996016
:1025F0008C606160086103680133036030BC704720
:102600000469F2E70369416882688A604168516041
:102610005A68824206D0002202611A68013A1A60A2
:102620001868704782685A60F5E710B5044601F0F3
:10263000B1FCA26BE36B9A4204D0002401F0CCFC05
:10264000204610BD0124F9E710B5044601F0A2FCB4
:10265000A36B23B9012401F0BFFC204610BD002468
:10266000F9E770B504461546866B026C5AB90368E3
:102670001BB100200136A66370BD806800F0D0FF5A
:102680000023A360F6E76DB94068FDF7FBFD6368C2
:10269000226C13446360A268934219D32368636079
:1026A0002846E7E7C068FDF7EDFDE368226C51427C
:1026B0009B1AE3602268934202D2A3680B44E36052
:1026C000022D01D00020D5E726B1013E0020D1E740
:1026D0002846CFE70020CDE70346026C6AB110B56B
:1026E0000846D9681144D9609C68A14201D3196891
:1026F000D960D968FDF7C6FD10BD704738B50546ED
:1027000001F048FC95F8454064B201E0013C64B238
:10271000002C0ADD6B6A43B105F1240000F0D6FEFF
:102720000028F3D000F066FFF0E7FF2385F845307E
:1027300001F052FC01F02EFC95F8444064B201E037
:10274000013C64B2002C0ADD2B6943B105F1100095
:1027500000F0BCFE0028F3D000F04CFFF0E7FF23B0
:1027600085F8443001F038FC38BD38B5E0B10D468D
:10277000044601F00FFC2368E26B216C01FB023080
:10278000A0600020A0636360013A02FB0133E360B4
:10279000FF2384F8443084F84530FDB9236963B9D8
:1027A00001F01AFC012038BD4FF0500383F311886B
:1027B000BFF36F8FBFF34F8FFEE704F1100000F0FF
:1027C00085FE0028ECD04FF0E0234FF08052C3F894
:1027D000042DBFF34F8FBFF36F8FE1E704F11000BB
:1027E000FFF7DEFE04F12400FFF7DAFED8E738B584
:1027F0001D46049C0B4649B92460E0632364012113
:102800002046FFF7B2FF84F84C5038BD2260F4E751
:1028100040B94FF0500383F31188BFF36F8FBFF3BC
:102820004F8FFEE710B584B01C46844653B192B179
:1028300089B94FF0500383F31188BFF36F8FBFF353
:102840004F8FFEE74FF0500383F31188BFF36F8F74
:10285000BFF34F8FFEE76AB150230393039B502BC6
:1028600013D04FF0500383F31188BFF36F8FBFF382
:102870004F8FFEE70029EFD04FF0500383F311880C
:10288000BFF36F8FBFF34F8FFEE7039B012384F8E5
:10289000463000949DF818306046FFF7A8FF2046A8
:1028A00004B010BDF0B585B0019288B10F461D4649
:1028B0000446B1B1022D20D1E36B012B1DD04FF0A6
:1028C000500383F31188BFF36F8FBFF34F8FFEE781
:1028D0004FF0500383F31188BFF36F8FBFF34F8F17
:1028E000FEE7036C002BE5D04FF0500383F3118813
:1028F000BFF36F8FBFF34F8FFEE700F081FE0646F8
:1029000058B9019B002B48D04FF0500383F3118836
:10291000BFF36F8FBFF34F8FFEE700263DE02A46DF
:1029200039462046FFF79DFE636A7BB948B14FF0F8
:10293000E0234FF08052C3F8042DBFF34F8FBFF355
:102940006F8F01F049FB012005B0F0BD04F12400B8
:1029500000F0BCFD0028F4D04FF0E0234FF080528F
:10296000C3F8042DBFF34F8FBFF36F8FE9E701F07A
:1029700033FB0020E8E702A800F0EEFD012619E095
:10298000002384F8443021E0002384F8453023E01C
:102990002046FFF7B3FE00F077FC01F0FBFAA26BD4
:1029A000E36B9A42BBD3022DB9D0019B002BDED042
:1029B000002EE0D001F010FB00F0CCFB01F0EAFAB1
:1029C00094F8442052B2B2F1FF3FD9D094F8452098
:1029D00052B2B2F1FF3FD7D001F0FEFA01A902A82E
:1029E00000F0C6FDD8B92046FFF71FFE0028CFD063
:1029F000019904F1100000F035FD2046FFF77EFE3E
:102A000000F042FC0028C8D14FF0E0234FF0805284
:102A1000C3F8042DBFF34F8FBFF36F8FBDE7204680
:102A2000FFF76CFE00F030FC00208DE72DE9F84345
:102A300090B10F4616461C460546B1B1022C20D176
:102A4000EB6B012B1DD04FF0500383F31188BFF3C4
:102A50006F8FBFF34F8FFEE74FF0500383F3118862
:102A6000BFF36F8FBFF34F8FFEE7036C002BE5D0F2
:102A70004FF0500383F31188BFF36F8FBFF34F8F75
:102A8000FEE701F0ADFBEFF311884FF0500383F345
:102A90001188BFF36F8FBFF34F8FAA6BEB6B9A4216
:102AA00006D3022C04D0002088F31188BDE8F883F7
:102AB00095F845904FFA89F9AB6B2246394628467E
:102AC000FFF7CFFDB9F1FF3F06D009F101035BB27B
:102AD00085F845300120E7E76B6A0BB90120E3E791
:102AE00005F1240000F0F2FC18B126B1012030609D
:102AF000DAE70120D8E70120D6E7F0B585B00192EA
:102B000090B10F460446C1B100F07AFD064600BB05
:102B1000019B002B5ED04FF0500383F31188BFF36D
:102B20006F8FBFF34F8FFEE74FF0500383F3118891
:102B3000BFF36F8FBFF34F8FFEE7036C002BE3D023
:102B40004FF0500383F31188BFF36F8FBFF34F8FA4
:102B5000FEE700263EE039462046FFF7BDFD013D79
:102B6000A563236923B901F037FA012005B0F0BD50
:102B700004F1100000F0AAFC0028F4D04FF0E0238C
:102B80004FF08052C3F8042DBFF34F8FBFF36F8F08
:102B9000E9E701F021FA0020E8E702A800F0DCFCF8
:102BA000012621E0002384F8443029E0002384F842
:102BB00045302BE02046FFF7A1FD00F065FB09E062
:102BC0002046FFF79BFD00F05FFB2046FFF73CFD32
:102BD00000283FD101F0DEF9A56B002DBBD1019B90
:102BE000002BD6D0002ED8D001F0F6F900F0B2FAC2
:102BF00001F0D0F994F844305BB2B3F1FF3FD1D08B
:102C000094F845305BB2B3F1FF3FCFD001F0E4F967
:102C100001A902A800F0ACFC0028D1D12046FFF7A2
:102C200013FD0028C6D0019904F1240000F01AFC1D
:102C30002046FFF763FD00F027FB0028CAD14FF0C4
:102C4000E0234FF08052C3F8042DBFF34F8FBFF342
:102C50006F8FBFE7002089E70023072B0CD8074AB6
:102C600052F833200AB10133F7E7044A42F833102F
:102C700002EBC30250607047704700BFCC010020D8
:102C800070B504460D46164601F084F994F84430B8
:102C90005BB2B3F1FF3F0DD094F845305BB2B3F1B6
:102CA000FF3F0BD001F098F9A36B5BB12046FFF713
:102CB00025FD70BD002384F84430EDE7002384F83F
:102CC0004530EFE73246294604F1240000F0E2FBEC
:102CD000ECE70000084B1B681B6823B9074B4FF05B
:102CE000FF321A607047044B1B68DB68DB685A6868
:102CF000024B1A60704700BF7C02002014020020C3
:102D00002DE9F04780460D4617469946089EDDF8A6
:102D100024A00A9C9200A521206BFDF739FA236BB1
:102D200007F18042013A03EB820727F00707A5B3BA
:102D30004FF0000CBCF10F0F09D815F80C3004EB64
:102D40000C0282F8343013B10CF1010CF2E70023CD
:102D500084F84330372E00D93726E662E664002532
:102D60002565201DFFF727FC04F11800FFF723FC61
:102D70002461C6F13806A6616462656584F858501E
:102D80004A464146384601F0DDF82060BAF1000FAE
:102D900001D0CAF80040BDE8F087002384F8343041
:102DA000D8E7000038B5002407E004EB8402930064
:102DB0000E481844FFF7F4FB0134372CF5D90C4DBD
:102DC0002846FFF7EDFB0B4C2046FFF7E9FB0A48CE
:102DD000FFF7E6FB0948FFF7E3FB0948FFF7E0FBD5
:102DE000084B1D60084B1C6038BD00BFA8020020C6
:102DF0009402002080020020640200205002002083
:102E0000380200207C0200207802002010B5044621
:102E100001F0C0F8224A136801331360214B1B688C
:102E20005BB1214B1B686BB91E4B1B68DA6AE36A06
:102E30009A4207D81B4B1C6004E01A4B1C601368B5
:102E4000012B29D0194A1368013313606364E06AC7
:102E5000174B1B68984201D9154B186000EB800096
:102E6000211D144B03EB8000FFF7A8FB01F0B4F821
:102E70000D4B1B687BB10B4B1B68DA6AE36A9A4205
:102E800009D24FF0E0234FF08052C3F8042DBFF376
:102E90004F8FBFF36F8F10BDFFF784FFD2E700BFE6
:102EA0003402002008070020280200201802002019
:102EB0002C020020A802002010B5044690F85930DA
:102EC00063B1012B11D0022B0ED04FF0500383F3CE
:102ED0001188BFF36F8FBFF34F8FFEE7006B00F0D9
:102EE000B5FF204600F0B2FF10BD00F0AFFFFBE7DA
:102EF0000F4B1B68D3B110B501F04CF80D4BDB68DC
:102F0000DC68201DFFF77EFB0B4A1368013B136052
:102F1000074A1368013B136001F05EF82046FFF793
:102F2000CBFF034B1B68002BE6D110BD704700BFE1
:102F30004C020020500200203402002008B5FFF7A8
:102F4000D7FF074B1B68012BF9D94FF0E0234FF057
:102F50008052C3F8042DBFF34F8FBFF36F8FEEE79E
:102F6000A802002070B504460D46174B1E68174B8B
:102F700018680430FFF746FBB4F1FF3F0DD034442E
:102F8000124B1B685C60A64210D9114B18680F4B9E
:102F900019680431FFF71DFB70BD002DEFD00B4BFE
:102FA000196804310B48FFF709FBF5E70A4B18686D
:102FB000064B19680431FFF70CFB084B1B68A34252
:102FC000EAD9064B1C60E7E7300200200807002022
:102FD00078020020380200207C0200201402002029
:102FE00030B587B00B9C7CB10C9DB5B15C250495C8
:102FF000049D5C2D1AD04FF0500383F31188BFF36A
:103000006F8FBFF34F8FFEE74FF0500383F31188AC
:10301000BFF36F8FBFF34F8FFEE74FF0500383F383
:103020001188BFF36F8FBFF34F8FFEE7049D0C9D98
:103030002C63022485F8594000240394029505ACC2
:1030400001940A9C0094FFF75BFE0C98FFF7DEFEEC
:10305000059807B030BD2DE9F04385B00746884696
:1030600014461E46900000F06FFE08B381465C20B7
:1030700000F06AFE0546A8B1C0F83090002380F841
:103080005930039302900D9B01930C9B00933346A0
:10309000224641463846FFF733FE2846FFF7B6FE84
:1030A000012007E0484600F0D1FE4FF0FF3001E07C
:1030B0004FF0FF3005B0BDE8F083000010B588B0D8
:1030C00000240594069407AA06A905A800F0C0FDEF
:1030D000059B0293069B019300942346079A174988
:1030E0001748FFF77DFF174B1860C0B100F04CFB8D
:1030F000012815D14FF0500383F31188BFF36F8F70
:10310000BFF34F8F104B4FF0FF321A600F4B01226D
:103110001A600F4B00221A6000F0D6FF03E0002077
:10312000B0F1FF3F01D008B010BD4FF0500383F362
:103130001188BFF36F8FBFF34F8FFEE78045000804
:103140003D2F000810020020140200202802002059
:1031500030020020024A136801331360704700BF39
:103160000C020020014B1868704700BF300200209D
:10317000F8B53A4B1B68002B69D1394B1D680135F6
:103180001D60C5B9374B1B681B6843B14FF0500336
:1031900083F31188BFF36F8FBFF34F8FFEE7314A80
:1031A0001168314B186810601960304A1368013398
:1031B0001360FFF78FFD2E4B1B68AB423DD90027F4
:1031C0002C4B1B68DB6A03EB83039A002A4B9B584A
:1031D000012B00D90127294B1B68002B3CD001276C
:1031E0003AE001271F4B1B681B6843B31D4B1B684C
:1031F000DB68DC6863689D4226D3261D3046FFF7F6
:1032000001FAA36A1BB104F11800FFF7FBF9E36AA6
:103210001B4A1268934201D9194A136003EB8303D6
:103220009A00314614481044FFF7C8F9E26A114B7E
:103230001B68DB6A9A42D4D2D4E70027D2E70C4B52
:103240004FF0FF321A60BBE7094A1360B8E70D4A36
:1032500013680133136000273846F8BD0C020020C4
:10326000300200207C020020780200201C02002096
:103270001402002008070020A802002020020020DD
:103280002C0200202402002038B5354B1B6843B9BE
:103290004FF0500383F31188BFF36F8FBFF34F8F4D
:1032A000FEE700F077FE2E4B1A68013A1A601B68A1
:1032B000002B4FD12B4B1B680BB900244BE0002493
:1032C000294B1B681BB3284BDB68DC6804F1180032
:1032D000FFF798F9251D2846FFF794F9E06A234B7C
:1032E0001B68984201D9214B186000EB80002946E9
:1032F0001F4B03EB8000FFF761F9E26A1D4B1B686F
:10330000DB6A9A42DCD31C4B01221A60D8E70CB16D
:10331000FFF7E0FC194B1C6884B9174B1C68D4B14B
:103320004FF0E0234FF08052C3F8042DBFF34F8FCE
:10333000BFF36F8F01240EE0013C07D0FFF718FFA9
:103340000028F9D00C4B01221A60F5E70B4B002244
:103350001A60E2E7002400F03FFE204638BD00BFBF
:103360000C02002034020020640200202C02002005
:10337000A8020020080700202002002024020020CC
:1033800010B5A8B10446104B1B6843B14FF0500371
:1033900083F31188BFF36F8FBFF34F8FFEE7FFF703
:1033A000D9FE00212046FFF7DDFDFFF76DFF48B98C
:1033B0004FF0E0234FF08052C3F8042DBFF34F8F3E
:1033C000BFF36F8F10BD00BF0C020020204B1B68A5
:1033D0001BB1204B01221A6070471E4B00221A605D
:1033E0001D4B1B6803EB83018A001C498A585AB99C
:1033F0000BB1013BF6E74FF0500383F31188BFF3A5
:103400006F8FBFF34F8FFEE7084603EB83018A00FF
:10341000024451684968516003EB830C4FEA8C0207
:103420000832024491420BD003EB830291000B4A15
:103430000A445268D1680A4A1160074A136070470B
:10344000486862469100054A0A445060ECE700BFB4
:103450000C020020200200202C020020A8020020E4
:103460000807002058B110B50C46094A11681831F8
:10347000FFF7AFF801212046FFF774FD10BD4FF0B4
:10348000500383F31188BFF36F8FBFF34F8FFEE7B5
:103490000807002038B570B10D4614460A4A116875
:1034A0001831FFF78BF80CB14FF0FF352146284655
:1034B000FFF758FD38BD4FF0500383F31188BFF379
:1034C0006F8FBFF34F8FFEE70807002038B5C36842
:1034D000DC6824B304F118052846FFF793F8184B6D
:1034E0001B682BBB251D2846FFF78CF8E06A154B9F
:1034F0001B68984201D9134B186000EB80002946E5
:10350000114B03EB8000FFF759F8E26A0F4B1B6881
:10351000DB6A9A4211D901200D4B186038BD4FF07B
:10352000500383F31188BFF36F8FBFF34F8FFEE714
:1035300029460848FFF742F8E7E70020EEE700BF1A
:103540000C0200202C020020A80200200807002006
:103550002002002064020020034B1B680360034B21
:103560001B684360704700BF1C020020300200202F
:10357000F8B5C8B10C460546F9B100F00BFD1B4B80
:1035800019686B68C81A2268B2F1FF3F26D0184E3E
:1035900036682F68B74201D08B4224D9824215D8B1
:1035A0000023236001241AE04FF0500383F31188B5
:1035B000BFF36F8FBFF34F8FFEE74FF0500383F3DE
:1035C0001188BFF36F8FBFF34F8FFEE75B1A134471
:1035D00023602846FFF7C0FF002400E0002400F02D
:1035E000FBFC2046F8BD0124F9E700BF30020020B3
:1035F0001C020020014B01221A60704720020020AB
:10360000054B1B6833B1054B1B680BB1002070479D
:103610000220704701207047280200200C02002081
:1036200000283BD038B504461E4B1B68834208D0A7
:103630004FF0500383F31188BFF36F8FBFF34F8FA9
:10364000FEE7036D43B94FF0500383F31188BFF3D6
:103650006F8FBFF34F8FFEE7013B0365C16AC26CFA
:1036600091421DD00BB1002038BD051D2846FEF744
:10367000C9FFE06CE062C0F13803A3610A4B1B682C
:10368000984201D9084B186000EB80002946074B8F
:1036900003EB8000FEF792FF0120E5E70020704772
:1036A0000020E1E7080700202C020020A8020020EB
:1036B000064B1A6813682BB90123036023B9D3683A
:1036C000186870470023F8E7002070470C080020B6
:1036D00008B54160006191420CD8D21A83699A42C0
:1036E00001D3012008BD011D094B1868FEF771FFC9
:1036F0000020F7E79A4201D2994206D2011D054BFC
:103700001868FEF766FF0020ECE70120EAE700BF3B
:10371000080800200C08002030B583B000F03AFC07
:10372000114B1B681BB100F057FC03B030BD0F4DAF
:103730002846FEF735FF0E4C2046FEF731FF0D4BB5
:103740001D600D4B1C60002300930C4B0C4A102194
:103750000A20FFF75DF8044B18600028E3D0094900
:10376000FFF77AFADFE700BF0408002024080020F2
:10377000100800200C080020080800200C0700207A
:103780005C0700208845000810B588B0FFF7C4FF2B
:10379000124B1B68CBB100240594069407AA06A916
:1037A00005A800F061FA059B0293069B0193022392
:1037B00000932346079A0A490A48FFF711FC0A4B6F
:1037C000186010B1012008B010BD4FF0500383F312
:1037D0001188BFF36F8FBFF34F8FFEE704080020FF
:1037E00090450008ED3A000800080020B8B19C465A
:1037F00003461848006858B300B585B0009101929F
:10380000029305291CDCFFF7FBFE022810D00023E1
:103810001A4669460F480068FFF744F815E04FF074
:10382000500383F31188BFF36F8FBFF34F8FFEE711
:103830000023069A694607480068FFF733F804E05A
:10384000002362466946FFF7F1F805B05DF804FB16
:10385000002070470408002070B582B01B4B1B6825
:103860001A6862B3DB681E68DC68251D2846FEF70F
:10387000C9FE236A2046984794F8283013F0040FB5
:10388000ECD0A36933449E4207D263602461294689
:103890000E4B1868FEF79DFEE0E7002100910B46F5
:1038A00032462046FFF7A2FF0028D7D14FF0500341
:1038B00083F31188BFF36F8FBFF34F8FFEE7044A86
:1038C000106802490860136002B070BD0C08002047
:1038D0000808002038B50546FFF744FC0446074BAE
:1038E0001B68834205D800232B60044B1C602046D4
:1038F00038BDFFF7B1FF01232B60F6E7FC0700207E
:1039000070B582B006460D4617490968C968CC688B
:10391000201DFEF777FE94F828C01CF0040F08D194
:103920002CF0010C84F828C0236A2046984702B086
:1039300070BDA16933462A4631442046FFF7C8FED0
:103940000028F1D0002100910B4632462046FFF7B7
:103950004DFF0028E8D14FF0500383F31188BFF3E7
:103960006F8FBFF34F8FFEE70C08002070B582B059
:1039700006460C46FFF7EEFB01A8FFF7ABFF019BE5
:1039800033BB0546E4B9B04213D22246711B124B39
:103990001868FFF775F9FFF777FCD8B94FF0E02307
:1039A0004FF08052C3F8042DBFF34F8FBFF36F8FDA
:1039B00010E0FFF769FC29463046FFF7A1FF09E058
:1039C000064A126812680AB90124DEE71C46DCE7E1
:1039D000FFF75AFC02B070BD040800200808002060
:1039E00010B588B002E0049B002B0FDA002204A976
:1039F0003D4B1868FFF781F8002873D0049B002B1B
:103A0000F1DA07990698059B9847ECE7069C6369ED
:103A100013B1201DFEF7F6FD03A8FFF75BFF049B23
:103A2000092BE3D8DFE803F005050530375005051D
:103A3000303794F8283043F0010384F82830059B90
:103A4000A169024619442046FFF742FE0028CDD066
:103A5000236A2046984794F8283013F0040FC5D005
:103A6000A269002100910B46059802442046FFF709
:103A7000BDFE0028BAD14FF0500383F31188BFF385
:103A80006F8FBFF34F8FFEE794F8283023F00103C8
:103A900084F82830AAE794F8283043F0010384F82A
:103AA00028300599A16131B1034602460144204600
:103AB000FFF70EFE9AE74FF0500383F31188BFF330
:103AC0006F8FBFF34F8FFEE794F8283013F0020F8B
:103AD00004D023F0010384F8283087E7204600F063
:103AE000B5F983E708B010BD0408002000B583B025
:103AF00001A8FFF7DDFD0199FFF738FFFFF770FF21
:103B0000F6E708B54FF0E0231B69FFF779FD0128C0
:103B100000D108BD00F0AEFAFBE70000EFF305832B
:103B20002BB9064B186828B901221A6070476FF04C
:103B3000050070474FF0FF30704700BFF00E0020C7
:103B4000EFF3058373B90A4B1B68012B0DD110B538
:103B50000024084BDC77064B02221A60FFF7AEFA0E
:103B6000204610BD6FF0050070474FF0FF307047E2
:103B7000F00E002000ED00E0F0B587B000240594C1
:103B8000EFF3058474BB68B322B31568936903B976
:103B900018235C1E372C49D8546814F0010F47D104
:103BA00056696EB14FEA960C94682CB1D7685B2FBA
:103BB00002D9176907B1C6B92CB14FF0FF340EE036
:103BC0004FF0800CF0E7D4688CB9146994B14FF0D1
:103BD000FF3404E01546002418234FF0800C012C1C
:103BE0000AD0ACB1059807B0F0BD0124F7E74FF05B
:103BF000FF34F4E70024F2E714699268029201941A
:103C000000930B4662462946FFF7EAF90590E9E77B
:103C100005AA019200930B461FFA8CF22946FFF782
:103C20001AFA0128DED000230593DBE70020DAE74B
:103C30000020D8E708B5EFF3058333B908B90020B1
:103C400008BDFFF79DFB0020FAE76FF00500F7E7DE
:103C5000034B0360034B0B6080231360704700BF6E
:103C6000940E0020940C0020034B0360034B0B6068
:103C70004FF4807313607047380C00203808002020
:103C8000124A12F0070F1ED0D11D21F00701C1F515
:103C9000705313440A460E480260002141601344E9
:103CA000083B23F007030B48036059601960991A19
:103CB00051601360084B1960084B1960084B4FF0B6
:103CC00000421A6070474FF47053E4E7140F00206D
:103CD0000C0F0020080F0020000F0020040F002010
:103CE000F40E0020164B1A461B688342FBD3516822
:103CF00002EB010C844509D0416800EB010C6345DF
:103D000009D00360904219D01060704740680144A8
:103D100051601046F0E710B40A4C2468A3420BD05F
:103D20005B681944416013681B680360904200D0CF
:103D300010605DF8044B70470460F7E7704700BF00
:103D40000C0F0020080F002038B50446FFF702FAD8
:103D5000384B1B68B3B1384B1B681C4250D1002C48
:103D600050D004F1080214F0070F02D022F007022D
:103D70000832002A55D0314B1B68934253D3304947
:103D80000C6804E0FFF77CFFE5E721461C4663680A
:103D9000934202D22368002BF7D1264B1B68A34223
:103DA00043D00D68083523680B6063689B1A102B9D
:103DB00010D9A01810F0070F08D04FF0500383F36C
:103DC0001188BFF36F8FBFF34F8FFEE743606260D0
:103DD000FFF788FF626819490B689B1A0B60194945
:103DE00009688B4201D217490B60134B1B681343C0
:103DF000636000232360144A13680133136002E0F8
:103E0000002500E00025FFF73FFA15F0070F0ED060
:103E10004FF0500383F31188BFF36F8FBFF34F8FC1
:103E2000FEE70025EFE70025EDE70025EBE7284654
:103E300038BD00BF080F0020F40E0020040F002042
:103E40000C0F0020000F0020FC0E0020002834D0B2
:103E500038B50446A0F1080550F8043C174A12682A
:103E6000134208D14FF0500383F31188BFF36F8FD3
:103E7000BFF34F8FFEE750F8081C41B14FF05003DD
:103E800083F31188BFF36F8FBFF34F8FFEE723EAF1
:103E9000020340F8043CFFF75DF954F8041C084A9B
:103EA00013680B4413602846FFF71CFF054A13688C
:103EB00001331360FFF7E8F938BD7047F40E0020B6
:103EC000040F0020F80E002082B0002301930D4B58
:103ED0001B68B3F1FF3F08D04FF0500383F3118804
:103EE000BFF36F8FBFF34F8FFEE74FF0500383F3A5
:103EF0001188BFF36F8FBFF34F8F019B002BFCD056
:103F000002B070471400002008480068006880F381
:103F100008884FF0000080F3148862B661B6BFF3E2
:103F20004F8FBFF36F8F00DF00BF000008ED00E090
:103F3000DFF80C00016841F4700101607047000077
:103F400088ED00E04FF0807340F8043C21F001015F
:103F500040F8081C054B40F80C3C40F8202C6FF052
:103F6000020340F8243C4438704700BFC93E0008B3
:103F7000074B19680868B0E8F04F80F30988BFF371
:103F80006F8F4FF0000080F311887047AFF300800F
:103F9000080700204FF0500383F31188BFF36F8FA1
:103FA000BFF34F8F0B4A136801331360012B00D00E
:103FB00070474FF0E023D3F8043D13F0FF0FF7D024
:103FC0004FF0500383F31188BFF36F8FBFF34F8F10
:103FD000FEE700BF14000020094B1B6843B94FF0F7
:103FE000500383F31188BFF36F8FBFF34F8FFEE74A
:103FF000013B034A13600BB983F31188704700BF7C
:10400000140000200000000000000000000000007C
:10401000EFF30980BFF36F8F154B1A681EF0100F76
:1040200008BF20ED108A20E9F04F10602DE909004B
:104030004FF0500080F31188BFF34F8FBFF36F8FA5
:10404000FFF7C4F94FF0000080F3118809BC19682C
:104050000868B0E8F04F1EF0100F08BFB0EC108AEF
:1040600080F30988BFF36F8F704700BFAFF3008004
:104070000807002008B54FF0500383F31188BFF301
:104080006F8FBFF34F8FFFF773F828B14FF0E02326
:104090004FF08052C3F8042D002383F3118808BD2C
:1040A0004FF0E022002313619361054B1B68054923
:1040B000A1FB03139B09013B536107231361704765
:1040C00008000020D34D62104FF0E023D3F8002DFC
:1040D0003D4B9A421CD04FF0E023D3F8002D3B4BD0
:1040E0009A421ED030B583B0394B1A78D2B20192C1
:1040F000FF221A701B78DBB28DF803309DF8033075
:1041000003F05003334A1370334B07221A601BE04D
:104110004FF0500383F31188BFF36F8FBFF34F8FBE
:10412000FEE74FF0500383F31188BFF36F8FBFF3A7
:104130004F8FFEE7284A1368013B13609DF8033058
:104140005B00DBB28DF803309DF8033013F0800F75
:10415000F0D1214B1B68032B08D04FF0500383F3A1
:104160001188BFF36F8FBFF34F8FFEE71B021A4A10
:10417000136003F4E0631360019BDBB2144A137015
:104180004FF0E024D4F8203D43F47003C4F8203D00
:10419000D4F8203D43F07043C4F8203DFFF780FF82
:1041A00000250E4B1D60FFF7C3FED4F8343F43F0EB
:1041B0004043C4F8343FFFF7A7FEFFF707F9FFF7C6
:1041C00083FE284603B030BD71C20F4170C20F415B
:1041D00000E400E0184B0020144B002014000020E5
:1041E000EFF305830F2B0FD9114A9B5CDBB2114A09
:1041F00012789A4208D94FF0500383F31188BFF325
:104200006F8FBFF34F8FFEE74FF0E023D3F80C3DE5
:1042100003F4E063084A1268934208D94FF0500350
:1042200083F31188BFF36F8FBFF34F8FFEE77047A3
:10423000F0E300E0184B0020144B0020DFF834D0EE
:10424000FDF78EFF0C480D490D4A002302E0D458BB
:10425000C4500433C4188C42F9D30A4A0A4C0023D0
:1042600001E013600432A242FBD3FBF7E3FFFCF74B
:104270003FF97047000002200000002018000020D5
:10428000F0450008180000201C4B0020FEE72DE937
:10429000F04786468C460846089E154674461946E1
:1042A000002B40F0C2808542B2FA82F245D94AB171
:1042B000C2F1200300FA02FC2EFA03F3954043EA10
:1042C0000C0C94404FEA154EA8B2BCFBFEF8230C30
:1042D0000EFB18CC08FB00F943EA0C43994528D99A
:1042E000EB1808F1FF3704D2994502D9A8F102076B
:1042F0002B44A3EB0903A4B2B3FBFEFC0EFB1C335F
:104300000CFB00F044EA0344A04214D92C190CF130
:10431000FF3304D2A04202D9ACF102032C44241A88
:1043200043EA07401EB1D440002334607360BDE807
:10433000F0874746DDE76346F1E792BB431B012167
:104340004FEA154EAFB2B3FBFEFC200C0EFB1C3344
:104350000CFB07F840EA0343984562D9EB180CF1CF
:10436000FF3004D2984502D9ACF102002B44A3EBF4
:104370000803A4B2B3FBFEFC0EFB1C330CFB07F7D7
:1043800044EA0344A7424ED92C190CF1FF3304D25E
:10439000A74202D9ACF102032C44E41B43EA0040DB
:1043A000C0E7C2F1200320FA03F1954090402EFAB5
:1043B00003F303434FEA154EAFB2B1FBFEFC0EFB15
:1043C0001C10190C0CFB07F841EA0041884504FA5F
:1043D00002F422D969180CF1FF3004D2884502D9C1
:1043E000ACF102002944A1EB08019BB2B1FBFEFC39
:1043F0000EFB1C110CFB07F743EA01439F420ED949
:10440000EB180CF1FF3104D29F4202D9ACF102014A
:104410002B44DB1B41EA004192E76046E3E761463B
:10442000F7E76046A3E76346B7E7834206D916B9C4
:10443000002108467BE7C6E900E0F9E7B3FA83F715
:104440008FB9834201D3724508D8BEEB020460EBFA
:10445000030301209C461EB9002168E73846FAE7AD
:10446000C6E9004CF8E7C7F1200CBB4022FA0CF477
:104470001C432EFA0CF120FA0CF3B84001434FEA2A
:1044800014490EFA07F5B3FBF9F81FFA84FE09FB8D
:1044900018300B0C08FB0EFA43EA00439A4502FA67
:1044A00007F240D9E31808F1FF3004D29A4502D947
:1044B000A8F102002344A3EB0A0389B2B3FBF9F885
:1044C00009FB183308FB0EFE41EA03418E452CD947
:1044D000611808F1FF3304D28E4502D9A8F1020316
:1044E000214443EA0040A0FB0298A1EB0E014145A4
:1044F000CE46434602D306D14D4504D2B9EB020E57
:1045000068EB04030138002EA6D0B5EB0E0261EB78
:10451000030101FA0CFC22FA07F34CEA0303F94009
:10452000C6E9003198E74046C5E74346D9E70000B1
:10453000F8B500BFF8BC08BC9E467047F8B500BF90
:08454000F8BC08BC9E46704760
:104548000006101600061016000000000102030401
:10455800000000000000000001020304060708092B
:10456800424D493038385461736B000064656661A8
:10457800756C745461736B0049444C45000000002D
:10458800546D725100000000546D72205376630020
:10459800684500080000000000000000000000005E
:1045A80000000000000200002000000000000000E1
:1045B8000000000074450008000000000000000032
:1045C80000000000000000000002000018000000C9
:0845D8000000000000000000DB
:0845E000A4BCFF7F01000000F4
:0445E80011040008B2
:0445EC00ED030008D3
:1045F00001000000100000000024F40058A08B3AD5
:08460000E741EB3AAAAAAAAABD
:040000050800423D70
:00000001FF
