:020000040800F2
:10000000000002201D200008D5050008D7050008C3
:10001000D9050008DB050008DD0500080000000028
:10002000000000000000000000000000DF050008E4
:10003000E105000800000000E3050008E5050008F0
:100040006D2000086D2000086D2000086D2000085C
:100050006D2000086D2000086D2000086D2000084C
:100060006D2000086D2000086D2000086D2000083C
:100070006D2000086D2000086D2000086D2000082C
:100080006D2000086D2000086D2000086D2000081C
:100090006D2000086D2000086D2000086D2000080C
:1000A0006D2000086D2000086D2000086D200008FC
:1000B0006D2000086D2000086D2000086D200008EC
:1000C0006D2000086D2000086D200008ED05000877
:1000D0006D2000086D2000086D2000086D200008CC
:1000E0006D2000086D2000086D2000086D200008BC
:1000F0006D2000086D2000086D2000086D200008AC
:100100006D2000086D2000086D2000086D2000089B
:100110006D2000086D2000086D2000086D2000088B
:10012000FD0500086D2000086D2000080D06000880
:100130006D2000086D2000086D2000086D2000086B
:100140006D2000086D2000086D2000086D2000085B
:100150006D2000086D2000086D2000086D2000084B
:100160006D2000086D2000086D2000086D2000083B
:100170006D2000086D2000086D20000800000000C0
:080180006D2000086D2000084D
:10018800830730B547D0541E002A3ED0CAB2034672
:1001980001E0013C39D303F8012B9D07F9D1032C69
:1001A8002CD9CDB205EB05250F2C05EB054535D926
:1001B800A4F1100222F00F0C03F1100EE6444FEAEE
:1001C800121C1A46156055609560D560103272454C
:1001D800F8D10CF1010214F00C0F03EB021204F039
:1001E8000F0C13D0ACF1040323F0030304331344BE
:1001F80042F8045B9A42FBD10CF003042CB1C9B25B
:100208001C4403F8011B9C42FBD130BD64461346D5
:10021800002CF4D1F9E703461446C0E71A46A44671
:10022800E0E700BF70B50F4B0F4DAB42A3EB0506DF
:1002380007D0B610002455F8043B01349847A6426D
:10024800F9D802F061F8094D094B5E1BAB424FEA41
:10025800A60606D0002455F8043B01349847A64268
:10026800F9D870BD4823000848230008482300082F
:100278004C23000853B94AB9002908BF00281CBFFD
:100288004FF0FF314FF0FF3000F00CB8ADF1080C23
:100298006DE904CE01F0E7FEDDF804E0DDE90223B4
:1002A80004B07047704700BF10B5054C237833B9C8
:1002B800044B13B10448AFF300800123237010BD31
:1002C80014000020000000001023000808B5034BAC
:1002D8001BB103490348AFF3008008BD00000000CC
:1002E800180000201023000872B6FEE700B595B08C
:1002F8003022002108A8FFF743FF0023039304934B
:100308000593069307930193204A116C41F080519D
:100318001164126C02F080520192019A02931C4BF4
:100328001A6842F480421A601B6803F480430293FF
:10033800029B012308934FF48033099302230E9301
:100348004FF480020F9206221092A8221192129363
:100358000423139308A800F0C3FD98B90F2303934F
:1003680002230493002305934FF4A05306934FF4FC
:1003780080530793052103A801F002F820B915B0AE
:100388005DF804FBFFF7B0FFFFF7AEFF003802404F
:100398000070004008B501F059FCFFF7A7FF00F016
:1003A8000DF801F015FE00F057F801F099FC01F086
:1003B8006FFD01F0F5FC01F09FFDFAE7F0B589B09B
:1003C80000220392049205920692079200921F4B14
:1003D800196B41F002011963196B01F002010091D8
:1003E80000990192196B41F001011963196B01F031
:1003F80001010191019902921A6B42F080021A637D
:100408001B6B03F080030293029B114F0122102102
:10041800384601F05BF90F4D01221146284601F0DC
:1004280055F9102303930124049405940226069693
:1004380003A9384601F054F80394049405940696E9
:1004480003A9284601F04CF809B0F0BD0038024075
:10045800000002400004024008B50F480F4B03603B
:100468004FF48273436000238360C36002220261F9
:10047800012242614FF4007282611822C261036254
:10048800436283620A23C36200F0CAF900B908BD57
:10049800FFF72AFFFBE700BFF00000200030014013
:1004A8002DE9F04188B00023039304930593069344
:1004B800079302683E4B9A4202D008B0BDE8F0812B
:1004C80004460025009503F584335A6C42F48052A3
:1004D8005A645A6C02F480520092009A01951A6B81
:1004E80042F002021A631A6B02F002020192019AA8
:1004F80002951A6B42F001021A631B6B03F00103A9
:100508000293029B182303934FF00208CDF8108042
:10051800032706970526079603A9264800F0E0FF5B
:1005280080230393CDF8108005950697079603A9B5
:10053800214800F0D5FF2148214B03604FF0C063EC
:1005480043608560C5604FF48063036145618561E0
:10055800C5610562456201F03BF918BB174BE364BE
:100568009C631848184B03604FF0C06343604023F6
:1005780083600023C3604FF480620261436183613A
:10058800C3610362436201F023F970B90D4BA364A0
:100598009C6300221146232001F00AFB232001F06E
:1005A80017FB8AE7FFF7A0FED8E7FFF79DFEEDE708
:1005B800003001400004024000000240900000208A
:1005C800106402403000002058640240FEE7FEE755
:1005D800FEE7FEE7FEE770477047704708B501F091
:1005E8004FFB08BD08B5024800F0DCFB08BD00BFA2
:1005F800F000002008B5024801F098F908BD00BFD6
:100608009000002008B5024801F090F908BD00BF2D
:100618003000002082B0002100910B4B5A6C42F44C
:1006280080425A645A6C02F480420092009A019106
:100638001A6C42F080521A641B6C03F080530193C9
:10064800019B02B0704700BF003802402DE9F04717
:1006580082B00546884617461E4601F01DFB0A9BD8
:100668001B1A03EB060901F017FB8246284B1B688F
:10067800C3F3CB3309FB03F301932B689C6838EA77
:1006880004040CBF01230023BB423DD0B6F1FF3F59
:10069800F3D001F001FBA0EB0A00484507D2019A0C
:1006A80002B14A46019B013B01939146E5E72A685E
:1006B800536823F0E00353606B68B3F5827F0BD077
:1006C800AB6AB3F5005F14D0012385F851300023DD
:1006D80085F85030032018E0AB68B3F5004F02D01E
:1006E800B3F5806FECD12A68136823F040031360D8
:1006F800E6E72A68136823F4005313602A6813682E
:1007080043F400531360DFE7002002B0BDE8F08730
:100718000800002070B584B004460D4616460092C5
:100728000B4601220221FFF791FFD0B9174B1B6836
:10073800174AA2FB03235B0D4FF47A7202FB03F303
:1007480003936368B3F5827F11D0039B3BB1039B8E
:10075800013B039323689B6813F0800FF5D104B025
:1007680070BD636D43F0200363650320F7E70096CF
:100778002B46002280212046FFF768FF0028EED094
:10078800636D43F0200363650320E8E70800002059
:10079800819F5E1610B582B004460B464168B1F5DC
:1007A800827F14D06168B1F5827F2AD1A168B1F542
:1007B800806F19D00092002280212046FFF746FF63
:1007C80030B3636D43F020036365032020E0816844
:1007D800B1F5004F02D0B1F5806FE3D12068016810
:1007E80021F040010160DDE700920022012120464E
:1007F800FFF72CFF60B1636D43F0200363650320AE
:1008080006E00092002201212046FFF71FFF08B9E9
:1008180002B010BD636D43F0200363650320F7E762
:1008280000285AD010B50446436A33B94368B3F573
:10083800827F05D00023C36102E000230361436186
:100848000023A36294F85130002B40D0022384F88F
:1008580051302268136823F040031360636803F47F
:100868008273A26802F404421343E26802F400624D
:100878001343226902F002021343626902F0010283
:100888001343A26902F400721343E26902F03802CA
:100898001343226A02F080021343A26A02F4005250
:1008A800216813430B60638B03F00403626A02F050
:1008B8001002216813434B602268D36923F4006354
:1008C800D36100206065012384F8513010BD84F89D
:1008D80050302046FFF7E4FDB8E7012070470000DC
:1008E80038B590F85150EDB2012D5DD1044600297C
:1008F8005BD0002A59D090F85030012B57D00123F3
:1009080080F85030032380F8513000234365016399
:100918008286C2868363436403648387C38783684C
:10092800B3F5004F2DD0A36C224A1A64A36C224A57
:10093800DA63A36C214ADA64A36C00221A65226880
:10094800E38E9BB20C32216BA06C00F0A7FF01462E
:1009580010BB23681A6812F0400F03D11A6842F0DE
:1009680040021A60002384F850302268536843F02C
:10097800200353602268536843F0020353600D4616
:1009880013E00268136823F04003136002681368D9
:1009980043F480431360C6E7636D43F01003636557
:1009A800002384F8503000E00225284638BD02258F
:1009B800FBE700BF2D0C0008730C0008510C000861
:1009C80038B5044690F85100C0B2656801280AD0CD
:1009D800B5F5827F40F08B80A568002D40F08980B6
:1009E800042840F08880002900F08780002A00F061
:1009F8008680002B00F0858094F85000012800F0D4
:100A08008280012084F8500094F85100C0B2042874
:100A180002D0052084F85100002060652163A38678
:100A2800E386A263A387E3872064606494F8513067
:100A3800DBB2042B1DD0E36C344A1A64E36C344AED
:100A4800DA63E36C334ADA64E36C00221A652168DE
:100A5800E38F9BB2A26B0C31E06C00F01FFF78B102
:100A6800636D43F010036365002384F85030012060
:100A78003EE0E36C284A1A64E36C284ADA63E0E74C
:100A88002268536843F001035360A26C0023136487
:100A9800A26CD363A26CD364A26C13652268E38E44
:100AA8009BB20C32216BA06C00F0F8FEB0B9236841
:100AB8001A6812F0400F03D11A6842F040021A6017
:100AC800002384F850302268536843F020035360B1
:100AD8002268536843F00203536009E0636D43F0F2
:100AE80010036365002384F85030012000E00220E1
:100AF80038BD0220FCE70220FAE70120F8E70120D0
:100B0800F6E70120F4E70220F2E700BF450C0008F1
:100B1800510D0008510C0008390C0008E30C0008BE
:100B280038B590F85150EDB2012D6BD1044680686C
:100B380018B96368B3F5827F47D0002963D0002ACB
:100B480061D094F85030012B5FD0012384F85030E5
:100B5800042384F8513000236365A163A287E287E8
:100B680023646364A386E386B0F5004F37D0E36C53
:100B7800274A1A64E36C274ADA63E36C264ADA6484
:100B8800E36C00221A652168E38F9BB2A26B0C31DB
:100B9800E06C00F083FE014660BB23681A6812F01F
:100BA800400F03D11A6842F040021A60002384F80B
:100BB80050302268536843F020035360226853681A
:100BC80043F0010353600D461DE0042384F85130BF
:100BD80013460A462046FFF7F3FE054613E022684F
:100BE800136823F0400313602268136823F48043DA
:100BF8001360BCE7636D43F010036365002384F85A
:100C0800503000E00225284638BD0225FBE700BF2A
:100C1800390C0008E30C0008510C000870477047B5
:100C28007047704708B5806BFFF7FBFF08BD70473A
:100C380008B5806BFFF7FBFF08BD704708B5806BF0
:100C4800FFF7FBFF08BD704708B5806B0268536863
:100C580023F003035360436D43F0100343650123FE
:100C680080F85130FFF7EFFF08BD30B583B0054677
:100C7800846B01F011F82B681B6813F4807F23D173
:100C8800024621684B6823F020034B6021684B68BB
:100C980023F002034B6064212046FFF73BFD18B1A7
:100CA800636D43F020036365A36833B90193236838
:100CB800DA6801929B680193019B0023E386012374
:100CC80084F85130636D23B92046FFF7A7FF03B0BE
:100CD80030BD2046FFF7B7FFF9E738B50546846B06
:100CE80000F0DAFF2B681B6813F4807F1ED10246E0
:100CF80021684B6823F020034B60A3681BB9636825
:100D0800B3F5827F16D021684B6823F001034B604E
:100D180064212046FFF73EFD08B1202363650023C8
:100D2800E387012384F85130636D4BB92046FFF700
:100D380076FF38BD21684B6823F003034B60E7E773
:100D48002046FFF780FFF4E738B50546846B00F0CE
:100D5800A3FF2B681B6813F4807F1BD10246216810
:100D68004B6823F020034B6064212046FFF7D2FC38
:100D780018B1636D43F0200363652268536823F05C
:100D8800030353600023E386E387012384F851308B
:100D9800636D1BB92046FFF743FF38BD2046FFF7B8
:100DA80052FFFAE730B585B0044602685168936887
:100DB800C3F3801013F0400F05D113F0010F02D0D8
:100DC80011F0400F69D113F0020F02D011F0800F1B
:100DD80067D1C3F3401513F0200F03D110B913F4F2
:100DE800807F61D011F0200F5ED078B194F8510067
:100DF800C0B203285AD0606D40F00400606500203E
:100E08000090D068009090680090009865B1606D7F
:100E180040F0010060650020029090680290106820
:100E280020F040001060029A13F4807F09D0636DAF
:100E380043F0080363650023039323689B680393C7
:100E4800039B636D002B2FD02268536823F0E003C7
:100E58005360012384F8513011F0030F2ED022681B
:100E6800536823F003035360E36C4BB1154A1A65CA
:100E7800E06C00F048FD18B1636D43F04003636512
:100E8800A36C8BB10F4A1A65A06C00F03CFD58B1F9
:100E9800636D43F04003636506E0236C2046984782
:100EA80002E0636C2046984705B030BD00230193EB
:100EB800D368019393680193019BF5E72046FFF7F8
:100EC800C2FEF1E7D10E000808B5806B0023C38786
:100ED800C386FFF7B8FE08BD90F8510070470000C0
:100EE800002800F0E08170B582B00446036813F072
:100EF800010F3BD09F4B9B6803F00C03042B2CD0B5
:100F08009C4B9B6803F00C03082B21D06368B3F556
:100F1800803F4FD0B3F5A02F52D0964B1A6822F4D9
:100F280080321A601A6822F480221A606368002BE3
:100F380050D000F0B1FE05468E4B1B6813F4003FFD
:100F480014D100F0A9FE401B6428F5D90320B1E1B3
:100F5800884B5B6813F4800FD8D0864B1B6813F45A
:100F6800003F03D06368002B00F09F81236813F0D3
:100F7800020F54D07F4B9B6813F00C0F3ED07D4B73
:100F88009B6803F00C03082B33D0E368002B68D070
:100F9800794B01221A6000F07FFE0546754B1B68ED
:100FA80013F0020F54D100F077FE401B0228F5D948
:100FB80003207FE16F4A136843F480331360B5E779
:100FC8006C4B1A6842F480221A601A6842F4803224
:100FD8001A60ABE700F060FE0546664B1B6813F429
:100FE800003FC3D000F058FE401B6428F5D9032009
:100FF80060E1604B5B6813F4800FC6D15D4B1B68E2
:1010080013F0020F03D0E368012B40F05081594AD6
:10101800136823F0F803216943EAC10313602368C6
:1010280013F0080F42D063696BB3534B0122C3F826
:10103800802E00F031FE05464E4B5B6F13F0020F19
:1010480034D100F029FE401B0228F5D9032031E1F4
:10105800484A136823F0F803216943EAC10313607F
:10106800DDE7454B00221A6000F016FE0546414BAD
:101078001B6813F0020FD2D000F00EFE401B0228AE
:10108800F5D9032016E13C4B0022C3F8802E00F06E
:1010980003FE0546374B5B6F13F0020F06D000F0D6
:1010A800FBFD401B0228F5D9032003E1236813F058
:1010B800040F77D02F4B1B6C13F0805F33D10023C4
:1010C80001932C4B1A6C42F080521A641B6C03F08B
:1010D80080530193019B0125284B1B6813F4807FE3
:1010E80023D0A368012B34D0052B38D0214B1A6F9D
:1010F80022F001021A671A6F22F004021A67A36825
:10110800002B3DD000F0C8FD06461A4B1B6F13F0AC
:10111800020F46D100F0C0FD801B41F2883398428F
:10112800F3D90320C6E00025D6E7144A136843F430
:101138008073136000F0B0FD0646104B1B6813F473
:10114800807FCED100F0A8FD801B0228F5D90320AE
:10115800B0E0084A136F43F001031367CFE7054B6C
:101168001A6F42F004021A671A6F42F001021A67F6
:10117800C5E700BF00380240000047420070004049
:1011880000F08AFD0646524B1B6F13F0020F08D081
:1011980000F082FD801B41F288339842F3D9032086
:1011A80088E0EDB9A369002B00F08380484A926873
:1011B80002F00C02082A51D0022B17D0454B00220E
:1011C8001A6600F069FD0446414B1B6813F0007F66
:1011D80042D000F061FD001B0228F5D9032069E028
:1011E8003B4A136C23F080531364DBE7394B00222E
:1011F8001A6600F051FD0546354B1B6813F0007F59
:1012080006D000F049FD401B0228F5D9032051E023
:10121800E369226A1343626A43EA8213A26A5208A4
:10122800013A43EA0243E26A43EA0263284A536006
:10123800284B01221A6600F02FFD0446244B1B6838
:1012480013F0007F06D100F027FD001B0228F5D916
:1012580003202FE000202DE000202BE0012B2BD0D5
:101268001B4B5B6803F48001E269914226D103F0CD
:101278003F02216A8A4223D1616A47F6C0721A4046
:10128800B2EB811F1ED103F44031A26A5208013A21
:10129800B1EB024F18D103F07063E26AB3EB026F4F
:1012A80014D1002006E001207047012002E001204F
:1012B80000E0002002B070BD0120FBE70120F9E743
:1012C8000120F7E70120F5E70120F3E70120F1E726
:1012D800003802400000474208B5264B9B6803F0DF
:1012E8000C03042B41D0082B41D1224B5A6802F041
:1012F8003F025B6813F4800F12D01E4B5968C1F38C
:1013080088111D480023A1FB0001FEF7B3FF194B0C
:101318005B68C3F3014301335B00B0FBF3F008BD26
:10132800144B5868C0F388104FEA401CBCEB000C03
:101338006EEB0E0E4FEA8E1343EA9C634FEA8C1154
:10134800B1EB0C0163EB0E03DB0043EA5173C900F8
:1013580011EB000C43F10003990200234FEA8C20A3
:1013680041EA9C51FEF786FFD1E70348D7E70348D7
:10137800D5E700BF00380240001BB7000024F40086
:10138800002800F09B8070B50D4604464F4B1B6843
:1013980003F007038B4208D2CBB24C4A1370136890
:1013A80003F007038B4240F08B80236813F0020F91
:1013B80017D013F0040F04D0454A936843F4E05360
:1013C8009360236813F0080F04D0414A936843F4EC
:1013D800604393603E4A936823F0F003A1680B438F
:1013E8009360236813F0010F32D06368012B21D07A
:1013F8009A1E012A25D9364A126812F0020F61D0C6
:1014080033498A6822F0030213438B6000F044FCDE
:1014180006462F4B9B6803F00C036268B3EB820F00
:1014280016D000F039FC801B41F288339842F0D97D
:10143800032042E0264A126812F4003FE0D101205E
:101448003BE0234A126812F0007FD9D1012034E032
:101458001E4B1B6803F00703AB4207D9EAB21B4BCC
:101468001A701B6803F00703AB422DD1236813F0F1
:10147800040F06D0164A936823F4E053E1680B433F
:101488009360236813F0080F07D0114A936823F478
:101498006043216943EAC1039360FFF71DFF0C4BCA
:1014A8009B68C3F303130B4AD35CD8400A4B1860FC
:1014B8000A4B186800F0A4FB002070BD012070479B
:1014C8000120FAE70120F8E70120F6E7003C024096
:1014D80000380240302300080800002004000020E3
:1014E80000230F2B00F2E98070B582B065E08568B3
:1014F8004FEA430E032404FA0EF425EA0405CC68E7
:1015080004FA0EF42C438460446824EA02044A680E
:10151800C2F300129A40224342605CE0DC080834BF
:1015280050F8242003F00705AD004FF00F0E0EFA17
:1015380005FE22EA0E0E0A69AA4042EA0E0240F8A7
:1015480024205CE0072200E0002202FA0EF22A437F
:1015580002345A4D45F82420594A94686FEA0C021F
:1015680024EA0C054E6816F4801F01D04CEA0405E5
:10157800534CA560E46802EA04054E6816F4001F9F
:1015880001D04CEA04054E4CE560646802EA0405A3
:101598004E6816F4003F01D04CEA0405484C6560DB
:1015A800246822404D6815F4803F01D04CEA0402BB
:1015B800434C226001330F2B7DD801229A400C68DE
:1015C80004EA020C32EA0404F4D14C6804F003047F
:1015D800013C012C8BD94A6802F00302032A09D086
:1015E800C4685D000322AA4024EA02048A68AA406B
:1015F8002243C2604A6802F00302022A8ED00468BD
:101608004FEA430E032202FA0EF224EA02044A6861
:1016180002F0030202FA0EF2224302604A6812F450
:10162800403FC7D000220192264A546C44F48044BB
:101638005464526C02F480420192019A9C08A51CE1
:101648001E4A52F8255003F0030E4FEA8E0E0F2261
:1016580002FA0EF225EA02051B4A90423FF474AFE3
:1016680002F5806290421AD002F58062904218D04A
:1016780002F58062904216D002F58062904214D042
:1016880002F58062904212D002F58062904210D03A
:1016980002F5806290423FF455AF082255E70122D7
:1016A80053E7022251E703224FE704224DE70522C0
:1016B8004BE7062249E702B070BD70470038014089
:1016C800003C014000380240000002400AB181613C
:1016D800704709048161704730B405682C6824F4A8
:1016E80080242C60046863608368402B05D00368FD
:1016F80099600368DA6030BC704703689A600368D1
:10170800D960F8E710B40368D9B210390A4AA2FBC5
:1017180001421209094CA25CC2655F2907D96FF31F
:10172800090304338365806D5DF8044B70476FF3DC
:1017380009038365F7E700BFABAAAAAA2823000814
:10174800836A826992B9012B0AD0022B02D00BB1AD
:1017580000207047C36A13F0807F28D100207047AB
:10176800C36AB3F1C07F24D000207047B2F5005F90
:1017780009D0022B25D9032B25D1C36A13F0807F0A
:1017880023D100207047032B03D8DFE803F01404AB
:10179800140A00207047C36A13F0807F0DD100201F
:1017A8007047C36AB3F1C07F09D000207047012099
:1017B80070470120704701207047012070470120C1
:1017C80070470120704700207047012070470000D3
:1017D80070B5044600F060FA002C5BD00546022381
:1017E80084F83530002384F834302268136823F0F5
:1017F8000103136023681A6812F0010F0AD000F081
:101808004BFA431B052BF5D920236365032084F885
:10181800350070BD1A68204911406268A06802430B
:10182800E06802432069024360690243A0690243F9
:10183800E0690243206A02430A43616A04291ED010
:101848001A602668756925F00705636A1D43042B2D
:1018580007D1A36A1D43E36A1BB12046FFF770FF57
:1018680090B975612046FFF74DFFE26D3F23934025
:10187800836000206065012384F83530C9E7E16A98
:10188800206B01430A43DBE740236365012084F8AA
:101898003500BEE70120BCE73F8010F038B50446AC
:1018A800856D90F8340001282BD0012084F834008D
:1018B80094F83500C0B2012804D0002384F83430ED
:1018C800022038BD022084F83500002060652046DB
:1018D800FFF702FFE26D3F239340AB602268136875
:1018E80043F016031360236C23B12268136843F096
:1018F800080313602268136843F001031360002093
:10190800DFE70220DDE790F83530DBB2022B03D0A9
:101918008023436501207047052380F8353002682D
:10192800136823F00103136000207047F0B583B0FB
:10193800044600230193724B1D68724BA3FB0535C7
:10194800AD0A876D3E68C26D08239340334210D0BC
:1019580003681A6812F0040F0BD01A6822F0040208
:101968001A60C26D08239340BB60436D43F00103C6
:101978004365E26D01239340334209D022685269DE
:1019880012F0800F04D0BB60636D43F002036365FF
:10199800E26D04239340334209D02268126812F0A2
:1019A800020F04D0BB60636D43F004036365E26D0E
:1019B80010239340334224D02268126812F0080F93
:1019C8001FD0BB6023681A6812F4802F0DD01B68E3
:1019D80013F4002F04D1236C9BB12046984710E0E4
:1019E800A36C73B1204698470BE01A6812F4807F05
:1019F80003D11A6822F008021A60236C0BB1204642
:101A08009847E26D20239340334255D022681268EC
:101A180012F0100F50D0BB6094F83530DBB2052BB4
:101A28000ED023681A6812F4802F33D01B6813F481
:101A3800002F2AD1636C002B3ED0204698473BE00C
:101A48002268136823F0160313602268536923F091
:101A580080035361236CA3B12268136823F0080341
:101A68001360E26D3F239340BB60012384F8353057
:101A7800002384F83430236D002B3FD0204698474C
:101A88003CE0A36C002BE7D1EBE7E36BA3B1204666
:101A9800984711E01A6812F4807F09D11A6822F079
:101AA80010021A60012384F83530002384F834309A
:101AB800E36B0BB120469847636DFBB1636D13F080
:101AC800010F17D0052384F835302268136823F0F6
:101AD80001031360019B01330193AB4204D82368CF
:101AE8001B6813F0010FF5D1012384F8353000236A
:101AF80084F83430E36C0BB12046984703B0F0BD4E
:101B080008000020B5814E1B002807DB00F01F02EB
:101B1800400901239340024A42F82030704700BF31
:101B280000E100E0002808DB0901C9B200F16040CB
:101B380000F5614080F80013704700F00F000901BC
:101B4800C9B2014B1954704714ED00E000B500F01C
:101B58000700C0F1070CBCF1040F28BF4FF0040CBC
:101B6800031D062B0FD9C31E4FF0FF3E0EFA0CF0D3
:101B780021EA000199400EFA03FE22EA0E0241EA28
:101B880002005DF804FB0023EEE70000074AD36873
:101B980023F4E0631B041B0C000200F4E060034321
:101BA80043F0BF6343F40033D360704700ED00E0B7
:101BB80010B50446054BD868C0F30220FFF7C6FFEE
:101BC80001462046FFF7AEFF10BD00BF00ED00E064
:101BD80008B5FFF799FF08BD0138B0F1807F0BD237
:101BE8004FF0E0235861054AF02182F823100020C5
:101BF800986107221A6170470120704700ED00E0E4
:101C080010B504460E4B1A784FF47A73B3FBF2F30F
:101C18000C4A1068B0FBF3F0FFF7DEFF68B90F2C31
:101C280001D901200AE0002221464FF0FF30FFF7DA
:101C3800BFFF054B1C60002000E0012010BD00BF65
:101C480000000020080000200400002008B50B4B0D
:101C58001A6842F400721A601A6842F480621A60C4
:101C68001A6842F480721A600320FFF78FFF0F2072
:101C7800FFF7C6FFFEF7CEFC002008BD003C02407F
:101C8800034A1168034B1B780B441360704700BF6D
:101C98004801002000000020014B1868704700BF71
:101CA8004801002038B50446FFF7F6FF0546B4F1B1
:101CB800FF3F02D0044B1B781C44FFF7EDFF401B8D
:101CC800A042FAD338BD00BF00000020034AD2F872
:101CD800883043F47003C2F88830704700ED00E0A4
:101CE80010B5002210212B48FFF7F0FC2A497E236B
:101CF8000B7001222948FEF7F3FD0120FFF7D2FF00
:101D08002648FFF7E9F80328FAD02349B6230B70D1
:101D180001222248FEF7E4FD0120FFF7C3FF1F4818
:101D2800FFF7DAF80328FAD00120FFF7BBFF194CB8
:101D3800012210212046FFF7C9FC0022102120466D
:101D4800FFF7C4FC14497D230B7001221348FEF7EA
:101D5800C7FD0120FFF7A6FF1048FFF7BDF80328CD
:101D6800FAD00D4904230B7001220C48FEF7B8FD88
:101D78000120FFF797FF0948FFF7AEF80328FAD0CC
:101D88000120FFF78FFF012210210248FFF79EFC78
:101D980010BD00BF000002404F010020F0000020ED
:101DA80010B5002210213248FFF790FC31499223E8
:101DB8000B7001223048FEF793FD0120FFF772FFF8
:101DC8002D48FFF789F80328FAD001222B492A4821
:101DD800FEF7A6FE0120FFF765FF2748FFF77CF80E
:101DE8000428FAD000240FE0012224492248FEF7F3
:101DF80097FE0120FFF756FF214B042BFCD01F4B09
:101E08001A78204B1A550134052CEDDD01221021DA
:101E18001748FFF75BFC1B4A5178137843EA012304
:101E28001BB207EE903A184B93ED007AF8EEE77A7A
:101E380067EE877A1549C1ED007AD078937843EA3E
:101E480000231BB207EE903AF8EEE77A67EE877A3E
:101E5800C1ED017A5079137943EA00231BB207EEEA
:101E6800903AF8EEE77A67EE877AC1ED027A10BD0C
:101E7800000002404F010020F00000204E01002029
:101E8800E10E000858010020100000206001002029
:101E980008B5002201211548FFF718FC144914233E
:101EA8000B7001221348FEF71BFD0120FFF7FAFE15
:101EB8001048FFF711F80328FAD00D49B6230B7024
:101EC80001220C48FEF70CFD0120FFF7EBFE094844
:101ED800FFF702F80328FAD01E20FFF7E3FE0122DD
:101EE80011460248FFF7F2FB08BD00BF000402409C
:101EF8004D010020F000002010B5002201212C48DF
:101F0800FFF7E4FB2B4980230B7001222A48FEF7D8
:101F1800E7FC0120FFF7C6FE2748FEF7DDFF032890
:101F2800FAD000240FE0012224492348FEF7F8FDE7
:101F38000120FFF7B7FE224B042BFCD01F4B1A7869
:101F4800204B1A550134072CEDDD012211461848A3
:101F5800FFF7BCFB1B4AD178937843EA01231BB2F5
:101F680007EE903A184B93ED007AF8EEE77A67EEB1
:101F7800877A1649C1ED007A5079137943EA00232C
:101F88001BB207EE903AF8EEE77A67EE877AC1ED72
:101F9800017AD079937943EA00231BB207EE903A8D
:101FA800F8EEE77A67EE877AC1ED027A10BD00BFD6
:101FB800000402404D010020F00000204C010020E8
:101FC800E10E0008500100200C0000206C010020E8
:101FD80010B582B0002401940D4B1A6B42F48002B4
:101FE8001A631B6B03F480030193019B224621466D
:101FF8003820FFF7DDFD3820FFF7EAFD22462146AD
:102008003B20FFF7D5FD3B20FFF7E2FD02B010BDF6
:1020180000380240DFF834D0FFF758FE0C480D496D
:102028000D4A002302E0D458C4500433C4188C422B
:10203800F9D30A4A0A4C002301E013600432A24291
:10204800FBD3FEF7EFF8FEF7A5F970470000022072
:102058000000002014000020502300081400002075
:1020680078010020FEE72DE9F04786468C460846B1
:10207800089E154674461946002B40F0C2808542DA
:10208800B2FA82F245D94AB1C2F1200300FA02FC41
:102098002EFA03F3954043EA0C0C94404FEA154E90
:1020A800A8B2BCFBFEF8230C0EFB18CC08FB00F909
:1020B80043EA0C43994528D9EB1808F1FF3704D2B5
:1020C800994502D9A8F102072B44A3EB0903A4B24E
:1020D800B3FBFEFC0EFB1C330CFB00F044EA03448C
:1020E800A04214D92C190CF1FF3304D2A04202D912
:1020F800ACF102032C44241A43EA07401EB1D44031
:10210800002334607360BDE8F0874746DDE7634627
:10211800F1E792BB431B01214FEA154EAFB2B3FB67
:10212800FEFC200C0EFB1C330CFB07F840EA0343B3
:10213800984562D9EB180CF1FF3004D2984502D9C2
:10214800ACF102002B44A3EB0803A4B2B3FBFEFCE2
:102158000EFB1C330CFB07F744EA0344A7424ED995
:102168002C190CF1FF3304D2A74202D9ACF10203B7
:102178002C44E41B43EA0040C0E7C2F1200320FAE4
:1021880003F1954090402EFA03F303434FEA154EAE
:10219800AFB2B1FBFEFC0EFB1C10190C0CFB07F8D0
:1021A80041EA0041884504FA02F422D969180CF181
:1021B800FF3004D2884502D9ACF102002944A1EBD2
:1021C80008019BB2B1FBFEFC0EFB1C110CFB07F7D0
:1021D80043EA01439F420ED9EB180CF1FF3104D2B8
:1021E8009F4202D9ACF102012B44DB1B41EA0041BA
:1021F80092E76046E3E76146F7E76046A3E7634690
:10220800B7E7834206D916B9002108467BE7C6E935
:1022180000E0F9E7B3FA83F78FB9834201D3724537
:1022280008D8BEEB020460EB030301209C461EB9EC
:10223800002168E73846FAE7C6E9004CF8E7C7F135
:10224800200CBB4022FA0CF41C432EFA0CF120FAA5
:102258000CF3B84001434FEA14490EFA07F5B3FBF3
:10226800F9F81FFA84FE09FB18300B0C08FB0EFA6C
:1022780043EA00439A4502FA07F240D9E31808F105
:10228800FF3004D29A4502D9A8F102002344A3EBF7
:102298000A0389B2B3FBF9F809FB183308FB0EFEF1
:1022A80041EA03418E452CD9611808F1FF3304D265
:1022B8008E4502D9A8F10203214443EA0040A0FB5D
:1022C8000298A1EB0E014145CE46434602D306D102
:1022D8004D4504D2B9EB020E68EB04030138002E19
:1022E800A6D0B5EB0E0261EB030101FA0CFC22FA51
:1022F80007F34CEA0303F940C6E9003198E7404682
:10230800C5E74346D9E70000F8B500BFF8BC08BCEC
:102318009E467047F8B500BFF8BC08BC9E4670479B
:10232800000610160006101600000000000000004D
:08233800010203040607080975
:082340002EFDFF7F01000000EB
:04234800D5020008B2
:04234C00B1020008D2
:1023500001000000100000000024F40058A08B3A97
:04236000E741EB3A2C
:040000050800201DB2
:00000001FF
