:020000040800F2
:1000000000000220394600082106000823060008E7
:100010002506000827060008290600080000000041
:100020000000000000000000000000009136000801
:100030002B06000800000000313700082D060008DC
:100040008946000889460008894600088946000854
:100050008946000889460008894600088946000844
:100060008946000889460008894600088946000834
:10007000450600088946000855060008894600081C
:100080008946000889460008894600088946000814
:100090006506000889460008894600088946000868
:1000A00089460008894600088946000889460008F4
:1000B00089460008894600088946000889460008E4
:1000C00089460008894600088946000889460008D4
:1000D0008946000889460008894600087506000818
:1000E00089460008894600088946000889460008B4
:1000F00089460008894600088946000889460008A4
:100100008946000889460008894600088946000893
:100110008946000889460008894600088946000883
:100120008946000889460008894600088946000873
:100130008946000889460008894600088946000863
:100140008946000889460008894600088946000853
:100150008946000889460008894600088946000843
:100160008946000889460008894600088946000833
:1001700089460008894600088946000800000000FA
:080180008946000889460008C9
:10019000830730B547D0541E002A3ED0CAB203466A
:1001A00001E0013C39D303F8012B9D07F9D1032C61
:1001B0002CD9CDB205EB05250F2C05EB054535D91E
:1001C000A4F1100222F00F0C03F1100EE6444FEAE6
:1001D000121C1A46156055609560D5601032724544
:1001E000F8D10CF1010214F00C0F03EB021204F031
:1001F0000F0C13D0ACF1040323F0030304331344B6
:1002000042F8045B9A42FBD10CF003042CB1C9B252
:100210001C4403F8011B9C42FBD130BD64461346CD
:10022000002CF4D1F9E703461446C0E71A46A44669
:10023000E0E700BF70B50F4B0F4DAB42A3EB0506D7
:1002400007D0B610002455F8043B01349847A64265
:10025000F9D804F06BFB094D094B5E1BAB424FEA2A
:10026000A60606D0002455F8043B01349847A64260
:10027000F9D870BDC0490008C0490008C04900084D
:10028000C4490008844641EA000313F003036DD11A
:10029000403A41D351F8043B40F8043B51F8043B49
:1002A00040F8043B51F8043B40F8043B51F8043B50
:1002B00040F8043B51F8043B40F8043B51F8043B40
:1002C00040F8043B51F8043B40F8043B51F8043B30
:1002D00040F8043B51F8043B40F8043B51F8043B20
:1002E00040F8043B51F8043B40F8043B51F8043B10
:1002F00040F8043B51F8043B40F8043B51F8043B00
:1003000040F8043B51F8043B40F8043B51F8043BEF
:1003100040F8043B403ABDD2303211D351F8043B8F
:1003200040F8043B51F8043B40F8043B51F8043BCF
:1003300040F8043B51F8043B40F8043B103AEDD23E
:100340000C3205D351F8043B40F8043B043AF9D28F
:10035000043208D0D2071CBF11F8013B00F8013B62
:1003600001D30B8803806046704700BF082A13D36F
:100370008B078DD010F003038AD0C3F10403D21A87
:10038000DB071CBF11F8013B00F8013B80D331F8BB
:10039000023B20F8023B7BE7043AD9D3013A11F83B
:1003A000013B00F8013BF9D20B7803704B784370A6
:1003B0008B7883706046704753B94AB9002908BFEB
:1003C00000281CBF4FF0FF314FF0FF3000F00CB899
:1003D000ADF1080C6DE904CE04F057F9DDF804E046
:1003E000DDE9022304B07047704700BF10B5054C2B
:1003F000237833B9044B13B10448AFF300800123D1
:10040000237010BD10000020000000002C490008DF
:1004100008B5034B1BB103490348AFF3008008BD87
:1004200000000000140000202C49000872B6FEE70E
:1004300000B595B03022002108A8FFF7A9FE0023DF
:10044000039304930593069307930193204A116C39
:1004500041F080511164126C02F080520192019AB5
:1004600002931C4B1A6842F480421A601B6803F422
:1004700080430293029B012308934FF48033099336
:1004800002230E934FF480020F9206221092A822AC
:10049000119212930423139308A800F0F5FC98B965
:1004A0000F23039302230493002305934FF4A053D7
:1004B00006934FF480530793052103A800F034FFFF
:1004C00020B915B05DF804FBFFF7B0FFFFF7AEFFF2
:1004D000003802400070004008B501F0ABFBFFF7A8
:1004E000A7FF00F00FF803F039FA00F03BF803F033
:1004F00057FA04F063F802F09BFE01F0D7FB02F01C
:10050000A9FEFEE784B000220092154B196B41F062
:1005100001011963196B01F0010100910099019229
:10052000196B41F008011963196B01F00801019181
:1005300001990292196B41F004011963196B01F0E2
:1005400004010291029903921A6B42F080021A632D
:100550001B6B03F080030393039B04B0704700BF41
:100560000038024008B50D480D4B03600623436078
:1005700000238360C3604FF4003202614FF4001225
:100580004261037643768376C3760377437700F040
:100590009BF800B908BDFFF749FFFBE72C000020DE
:1005A0000064004010B588B00023039304930593C2
:1005B000069307930268184B9A4201D008B010BD09
:1005C0000024019403F5EA331A6C42F000721A64B5
:1005D0001A6C02F000720192019A02941A6B42F0B6
:1005E00008021A631B6B03F008030293029B0323A8
:1005F00003930222049206930923079303A9074851
:1006000000F068FF22460521142001F0C5FA1420ED
:1006100001F0D2FAD2E700BF00640040000C0240B3
:10062000FEE7FEE7FEE7FEE7FEE7704708B501F0EC
:100630001BFB02F07BFB012800D108BD03F0AAF8E8
:10064000FBE7000008B5024801F064F908BD00BFEF
:100650000C4A002008B5024801F05CF908BD00BF53
:10066000AC49002008B5024800F0E6FA08BD00BF1A
:100670002C00002008B5024803F0D0FB08BD00BFE5
:100680006C4A002000B583B0002200920D4B596CDB
:1006900041F480415964596C01F480410091009902
:1006A0000192196C41F0805119641B6C03F0805366
:1006B0000193019B0F216FF0010001F06DFA03B06F
:1006C0005DF804FB00380240002800F0A18038B536
:1006D000044690F82030D3B12268136843F0010338
:1006E000136001F0CDFA054623685A6812F0010F35
:1006F00010D101F0C5FA401B0A28F5D9636A43F40A
:1007000000336362052384F82030012038BDFFF7F1
:1007100049FFE1E71A6822F002021A6001F0B0FA1C
:10072000054623685A6812F0020F0DD001F0A8FAAE
:10073000401B0A28F5D9636A43F40033636205233A
:1007400084F820300120E1E7227E012A3DD01A689A
:1007500022F080021A60637E012B3BD0226813686E
:1007600023F040031360A37E012B39D02268136865
:1007700023F020031360E37E012B37D02268136837
:1007800043F010031360237F012B35D022681368D8
:1007900023F008031360637F012B33D022681368B2
:1007A00023F004031360A368E26813432269134330
:1007B000626913436268013A21681343CB610020E8
:1007C0006062012384F82030A0E71A6842F08002BA
:1007D0001A60C0E72268136843F040031360C2E761
:1007E0002268136843F020031360C4E7226813688B
:1007F00023F010031360C6E72268136843F0080370
:100800001360C8E72268136843F004031360CAE763
:100810000120704790F82030013BDBB2012B05D955
:10082000436A43F4802343620120704730B5464B4E
:10083000D3F8002242F00102C3F80022D3F80022CC
:1008400022F47C52C3F80022D3F80022486A42EA1C
:100850000022C3F800224A6902F01F02012000FAB8
:1008600002F2D3F81C026FEA020C20EA0200C3F87D
:100870001C02CB69C3B9344BD3F80C020CEA00005C
:10088000C3F80C028C884869CD6844EA05444830B6
:1008900043F830408C68088840EA04404C6904F111
:1008A000480E03EBCE035860CB69012B1ED08B6939
:1008B000002B33D12448D0F804320CEA0303C0F8EB
:1008C00004320B698BBB2048D0F814320CEA0303C6
:1008D000C0F814320B6A012B2ED01B4AD2F800321A
:1008E00023F00103C2F80032002030BD164BD3F8CC
:1008F0000C021043C3F80C028C8848690D6844EA66
:100900000544483043F8304088894C698D6840EA96
:100910000540483403EBC4035860C8E70A48D0F8E0
:1009200004321343C0F80432CBE70748D0F814323E
:100930001343C0F81432CDE70349D1F81C321343F6
:10094000C1F81C32C9E700BF0064004070B504461E
:1009500090F82050EDB2012D06D0436A43F40023F5
:1009600043620125284670BD022380F820300268CA
:10097000136823F00103136001F082F9064623682F
:100980005B6813F0010F0CD001F07AF9831B0A2B7E
:10099000F5D9636A43F400336362052384F8203099
:1009A000E0E700256562DDE730B590F820C0046817
:1009B000A4680CF1FF3C5FFA8CFCBCF1010F62D81B
:1009C00014F0E05F59D0C4F3016C012404FA0CF474
:1009D0001C608B68002B3DD10D68CB68046843EA2E
:1009E00045550CF118031B01E55003680C690CF127
:1009F000180E03EB0E135C600B7D012B35D0D17903
:100A000093791B0443EA0163517943EA0123147982
:100A10000168234301EB0C11C1F88C31D178937834
:100A20001B0443EA0163517843EA01231178026809
:100A30000B4302EB0C12C2F8883102680CF1180C5F
:100A40004FEA0C1C52F80C3043F0010342F80C3012
:100A500000201DE04C6843EAC403CC6823430CF13A
:100A60001804240105682B51BFE7036803EB0E133C
:100A7000596841F480715960C1E7436A43F4001337
:100A80004362012004E0436A43F48023436201206F
:100A900030BD90F820C00CF1FF3C5FFA8CFCBCF13B
:100AA000010F00F2A58030B451B90468E46814F075
:100AB000030F10D1436A43F40013436201207EE028
:100AC0000468246914F0030F05D1436A43F400134A
:100AD0004362012073E0056801F11B0424012C59D5
:100AE00004F004049460002C6BD1056801F11B0430
:100AF00024012C59640D1460046801F11B0C4FEAA9
:100B00000C1C54F80C4004F00204D4600468A444A3
:100B1000DCF8045015F0080F5BD008241461046859
:100B200001F11B0C04EB0C146468C4F307249461FA
:100B3000046804EB0C146468240C5461026802EB32
:100B40000112D2F8B8211A70026802EB0112D2F831
:100B5000B821C2F307225A70026802EB0112D2F8E0
:100B6000B821C2F307429A70026802EB0112D2F870
:100B7000B821120EDA70026802EB0112D2F8BC2121
:100B80001A71026802EB0112D2F8BC21C2F30722EB
:100B90005A71026802EB0112D2F8BC21C2F307427B
:100BA0009A71026802EB0112D2F8BC21120EDA71BE
:100BB000C1B90268D36843F02003D360002030BC81
:100BC0007047056801F11B0424012C59E4085460A6
:100BD00092E701F11B0504EB0514646804F00F04AF
:100BE00014619CE70268136943F020031361E5E791
:100BF000436A43F4802343620120704790F8203019
:100C0000013BDBB2012B05D9436A43F480234362E5
:100C100001207047026853690B43536100207047FD
:100C2000704770477047704770477047704770470C
:100C300070477047704770472DE9F84F05460368C5
:100C40005C69D3F804809F68D3F80CA0D3F81090A7
:100C5000D3F818B014F001063BD017F0010616D0F7
:100C600001229A6017F0020F08D117F0040F0CD17F
:100C700017F0080606D04FF4805608E0FFF7D0FFC3
:100C8000002604E0FFF7CFFF01E04FF4006617F401
:100C9000807F0DD02B684FF480729A6017F4007F2C
:100CA00040F0968017F4806F00F0968046F400566E
:100CB00017F4803F0DD02B684FF480329A6017F400
:100CC000003F40F0938017F4802F00F0938046F4AB
:100CD000004614F0080F07D01AF0100F04D046F4A5
:100CE00000762B681022DA6014F0040F03D01AF09B
:100CF000080F40F0898014F0020F05D02B68DB68E4
:100D000013F0030F40F0878014F0400F07D019F064
:100D1000100F04D046F480662B6810221A6114F07C
:100D2000200F02D019F0080F79D114F0100F04D061
:100D30002B681B6913F0030F78D114F4003F02D025
:100D400018F0100F76D114F4803F02D018F0080F7D
:100D500077D114F4004F37D018F0040F31D014F4C9
:100D6000807F04D01BF0010F01D046F0010614F47F
:100D7000007F04D01BF0020F01D046F0020614F4ED
:100D8000806F04D01BF0040F01D046F0040614F469
:100D9000006F16D01BF0700B13D0BBF1400F66D064
:100DA00056D8BBF1200F5CD0BBF1300F5CD0BBF14B
:100DB000100F01D146F008062A68936923F07003EA
:100DC00093612B6804225A60002E56D1BDE8F88F3B
:100DD0002846FFF726FF6BE717F4006F02D046F4B2
:100DE000804665E72846FFF71FFF61E72846FFF7C3
:100DF00019FF6EE717F4002F02D046F4803668E73B
:100E00002846FFF712FF64E72B680822DA602846BD
:100E1000FFF70CFF6FE7284603F056FB74E72B68DB
:100E200008221A612846FFF703FF7EE72846FFF7EE
:100E3000FEFE82E72B6810225A602846FFF7F9FE73
:100E400081E72B6808225A602846FFF7F3FE80E707
:100E5000BBF1500F0ED0BBF1600FADD146F48076E0
:100E6000AAE746F01006A7E746F02006A4E746F0FA
:100E70004006A1E746F080069EE76B6A33436B624B
:100E80002846FFF7D8FEA1E7002800F0E08170B502
:100E900082B00446036813F0010F3BD09F4B9B6860
:100EA00003F00C03042B2CD09C4B9B6803F00C0329
:100EB000082B21D06368B3F5803F4FD0B3F5A02F46
:100EC00052D0964B1A6822F480321A601A6822F4C3
:100ED00080221A606368002B50D000F0D1FE0546D6
:100EE0008E4B1B6813F4003F14D100F0C9FE401B69
:100EF0006428F5D90320B1E1884B5B6813F4800FB7
:100F0000D8D0864B1B6813F4003F03D06368002BD6
:100F100000F09F81236813F0020F54D07F4B9B6831
:100F200013F00C0F3ED07D4B9B6803F00C03082B95
:100F300033D0E368002B68D0794B01221A6000F0AF
:100F40009FFE0546754B1B6813F0020F54D100F04D
:100F500097FE401B0228F5D903207FE16F4A1368F2
:100F600043F480331360B5E76C4B1A6842F4802277
:100F70001A601A6842F480321A60ABE700F080FE13
:100F80000546664B1B6813F4003FC3D000F078FEA3
:100F9000401B6428F5D9032060E1604B5B6813F4C3
:100FA000800FC6D15D4B1B6813F0020F03D0E368BE
:100FB000012B40F05081594A136823F0F80321694E
:100FC00043EAC1031360236813F0080F42D063693A
:100FD0006BB3534B0122C3F8802E00F051FE05463F
:100FE0004E4B5B6F13F0020F34D100F049FE401BF3
:100FF0000228F5D9032031E1484A136823F0F803A9
:10100000216943EAC1031360DDE7454B00221A6002
:1010100000F036FE0546414B1B6813F0020FD2D09C
:1010200000F02EFE401B0228F5D9032016E13C4BB0
:101030000022C3F8802E00F023FE0546374B5B6F7D
:1010400013F0020F06D000F01BFE401B0228F5D95A
:10105000032003E1236813F0040F77D02F4B1B6CA0
:1010600013F0805F33D1002301932C4B1A6C42F0B4
:1010700080521A641B6C03F080530193019B01257D
:10108000284B1B6813F4807F23D0A368012B34D036
:10109000052B38D0214B1A6F22F001021A671A6F04
:1010A00022F004021A67A368002B3DD000F0E8FD8F
:1010B00006461A4B1B6F13F0020F46D100F0E0FDFD
:1010C000801B41F288339842F3D90320C6E0002503
:1010D000D6E7144A136843F48073136000F0D0FD20
:1010E0000646104B1B6813F4807FCED100F0C8FD7C
:1010F000801B0228F5D90320B0E0084A136F43F0A3
:1011000001031367CFE7054B1A6F42F004021A6719
:101110001A6F42F001021A67C5E700BF00380240AB
:10112000000047420070004000F0AAFD0646524B06
:101130001B6F13F0020F08D000F0A2FD801B41F2DC
:1011400088339842F3D9032088E0EDB9A369002BD6
:1011500000F08380484A926802F00C02082A51D0BD
:10116000022B17D0454B00221A6600F089FD044679
:10117000414B1B6813F0007F42D000F081FD001B43
:101180000228F5D9032069E03B4A136C23F0805311
:101190001364DBE7394B00221A6600F071FD054647
:1011A000354B1B6813F0007F06D000F069FD401B33
:1011B0000228F5D9032051E0E369226A1343626AE9
:1011C00043EA8213A26A5208013A43EA0243E26AFE
:1011D00043EA0263284A5360284B01221A6600F052
:1011E0004FFD0446244B1B6813F0007F06D100F02E
:1011F00047FD001B0228F5D903202FE000202DE039
:1012000000202BE0012B2BD01B4B5B6803F48001EB
:10121000E269914226D103F03F02216A8A4223D13A
:10122000616A47F6C0721A40B2EB811F1ED103F407
:101230004031A26A5208013AB1EB024F18D103F0D3
:101240007063E26AB3EB026F14D1002006E0012064
:101250007047012002E0012000E0002002B070BDD4
:101260000120FBE70120F9E70120F7E70120F5E77E
:101270000120F3E70120F1E7003802400000474277
:1012800008B5264B9B6803F00C03042B41D0082BB8
:1012900041D1224B5A6802F03F025B6813F4800F81
:1012A00012D01E4B5968C1F388111D480023A1FBC1
:1012B0000001FFF781F8194B5B68C3F30143013369
:1012C0005B00B0FBF3F008BD144B5868C0F3881006
:1012D0004FEA401CBCEB000C6EEB0E0E4FEA8E1377
:1012E00043EA9C634FEA8C11B1EB0C0163EB0E03F4
:1012F000DB0043EA5173C90011EB000C43F100031A
:10130000990200234FEA8C2041EA9C51FFF754F8E0
:10131000D1E70348D7E70348D5E700BF00380240CC
:10132000001BB7000024F400002800F09B8070B57B
:101330000D4604464F4B1B6803F007038B4208D24F
:10134000CBB24C4A1370136803F007038B4240F092
:101350008B80236813F0020F17D013F0040F04D012
:10136000454A936843F4E0539360236813F0080FF1
:1013700004D0414A936843F4604393603E4A9368C3
:1013800023F0F003A1680B439360236813F0010F6F
:1013900032D06368012B21D09A1E012A25D9364A02
:1013A000126812F0020F61D033498A6822F00302FA
:1013B00013438B6000F064FC06462F4B9B6803F0E0
:1013C0000C036268B3EB820F16D000F059FC801B4F
:1013D00041F288339842F0D9032042E0264A12684D
:1013E00012F4003FE0D101203BE0234A126812F0E2
:1013F000007FD9D1012034E01E4B1B6803F00703A6
:10140000AB4207D9EAB21B4B1A701B6803F0070303
:10141000AB422DD1236813F0040F06D0164A93680F
:1014200023F4E053E1680B439360236813F0080F43
:1014300007D0114A936823F46043216943EAC1034A
:101440009360FFF71DFF0C4B9B68C3F303130B4A1C
:10145000D35CD8400A4B18600A4B186800F0C4FBF4
:10146000002070BD012070470120FAE70120F8E755
:101470000120F6E7003C02400038024054490008D1
:101480000800002004000020014B1868704700BFCE
:101490000800002008B5FFF7F7FF044B9B68C3F373
:1014A0008223034AD35CD84008BD00BF0038024005
:1014B0004C49000808B5FFF7E7FF044B9B68C3F3EE
:1014C0004233034AD35CD84008BD00BF0038024015
:1014D0004C49000800230F2B00F2E98070B582B060
:1014E00065E085684FEA430E032404FA0EF425EA0A
:1014F0000405CC6804FA0EF42C438460446824EAA2
:1015000002044A68C2F300129A40224342605CE03F
:10151000DC08083450F8242003F00705AD004FF034
:101520000F0E0EFA05FE22EA0E0E0A69AA4042EAE2
:101530000E0240F824205CE0072200E0002202FABC
:101540000EF22A4302345A4D45F82420594A946831
:101550006FEA0C0224EA0C054E6816F4801F01D0D5
:101560004CEA0405534CA560E46802EA04054E68A1
:1015700016F4001F01D04CEA04054E4CE560646887
:1015800002EA04054E6816F4003F01D04CEA040557
:10159000484C6560246822404D6815F4803F01D0B6
:1015A0004CEA0402434C226001330F2B7DD8012208
:1015B0009A400C6804EA020C32EA0404F4D14C6844
:1015C00004F00304013C012C8BD94A6802F00302A9
:1015D000032A09D0C4685D000322AA4024EA020459
:1015E0008A68AA402243C2604A6802F00302022AC3
:1015F0008ED004684FEA430E032202FA0EF224EA68
:1016000002044A6802F0030202FA0EF22243026068
:101610004A6812F4403FC7D000220192264A546C17
:1016200044F480445464526C02F480420192019A62
:101630009C08A51C1E4A52F8255003F0030E4FEAE1
:101640008E0E0F2202FA0EF225EA02051B4A904284
:101650003FF474AF02F5806290421AD002F58062C6
:10166000904218D002F58062904216D002F5806256
:10167000904214D002F58062904212D002F580624E
:10168000904210D002F5806290423FF455AF08229C
:1016900055E7012253E7022251E703224FE70422D4
:1016A0004DE705224BE7062249E702B070BD7047BF
:1016B00000380140003C0140003802400000024078
:1016C00010B40368D9B210390A4AA2FB01421209C8
:1016D000094CA25CC2655F2907D96FF30903043383
:1016E0008365806D5DF8044B70476FF30903836574
:1016F000F7E700BFABAAAAAA44490008836A826937
:1017000092B9012B0AD0022B02D00BB100207047F6
:10171000C36A13F0807F28D100207047C36AB3F1F9
:10172000C07F24D000207047B2F5005F09D0022BA3
:1017300025D9032B25D1C36A13F0807F23D1002044
:101740007047032B03D8DFE803F01404140A0020C9
:101750007047C36A13F0807F0DD100207047C36AC1
:10176000B3F1C07F09D000207047012070470120ED
:101770007047012070470120704701207047012009
:1017800070470020704701207047000070B5044684
:1017900000F076FA002C5BD00546022384F8353041
:1017A000002384F834302268136823F001031360A7
:1017B00023681A6812F0010F0AD000F061FA431B87
:1017C000052BF5D920236365032084F8350070BD0F
:1017D0001A68204911406268A0680243E068024329
:1017E0002069024360690243A0690243E069024341
:1017F000206A02430A43616A04291ED01A602668DF
:10180000756925F00705636A1D43042B07D1A36A98
:101810001D43E36A1BB12046FFF770FF90B9756165
:101820002046FFF74DFFE26D3F2393408360002089
:101830006065012384F83530C9E7E16A206B014314
:101840000A43DBE740236365012084F83500BEE7E7
:101850000120BCE73F8010F070B50446866D00F0B3
:101860000FFA94F83530DBB2022B06D08023636583
:10187000002384F83430012070BD054622681368C7
:1018800023F0160313602268536923F08003536129
:10189000236CE3B12268136823F008031360226805
:1018A000136823F00103136023681B6813F0010F12
:1018B00011D000F0E5F9431B052BF5D92023636512
:1018C000032084F83500002384F83430D4E7A36C77
:1018D000002BDFD1E3E7E26D3F239340B3600123A8
:1018E00084F83530002084F83400C5E790F83530AE
:1018F000DBB2022B03D08023436501207047052310
:1019000080F835300268136823F00103136000206B
:1019100070470000F0B583B0044600230193724B7A
:101920001D68724BA3FB0535AD0A876D3E68C26D1D
:1019300008239340334210D003681A6812F0040F52
:101940000BD01A6822F004021A60C26D082393407B
:10195000BB60436D43F001034365E26D0123934097
:10196000334209D02268526912F0800F04D0BB6064
:10197000636D43F002036365E26D042393403342D9
:1019800009D02268126812F0020F04D0BB60636DA8
:1019900043F004036365E26D10239340334224D087
:1019A0002268126812F0080F1FD0BB6023681A6803
:1019B00012F4802F0DD01B6813F4002F04D1236C78
:1019C0009BB12046984710E0A36C73B1204698471E
:1019D0000BE01A6812F4807F03D11A6822F0080223
:1019E0001A60236C0BB120469847E26D2023934088
:1019F000334255D02268126812F0100F50D0BB60ED
:101A000094F83530DBB2052B0ED023681A6812F437
:101A1000802F33D01B6813F4002F2AD1636C002B66
:101A20003ED0204698473BE02268136823F0160317
:101A300013602268536923F080035361236CA3B1C0
:101A40002268136823F008031360E26D3F2393407C
:101A5000BB60012384F83530002384F83430236DD3
:101A6000002B3FD0204698473CE0A36C002BE7D1E9
:101A7000EBE7E36BA3B12046984711E01A6812F434
:101A8000807F09D11A6822F010021A60012384F8BD
:101A90003530002384F83430E36B0BB1204698478F
:101AA000636DFBB1636D13F0010F17D0052384F84C
:101AB00035302268136823F001031360019B013362
:101AC0000193AB4204D823681B6813F0010FF5D1D2
:101AD000012384F83530002384F83430E36C0BB1F3
:101AE0002046984703B0F0BD08000020B5814E1B8A
:101AF000002807DB00F01F02400901239340024A3F
:101B000042F82030704700BF00E100E0002808DB09
:101B10000901C9B200F1604000F5614080F800138E
:101B2000704700F00F000901C9B2014B195470470A
:101B300014ED00E000B500F00700C0F1070CBCF1A7
:101B4000040F28BF4FF0040C031D062B0FD9C31E32
:101B50004FF0FF3E0EFA0CF021EA000199400EFA18
:101B600003FE22EA0E0241EA02005DF804FB0023B4
:101B7000EEE70000074AD36823F4E0631B041B0C64
:101B8000000200F4E060034343F0BF6343F400331A
:101B9000D360704700ED00E010B50446054BD868EF
:101BA000C0F30220FFF7C6FF01462046FFF7AEFF55
:101BB00010BD00BF00ED00E008B5FFF799FF08BDBC
:101BC0000138B0F1807F0BD24FF0E0235861054A15
:101BD000F02182F823100020986107221A617047D3
:101BE0000120704700ED00E010B504460E4B1A7856
:101BF0004FF47A73B3FBF2F30C4A1068B0FBF3F0C6
:101C0000FFF7DEFF68B90F2C01D901200AE000229E
:101C100021464FF0FF30FFF7BFFF054B1C6000204F
:101C200000E0012010BD00BF0000002008000020DF
:101C30000400002008B50B4B1A6842F400721A60C9
:101C40001A6842F480621A601A6842F480721A605C
:101C50000320FFF78FFF0F20FFF7C6FFFEF712FDEF
:101C6000002008BD003C0240034A1168034B1B786A
:101C70000B441360704700BF540000200000002098
:101C8000014B1868704700BF54000020034AD2F887
:101C9000883043F47003C2F88830704700ED00E0EC
:101CA00008B5012001F050FBFBE7000008B5044A2D
:101CB0000021044801F0EAFA034B186008BD00BF98
:101CC00094490008A11C00085800002000F10803F6
:101CD00043604FF0FF328260C36003610023036002
:101CE000704700230361704743684B609A688A60BD
:101CF000516099600861036801330360704730B434
:101D00000D68B5F1FF3F11D000F108031C465B6878
:101D10001A68AA42FAD963684B6099608C60616066
:101D2000086103680133036030BC70470469F2E75F
:101D30000369416882688A60416851605A688242DA
:101D400006D0002202611A68013A1A6018687047CA
:101D500082685A60F5E710B5044601F0ABFCA26B4F
:101D6000E36B9A4204D0002401F0C6FC204610BD6B
:101D70000124F9E710B5044601F09CFCA36B23B9DC
:101D8000012401F0B9FC204610BD0024F9E770B52C
:101D900004461546866B026C5AB903681BB10020D5
:101DA0000136A66370BD806800F0D0FF0023A360F9
:101DB000F6E76DB94068FEF765FA6368226C134474
:101DC0006360A268934219D3236863602846E7E7FB
:101DD000C068FEF757FAE368226C51429B1AE36031
:101DE0002268934202D2A3680B44E360022D01D023
:101DF0000020D5E726B1013E0020D1E72846CFE7F5
:101E00000020CDE70346026C6AB110B50846D968D8
:101E10001144D9609C68A14201D31968D960D9687E
:101E2000FEF730FA10BD704738B5054601F042FCA8
:101E300095F8454064B201E0013C64B2002C0ADD33
:101E40006B6A43B105F1240000F0D6FE0028F3D000
:101E500000F066FFF0E7FF2385F8453001F04CFC09
:101E600001F028FC95F8444064B201E0013C64B202
:101E7000002C0ADD2B6943B105F1100000F0BCFE17
:101E80000028F3D000F04CFFF0E7FF2385F8443042
:101E900001F032FC38BD38B5E0B10D46044601F022
:101EA00009FC2368E26B216C01FB0230A06000207A
:101EB000A0636360013A02FB0133E360FF2384F80F
:101EC000443084F84530FDB9236963B901F014FC4E
:101ED000012038BD4FF0500383F31188BFF36F8F9B
:101EE000BFF34F8FFEE704F1100000F085FE0028DD
:101EF000ECD04FF0E0234FF08052C3F8042DBFF335
:101F00004F8FBFF36F8FE1E704F11000FFF7DEFEA4
:101F100004F12400FFF7DAFED8E738B51D46049C2B
:101F20000B4649B92460E063236401212046FFF792
:101F3000B2FF84F84C5038BD2260F4E740B94FF04E
:101F4000500383F31188BFF36F8FBFF34F8FFEE70A
:101F500010B584B01C46844653B192B189B94FF094
:101F6000500383F31188BFF36F8FBFF34F8FFEE7EA
:101F70004FF0500383F31188BFF36F8FBFF34F8F80
:101F8000FEE76AB150230393039B502B13D04FF00D
:101F9000500383F31188BFF36F8FBFF34F8FFEE7BA
:101FA0000029EFD04FF0500383F31188BFF36F8FF8
:101FB000BFF34F8FFEE7039B012384F84630009464
:101FC0009DF818306046FFF7A8FF204604B010BD0A
:101FD000F0B585B0019288B10F461D460446B1B1F7
:101FE000022D20D1E36B012B1DD04FF0500383F362
:101FF0001188BFF36F8FBFF34F8FFEE74FF0500391
:1020000083F31188BFF36F8FBFF34F8FFEE7036C2D
:10201000002BE5D04FF0500383F31188BFF36F8F8F
:10202000BFF34F8FFEE700F081FE064658B9019BD3
:10203000002B48D04FF0500383F31188BFF36F8F0C
:10204000BFF34F8FFEE700263DE02A463946204683
:10205000FFF79DFE636A7BB948B14FF0E0234FF074
:102060008052C3F8042DBFF34F8FBFF36F8F01F081
:1020700043FB012005B0F0BD04F1240000F0BCFDDD
:102080000028F4D04FF0E0234FF08052C3F8042D25
:10209000BFF34F8FBFF36F8FE9E701F02DFB0020F7
:1020A000E8E702A800F0EEFD012619E0002384F81D
:1020B000443021E0002384F8453023E02046FFF738
:1020C000B3FE00F077FC01F0F5FAA26BE36B9A42E5
:1020D000BBD3022DB9D0019B002BDED0002EE0D067
:1020E00001F00AFB00F0CCFB01F0E4FA94F8442084
:1020F00052B2B2F1FF3FD9D094F8452052B2B2F1BA
:10210000FF3FD7D001F0F8FA01A902A800F0C6FD00
:10211000D8B92046FFF71FFE0028CFD0019904F15F
:10212000100000F035FD2046FFF77EFE00F042FC77
:102130000028C8D14FF0E0234FF08052C3F8042D9F
:10214000BFF34F8FBFF36F8FBDE72046FFF76CFEE5
:1021500000F030FC00208DE72DE9F84390B10F46E8
:1021600016461C460546B1B1022C20D1EB6B012B63
:102170001DD04FF0500383F31188BFF36F8FBFF36F
:102180004F8FFEE74FF0500383F31188BFF36F8F3B
:10219000BFF34F8FFEE7036C002BE5D04FF05003E9
:1021A00083F31188BFF36F8FBFF34F8FFEE701F00A
:1021B000A7FBEFF311884FF0500383F31188BFF3AF
:1021C0006F8FBFF34F8FAA6BEB6B9A4206D3022C33
:1021D00004D0002088F31188BDE8F88395F8459075
:1021E0004FFA89F9AB6B224639462846FFF7CFFDF7
:1021F000B9F1FF3F06D009F101035BB285F8453024
:102200000120E7E76B6A0BB90120E3E705F1240041
:1022100000F0F2FC18B126B101203060DAE70120AD
:10222000D8E70120D6E7F0B585B0019290B10F460E
:102230000446C1B100F07AFD064600BB019B002BAD
:102240005ED04FF0500383F31188BFF36F8FBFF35D
:102250004F8FFEE74FF0500383F31188BFF36F8F6A
:10226000BFF34F8FFEE7036C002BE3D04FF050031A
:1022700083F31188BFF36F8FBFF34F8FFEE7002604
:102280003EE039462046FFF7BDFD013DA5632369C9
:1022900023B901F031FA012005B0F0BD04F11000BE
:1022A00000F0AAFC0028F4D04FF0E0234FF0805259
:1022B000C3F8042DBFF34F8FBFF36F8FE9E701F031
:1022C0001BFA0020E8E702A800F0DCFC012621E070
:1022D000002384F8443029E0002384F845302BE0C3
:1022E0002046FFF7A1FD00F065FB09E02046FFF75F
:1022F0009BFD00F05FFB2046FFF73CFD00283FD12F
:1023000001F0D8F9A56B002DBBD1019B002BD6D0D5
:10231000002ED8D001F0F0F900F0B2FA01F0CAF9BD
:1023200094F844305BB2B3F1FF3FD1D094F845301C
:102330005BB2B3F1FF3FCFD001F0DEF901A902A8F3
:1023400000F0ACFC0028D1D12046FFF713FD002897
:10235000C6D0019904F1240000F01AFC2046FFF7D2
:1023600063FD00F027FB0028CAD14FF0E0234FF0B7
:102370008052C3F8042DBFF34F8FBFF36F8FBFE7B9
:10238000002089E70023072B0CD8074A52F8332096
:102390000AB10133F7E7044A42F8331002EBC302F3
:1023A00050607047704700BF5C00002070B5044665
:1023B0000D46164601F07EF994F844305BB2B3F155
:1023C000FF3F0DD094F845305BB2B3F1FF3F0BD027
:1023D00001F092F9A36B5BB12046FFF725FD70BDBC
:1023E000002384F84430EDE7002384F84530EFE71C
:1023F0003246294604F1240000F0E2FBECE700003D
:10240000084B1B681B6823B9074B4FF0FF321A605B
:102410007047044B1B68DB68DB685A68024B1A6024
:10242000704700BF0C010020A40000202DE9F047F8
:1024300080460D4617469946089EDDF824A00A9C62
:102440009200A521206BFDF7A3FE236B07F18042CC
:10245000013A03EB820727F00707A5B34FF0000C02
:10246000BCF10F0F09D815F80C3004EB0C0282F800
:10247000343013B10CF1010CF2E7002384F843303F
:10248000372E00D93726E662E66400252565201D33
:10249000FFF727FC04F11800FFF723FC2461C6F1C5
:1024A0003806A6616462656584F858504A4641461C
:1024B000384601F0D1F82060BAF1000F01D0CAF817
:1024C0000040BDE8F087002384F83430D8E70000EE
:1024D00038B5002407E004EB840293000E4818444A
:1024E000FFF7F4FB0134372CF5D90C4D2846FFF7E4
:1024F000EDFB0B4C2046FFF7E9FB0A48FFF7E6FB34
:102500000948FFF7E3FB0948FFF7E0FB084B1D60B4
:10251000084B1C6038BD00BF38010020240100209A
:1025200010010020F4000020E0000020C80000207E
:102530000C0100200801002010B5044601F0BAF893
:10254000224A136801331360214B1B685BB1214B96
:102550001B686BB91E4B1B68DA6AE36A9A4207D89C
:102560001B4B1C6004E01A4B1C601368012B29D024
:10257000194A1368013313606364E06A174B1B68E0
:10258000984201D9154B186000EB8000211D144BB7
:1025900003EB8000FFF7A8FB01F0AEF80D4B1B68C2
:1025A0007BB10B4B1B68DA6AE36A9A4209D24FF09F
:1025B000E0234FF08052C3F8042DBFF34F8FBFF3D9
:1025C0006F8F10BDFFF784FFD2E700BFC40000206B
:1025D00098050020B8000020A8000020BC000020C2
:1025E0003801002010B5044690F8593063B1012B32
:1025F00011D0022B0ED04FF0500383F31188BFF39C
:102600006F8FBFF34F8FFEE7006B00F0A9FF2046EE
:1026100000F0A6FF10BD00F0A3FFFBE70F4B1B6807
:10262000D3B110B501F046F80D4BDB68DC68201D16
:10263000FFF77EFB0B4A1368013B1360074A1368E0
:10264000013B136001F058F82046FFF7CBFF034B26
:102650001B68002BE6D110BD704700BFDC000020D6
:10266000E0000020C400002008B5FFF7D7FF074BAB
:102670001B68012BF9D94FF0E0234FF08052C3F8CB
:10268000042DBFF34F8FBFF36F8FEEE738010020AB
:1026900070B504460D46174B1E68174B186804307A
:1026A000FFF746FBB4F1FF3F0DD03444124B1B68DB
:1026B0005C60A64210D9114B18680F4B19680431A1
:1026C000FFF71DFB70BD002DEFD00B4B19680431D7
:1026D0000B48FFF709FBF5E70A4B1868064B19682A
:1026E0000431FFF70CFB084B1B68A342EAD9064BE9
:1026F0001C60E7E7C00000209805002008010020CA
:10270000C80000200C010020A400002030B587B0D4
:102710000B9C7CB10C9DB5B15C250495049D5C2D92
:102720001AD04FF0500383F31188BFF36F8FBFF3BC
:102730004F8FFEE74FF0500383F31188BFF36F8F85
:10274000BFF34F8FFEE74FF0500383F31188BFF3C1
:102750006F8FBFF34F8FFEE7049D0C9D2C63022407
:1027600085F8594000240394029505AC01940A9C15
:102770000094FFF75BFE0C98FFF7DEFE059807B0AC
:1027800030BD2DE9F04385B00746884614461E4605
:10279000900000F063FE08B381465C2000F05EFE0E
:1027A0000546A8B1C0F83090002380F85930039353
:1027B00002900D9B01930C9B0093334622464146A9
:1027C0003846FFF733FE2846FFF7B6FE012007E044
:1027D000484600F0C5FE4FF0FF3001E04FF0FF30FB
:1027E00005B0BDE8F083000010B588B00024059462
:1027F000069407AA06A905A800F0B4FD059B02935C
:10280000069B019300942346079A17491748FFF740
:102810007DFF174B1860C0B100F04CFB012815D1AB
:102820004FF0500383F31188BFF36F8FBFF34F8FC7
:10283000104B4FF0FF321A600F4B01221A600F4B02
:1028400000221A6000F0D0FF03E00020B0F1FF3F4B
:1028500001D008B010BD4FF0500383F31188BFF3CF
:102860006F8FBFF34F8FFEE770490008692600089D
:10287000A0000020A4000020B8000020C00000201C
:10288000024A136801331360704700BF9C000020A8
:10289000014B1868704700BFC0000020F8B53A4BE4
:1028A0001B68002B69D1394B1D6801351D60C5B906
:1028B000374B1B681B6843B14FF0500383F31188FB
:1028C000BFF36F8FBFF34F8FFEE7314A1168314B73
:1028D000186810601960304A136801331360FFF7FD
:1028E0008FFD2E4B1B68AB423DD900272C4B1B683C
:1028F000DB6A03EB83039A002A4B9B58012B00D918
:102900000127294B1B68002B3CD001273AE0012707
:102910001F4B1B681B6843B31D4B1B68DB68DC68DF
:1029200063689D4226D3261D3046FFF701FAA36A4D
:102930001BB104F11800FFF7FBF9E36A1B4A1268A8
:10294000934201D9194A136003EB83039A0031467D
:1029500014481044FFF7C8F9E26A114B1B68DB6AA0
:102960009A42D4D2D4E70027D2E70C4B4FF0FF3283
:102970001A60BBE7094A1360B8E70D4A13680133D0
:10298000136000273846F8BD9C000020C0000020DE
:102990000C01002008010020AC000020A400002051
:1029A0009805002038010020B0000020BC00002065
:1029B000B400002038B5354B1B6843B94FF05003C5
:1029C00083F31188BFF36F8FBFF34F8FFEE700F0E3
:1029D00071FE2E4B1A68013A1A601B68002B4FD10A
:1029E0002B4B1B680BB900244BE00024294B1B68C0
:1029F0001BB3284BDB68DC6804F11800FFF798F97B
:102A0000251D2846FFF794F9E06A234B1B6898427E
:102A100001D9214B186000EB800029461F4B03EBC6
:102A20008000FFF761F9E26A1D4B1B68DB6A9A427E
:102A3000DCD31C4B01221A60D8E70CB1FFF7E0FC95
:102A4000194B1C6884B9174B1C68D4B14FF0E023B4
:102A50004FF08052C3F8042DBFF34F8FBFF36F8F39
:102A600001240EE0013C07D0FFF718FF0028F9D041
:102A70000C4B01221A60F5E70B4B00221A60E2E7CB
:102A8000002400F039FE204638BD00BF9C00002025
:102A9000C4000020F4000020BC0000203801002009
:102AA00098050020B0000020B400002010B5A8B1A7
:102AB0000446104B1B6843B14FF0500383F3118859
:102AC000BFF36F8FBFF34F8FFEE7FFF7D9FE0021F3
:102AD0002046FFF7DDFDFFF76DFF48B94FF0E0231B
:102AE0004FF08052C3F8042DBFF34F8FBFF36F8FA9
:102AF00010BD00BF9C000020204B1B681BB1204B69
:102B000001221A6070471E4B00221A601D4B1B6881
:102B100003EB83018A001C498A585AB90BB1013B67
:102B2000F6E74FF0500383F31188BFF36F8FBFF3C5
:102B30004F8FFEE7084603EB83018A000244516889
:102B40004968516003EB830C4FEA8C02083202445F
:102B500091420BD003EB830291000B4A0A44526866
:102B6000D1680A4A1160074A136070474868624694
:102B70009100054A0A445060ECE700BF9C00002029
:102B8000B0000020BC000020380100209805002083
:102B900058B110B50C46094A11681831FFF7AFF863
:102BA00001212046FFF774FD10BD4FF0500383F361
:102BB0001188BFF36F8FBFF34F8FFEE7980500209A
:102BC00038B570B10D4614460A4A11681831FFF73E
:102BD0008BF80CB14FF0FF3521462846FFF758FD22
:102BE00038BD4FF0500383F31188BFF36F8FBFF3ED
:102BF0004F8FFEE79805002038B5C368DC6824B322
:102C000004F118052846FFF793F8184B1B682BBBF7
:102C1000251D2846FFF78CF8E06A154B1B68984283
:102C200001D9134B186000EB80002946114B03EBD0
:102C30008000FFF759F8E26A0F4B1B68DB6A9A4283
:102C400011D901200D4B186038BD4FF0500383F3AC
:102C50001188BFF36F8FBFF34F8FFEE729460848F7
:102C6000FFF742F8E7E70020EEE700BF9C000020F6
:102C7000BC0000203801002098050020B000002092
:102C8000F4000020034B1B680360034B1B68436088
:102C9000704700BFAC000020C0000020F8B5C8B1EC
:102CA0000C460546F9B100F005FD1B4B19686B6831
:102CB000C81A2268B2F1FF3F26D0184E36682F6836
:102CC000B74201D08B4224D9824215D80023236019
:102CD00001241AE04FF0500383F31188BFF36F8F84
:102CE000BFF34F8FFEE74FF0500383F31188BFF31C
:102CF0006F8FBFF34F8FFEE75B1A134423602846A4
:102D0000FFF7C0FF002400E0002400F0F5FC20469F
:102D1000F8BD0124F9E700BFC0000020AC0000208E
:102D2000014B01221A607047B0000020054B1B6860
:102D300033B1054B1B680BB1002070470220704770
:102D400001207047B80000209C00002000283BD0E4
:102D500038B504461E4B1B68834208D04FF0500321
:102D600083F31188BFF36F8FBFF34F8FFEE7036DBF
:102D700043B94FF0500383F31188BFF36F8FBFF354
:102D80004F8FFEE7013B0365C16AC26C91421DD0C3
:102D90000BB1002038BD051D2846FEF7C9FFE06CC9
:102DA000E062C0F13803A3610A4B1B68984201D965
:102DB000084B186000EB80002946074B03EB8000AE
:102DC000FEF792FF0120E5E7002070470020E1E7D1
:102DD00098050020BC00002038010020064B1A682E
:102DE00013682BB90123036023B9D36818687047AF
:102DF0000023F8E7002070479C06002008B54160DA
:102E0000006191420CD8D21A83699A4201D3012001
:102E100008BD011D094B1868FEF771FF0020F7E798
:102E20009A4201D2994206D2011D054B1868FEF75D
:102E300066FF0020ECE70120EAE700BF98060020CB
:102E40009C06002030B583B000F034FC114B1B68A9
:102E50001BB100F051FC03B030BD0F4D2846FEF70A
:102E600035FF0E4C2046FEF731FF0D4B1D600D4B1C
:102E70001C60002300930C4B0C4A10210A20FFF722
:102E80005DF8044B18600028E3D00949FFF77AFA8F
:102E9000DFE700BF94060020B4060020A006002053
:102EA0009C060020980600209C050020EC050020D0
:102EB0007849000810B588B0FFF7C4FF124B1B68B3
:102EC000CBB100240594069407AA06A905A800F032
:102ED00055FA059B0293069B019302230093234618
:102EE000079A0A490A48FFF711FC0A4B186010B10B
:102EF000012008B010BD4FF0500383F31188BFF3D9
:102F00006F8FBFF34F8FFEE79406002080490008C3
:102F10001932000890060020B8B19C4603461848B4
:102F2000006858B300B585B000910192029305295D
:102F30001CDCFFF7FBFE022810D000231A4669466E
:102F40000F480068FFF744F815E04FF0500383F393
:102F50001188BFF36F8FBFF34F8FFEE70023069AF0
:102F6000694607480068FFF733F804E0002362462B
:102F70006946FFF7F1F805B05DF804FB00207047E3
:102F80009406002070B582B01B4B1B681A6862B3B0
:102F9000DB681E68DC68251D2846FEF7C9FE236A2B
:102FA0002046984794F8283013F0040FECD0A3691A
:102FB00033449E4207D26360246129460E4B186851
:102FC000FEF79DFEE0E7002100910B4632462046C9
:102FD000FFF7A2FF0028D7D14FF0500383F31188E9
:102FE000BFF36F8FBFF34F8FFEE7044A10680249AB
:102FF0000860136002B070BD9C0600209806002097
:1030000038B50546FFF744FC0446074B1B6883426E
:1030100005D800232B60044B1C60204638BDFFF709
:10302000B1FF01232B60F6E78C06002070B582B05B
:1030300006460D4617490968C968CC68201DFEF789
:1030400077FE94F828C01CF0040F08D12CF0010C76
:1030500084F828C0236A2046984702B070BDA16951
:1030600033462A4631442046FFF7C8FE0028F1D0F7
:10307000002100910B4632462046FFF74DFF002805
:10308000E8D14FF0500383F31188BFF36F8FBFF384
:103090004F8FFEE79C06002070B582B006460C46B6
:1030A000FFF7EEFB01A8FFF7ABFF019B33BB054623
:1030B000E4B9B04213D22246711B124B1868FFF7D5
:1030C00075F9FFF777FCD8B94FF0E0234FF0805245
:1030D000C3F8042DBFF34F8FBFF36F8F10E0FFF7DE
:1030E00069FC29463046FFF7A1FF09E0064A12684D
:1030F00012680AB90124DEE71C46DCE7FFF75AFC38
:1031000002B070BD940600209806002010B588B06B
:1031100002E0049B002B0FDA002204A93D4B186843
:10312000FFF781F8002873D0049B002BF1DA079990
:103130000698059B9847ECE7069C636913B1201D30
:10314000FEF7F6FD03A8FFF75BFF049B092BE3D80E
:10315000DFE803F00505053037500505303794F8F2
:10316000283043F0010384F82830059BA16902460A
:1031700019442046FFF742FE0028CDD0236A20469E
:10318000984794F8283013F0040FC5D0A2690021A5
:1031900000910B46059802442046FFF7BDFE00282B
:1031A000BAD14FF0500383F31188BFF36F8FBFF391
:1031B0004F8FFEE794F8283023F0010384F828307D
:1031C000AAE794F8283043F0010384F828300599E1
:1031D000A16131B10346024601442046FFF70EFECD
:1031E0009AE74FF0500383F31188BFF36F8FBFF35B
:1031F0004F8FFEE794F8283013F0020F04D023F02D
:10320000010384F8283087E7204600F0A9F983E716
:1032100008B010BD9406002000B583B001A8FFF7E8
:10322000DDFD0199FFF738FFFFF770FFF6E70000BB
:10323000EFF305832BB9064B186828B901221A60F1
:1032400070476FF0050070474FF0FF30704700BFC8
:10325000800D0020EFF3058373B90A4B1B68012B27
:103260000DD110B50024084BDC77064B02221A6002
:10327000FFF7BAFA204610BD6FF0050070474FF017
:10328000FF307047800D002000ED00E0F0B587B002
:1032900000240594EFF3058474BB68B322B315686A
:1032A000936903B918235C1E372C49D8546814F06D
:1032B000010F47D156696EB14FEA960C94682CB154
:1032C000D7685B2F02D9176907B1C6B92CB14FF087
:1032D000FF340EE04FF0800CF0E7D4688CB914692D
:1032E00094B14FF0FF3404E01546002418234FF04A
:1032F000800C012C0AD0ACB1059807B0F0BD0124B8
:10330000F7E74FF0FF34F4E70024F2E7146992681E
:103310000292019400930B4662462946FFF7F6F9A4
:103320000590E9E705AA019200930B461FFA8CF27B
:103330002946FFF726FA0128DED000230593DBE7B4
:103340000020DAE70020D8E708B5EFF3058333B9AA
:1033500008B9002008BDFFF7A9FB0020FAE76FF0CD
:103360000500F7E7034B0360034B0B6080231360FA
:10337000704700BF240D0020240B0020034B036086
:10338000034B0B604FF4807313607047C80A002032
:10339000C8060020124A12F0070F1ED0D11D21F0DE
:1033A0000701C1F5705313440A460E48026000211C
:1033B00041601344083B23F007030B480360596046
:1033C0001960991A51601360084B1960084B196015
:1033D000084B4FF000421A6070474FF47053E4E717
:1033E000A40D00209C0D0020980D0020900D0020C1
:1033F000940D0020840D0020164B1A461B68834252
:10340000FBD3516802EB010C844509D0416800EB05
:10341000010C634509D00360904219D010607047D9
:103420004068014451601046F0E710B40A4C24682B
:10343000A3420BD05B681944416013681B680360AA
:10344000904200D010605DF8044B70470460F7E7CD
:10345000704700BF9C0D0020980D002038B5044631
:10346000FFF70EFA384B1B68B3B1384B1B681C4290
:1034700050D1002C50D004F1080214F0070F02D0F4
:1034800022F007020832002A55D0314B1B689342C4
:1034900053D330490C6804E0FFF77CFFE5E7214691
:1034A0001C466368934202D22368002BF7D1264B57
:1034B0001B68A34243D00D68083523680B6063681E
:1034C0009B1A102B10D9A01810F0070F08D04FF03E
:1034D000500383F31188BFF36F8FBFF34F8FFEE765
:1034E00043606260FFF788FF626819490B689B1AA6
:1034F0000B60194909688B4201D217490B60134BC5
:103500001B681343636000232360144A136801336C
:10351000136002E0002500E00025FFF74BFA15F0EC
:10352000070F0ED04FF0500383F31188BFF36F8F56
:10353000BFF34F8FFEE70025EFE70025EDE70025FD
:10354000EBE7284638BD00BF980D0020840D002011
:10355000940D00209C0D0020900D00208C0D00206B
:10356000002834D038B50446A0F1080550F8043CD2
:10357000174A1268134208D14FF0500383F31188A1
:10358000BFF36F8FBFF34F8FFEE750F8081C41B1B8
:103590004FF0500383F31188BFF36F8FBFF34F8F4A
:1035A000FEE723EA020340F8043CFFF769F954F808
:1035B000041C084A13680B4413602846FFF71CFFDD
:1035C000054A136801331360FFF7F4F938BD7047FB
:1035D000840D0020940D0020880D002082B000236F
:1035E00001930D4B1B68B3F1FF3F08D04FF0500320
:1035F00083F31188BFF36F8FBFF34F8FFEE74FF058
:10360000500383F31188BFF36F8FBFF34F8F019B7C
:10361000002BFCD002B070470C0000200848006866
:10362000006880F308884FF0000080F3148862B6C9
:1036300061B6BFF34F8FBFF36F8F00DF00BF000095
:1036400008ED00E0DFF80C00016841F47001016052
:103650007047000088ED00E04FF0807340F8043CB4
:1036600021F0010140F8081C054B40F80C3C40F8E3
:10367000202C6FF0020340F8243C4438704700BF10
:10368000DD35000800000000000000000000000020
:10369000074B19680868B0E8F04F80F30988BFF35A
:1036A0006F8F4FF0000080F311887047AFF30080F8
:1036B000980500204FF0500383F31188BFF36F8FFC
:1036C000BFF34F8F0B4A136801331360012B00D0F7
:1036D00070474FF0E023D3F8043D13F0FF0FF7D00D
:1036E0004FF0500383F31188BFF36F8FBFF34F8FF9
:1036F000FEE700BF0C000020094B1B6843B94FF0E8
:10370000500383F31188BFF36F8FBFF34F8FFEE732
:10371000013B034A13600BB983F31188704700BF64
:103720000C0000200000000000000000000000006D
:10373000EFF30980BFF36F8F154B1A681EF0100F5F
:1037400008BF20ED108A20E9F04F10602DE9090034
:103750004FF0500080F31188BFF34F8FBFF36F8F8E
:10376000FFF7CAF94FF0000080F3118809BC19680F
:103770000868B0E8F04F1EF0100F08BFB0EC108AD8
:1037800080F30988BFF36F8F704700BFAFF30080ED
:103790009805002008B54FF0500383F31188BFF35C
:1037A0006F8FBFF34F8FFFF779F828B14FF0E02309
:1037B0004FF08052C3F8042D002383F3118808BD15
:1037C0004FF0E022002313619361054B1B6805490C
:1037D000A1FB03139B09013B53610723136170474E
:1037E00008000020D34D62104FF0E023D3F8002DE5
:1037F0003D4B9A421CD04FF0E023D3F8002D3B4BB9
:103800009A421ED030B583B0394B1A78D2B20192A9
:10381000FF221A701B78DBB28DF803309DF803305D
:1038200003F05003334A1370334B07221A601BE036
:103830004FF0500383F31188BFF36F8FBFF34F8FA7
:10384000FEE74FF0500383F31188BFF36F8FBFF390
:103850004F8FFEE7284A1368013B13609DF8033041
:103860005B00DBB28DF803309DF8033013F0800F5E
:10387000F0D1214B1B68032B08D04FF0500383F38A
:103880001188BFF36F8FBFF34F8FFEE71B021A4AF9
:10389000136003F4E0631360019BDBB2144A1370FE
:1038A0004FF0E024D4F8203D43F47003C4F8203DE9
:1038B000D4F8203D43F07043C4F8203DFFF780FF6B
:1038C00000250E4B1D60FFF7BDFED4F8343F43F0DA
:1038D0004043C4F8343FFFF7A1FEFFF70DF9FFF7AF
:1038E0007DFE284603B030BD71C20F4170C20F414A
:1038F00000E400E0A8490020A44900200C000020BA
:10390000EFF305830F2B0FD9114A9B5CDBB2114AF1
:1039100012789A4208D94FF0500383F31188BFF30D
:103920006F8FBFF34F8FFEE74FF0E023D3F80C3DCE
:1039300003F4E063084A1268934208D94FF0500339
:1039400083F31188BFF36F8FBFF34F8FFEE770478C
:10395000F0E300E0A8490020A449002010B582B09F
:10396000002401940D4B1A6B42F400121A631B6B76
:1039700003F400130193019B224605210C20FEF75E
:103980000BF90C20FEF718F9224605210E20FEF750
:1039900003F90E20FEF710F902B010BD0038024006
:1039A00008B50C480C4B03600C4B43604FF480533C
:1039B00083600023C3604FF4806202610C22426185
:1039C0008361C36100F06EF900B908BDFCF72EFDFC
:1039D000FBE700BF6C4A002000480040A0860100C1
:1039E00030B589B00023039304930593069307939E
:1039F0000268334B9A4201D009B030BD044600251D
:103A0000019503F5F8331A6C42F480221A641A6C9B
:103A100002F480220192019A02951A6B42F004028C
:103A20001A631B6B03F004030293029B4FF4406381
:103A3000039302230493032306930723079303A905
:103A40002048FDF747FD2048204B03604FF00063FE
:103A500043608560C5604FF48063036145618561A3
:103A6000C56105624562FDF791FE18BB164BE36325
:103A70009C631748174B03604FF00063436040237B
:103A800083600023C3604FF48062026143618361FD
:103A9000C36103624362FDF779FE70B90C4BA36307
:103AA0009C63002205212720FEF776F82720FEF7E9
:103AB00083F8A1E7FCF7BAFCD8E7FCF7B7FCEDE721
:103AC00000480040000802400C4A002028600240E4
:103AD000AC49002058600240026802F10C0353E830
:103AE000003F23F490730C3242E800310029F3D1F7
:103AF000026802F1140353E8003F23F0010314327B
:103B000042E800310029F3D1036B012B05D02023BB
:103B100080F84230002303637047026802F10C030F
:103B200053E8003F23F010030C3242E80031002933
:103B3000F3D1ECE790F84130DBB2212B01D0022029
:103B400070478368B3F5805F17D0036A5A1C02621E
:103B50001A7803685A60C38C9BB2013B9BB2C38442
:103B60004BB90268D36823F08003D3600268D3683E
:103B700043F04003D360002070470369002BE4D179
:103B8000036A1B880268C3F308035360036A0233A5
:103B90000362E0E710B504460268136923F440535A
:103BA000C1680B431361836802691A4343691A436E
:103BB000C3691A430168CB6823F4164323F00C034E
:103BC0001343CB600268536923F4407381690B434C
:103BD00053610368314A934206D002F580629342F2
:103BE00002D0FDF757FC01E0FDF764FCE369B3F593
:103BF000004F29D00021031849411B1841F1000151
:103C0000C90041EA5371DB00181863684FEA830268
:103C10004FEA937341F10001FCF7CEFB204AA2FB6F
:103C200000314909642303FB11031B013233A2FB5A
:103C300003235B0903F0F00202EB011203F00F0310
:103C4000216813448B6010BD0023021843EB03016D
:103C5000121841F10001C90041EA5271D200101856
:103C600041F10001626892185B41FCF7A5FB0C4A28
:103C7000A2FB00314909642303FB1103DB0032334B
:103C8000A2FB03235B095A0002F4F87202EB011253
:103C900003F00703216813448B60D4E70010014050
:103CA0001F85EB5160B310B5044690F8413013B353
:103CB000242384F841302268D36823F40053D3606E
:103CC0002046FFF767FF2268136923F490431361CE
:103CD0002268536923F02A0353612268D36843F4AE
:103CE0000053D36000206064202384F8413084F8BE
:103CF0004230606310BD80F84030FFF771FED7E7B7
:103D000001207047704708B50168CA6822F0400278
:103D1000CA60202280F84120FFF7F4FF002008BD90
:103D20007047704708B5806B0023C385C384FFF7D5
:103D3000F8FF08BD90F84230DBB2222B69D18368CE
:103D4000B3F5805F4FD0826AB3F5805F04D0002B5B
:103D500056D10369002B53D103685B681370836AE3
:103D600001338362C38D9BB2013B9BB2C385002BA1
:103D700051D100B583B00268D36823F02003D3602B
:103D80000268D36823F48073D3600268536923F018
:103D900001035361202380F8423000234363036B07
:103DA000012B33D100230363026802F10C0353E8B3
:103DB000003F23F010030C3242E800310029F3D118
:103DC00003681A6812F0100F06D0002201921A68D8
:103DD00001925B680193019B818D00F057FA0020EE
:103DE00003B05DF804FB0269002AACD1826A036863
:103DF0005B68C3F308031380836A02338362B1E70D
:103E000003685B6803F07F031370A8E7FFF788FF80
:103E1000E5E70220704700207047000010B582B02F
:103E2000044602681368D068516913F00F0F09D176
:103E300013F0200F0CD010F0200F09D02046FFF710
:103E400079FF16E011F0010115D110F4907F12D125
:103E5000216B012979D013F0800F03D010F0800F6F
:103E600040F0148113F0400F03D010F0400F40F0E9
:103E7000118102B010BD13F0010F06D010F4807F45
:103E800003D0626C42F00102626413F0040F04D0AC
:103E900019B1626C42F00202626413F0020F04D0A6
:103EA00019B1626C42F00402626413F0080F07D08B
:103EB00010F0200F00D119B1626C42F00802626468
:103EC000626C002AD5D013F0200F02D010F0200F22
:103ED00029D123685B6903F04003626C12F0080F7C
:103EE00000D163B32046FFF7F7FD23685B6913F049
:103EF000400F20D0226802F1140353E8003F23F062
:103F00004003143242E800310029F3D1E36B73B16E
:103F1000624A1A65E06BFDF7E9FC0028A9D0E06B66
:103F2000036D9847A5E72046FFF704FFD1E7204639
:103F3000FFF7F7FE9DE72046FFF7F3FE99E72046DF
:103F4000FFF7EFFE0023636493E713F0100F82D0B6
:103F500010F0100F3FF47FAF00230193136801931B
:103F600053680193019B536913F0400F52D0E26BE9
:103F700013685B689BB2002B3FF47BAFA18D994225
:103F80007FF677AFE385D369B3F5807F37D02268BA
:103F900002F10C0353E8003F23F480730C3242E833
:103FA00000310029F3D1226802F1140353E8003FE5
:103FB00023F00103143242E800310029F3D12268D2
:103FC00002F1140353E8003F23F04003143242E8A7
:103FD00000310029F3D1202384F8423000232363E9
:103FE000226802F10C0353E8003F23F010030C3267
:103FF00042E800310029F3D1E06BFDF72DFC0223EC
:104000006363A18DE38D9BB2C91A89B2204600F08B
:104010003DF92EE7A18DE38D9BB2C91A89B2E38DDC
:104020009BB2002B3FF425AF00293FF422AF22685A
:1040300002F10C0353E8003F23F490730C3242E882
:1040400000300028F3D1226802F1140353E8003F46
:1040500023F00103143242E800300028F3D120237A
:1040600084F8423000232363226802F10C0353E8F2
:10407000003F23F010030C3242E800300028F3D157
:1040800002236363204600F001F9F2E62046FFF7C1
:1040900051FDEEE62046FFF736FEEAE6253D000834
:1040A00081628285C28500234364222380F84230E6
:1040B000036923B10268D36843F48073D360026854
:1040C000536943F0010353610268D36843F020034E
:1040D000D3600020704790F84230DBB2202B29D10A
:1040E00010B582B0044639B312B9012002B010BD38
:1040F0000123036300234363FFF7D2FF0028F5D1B8
:10410000236B012B01D00120F0E7002301932368EA
:104110001A6801925B680193019B226802F10C030B
:1041200053E8003F43F010030C3242E8003100290D
:10413000F3D1DBE7022070470120D7E7144BD3ED22
:10414000007AF1EE676A93ED016A76EEC66A93ED46
:10415000027ADFED105A27EE257A76EEC76A0E4B0B
:10416000C3ED006A76EE676A76EEC76A0B4BC3ED65
:10417000006A77EEC66A76EEC76A094BC3ED006A3D
:1041800077EE867A77EEC77A064BC3ED007A7047F2
:10419000244B00201E369140C04A0020BC4A00201B
:1041A000B84A0020B44A002070B582B0FFF7C6FFBD
:1041B0002F4EB6F9113000EE903A2E4DF8EEE00A8F
:1041C0002D4B93ED000A284600F0F2F82B4C84EDBD
:1041D000010AB6F91C3000EE903AF8EEE00A284BDE
:1041E00093ED000A05F1340000F0E2F884ED020AD4
:1041F000B6F9273000EE903AF8EEE00A214B93ED45
:10420000000A05F1680000F0D3F884ED030AB6F95E
:10421000323000EE903AF8EEE00A1B4B93ED000AC4
:1042200005F19C0000F0C4F884ED040AD4ED017A95
:1042300094ED027AD4ED036AFDEEE66ABDEEC77A2C
:10424000FDEEE77ABDEEC00A10EE103A1BB2009305
:1042500016EE903A1BB217EE102A12B217EE901A11
:1042600009B24FF4007000F05FF902B070BD00BFFA
:10427000344D0020944B0020BC4A00203C4B0020D1
:10428000C04A0020B84A0020B44A0020244B834290
:1042900000D0704770B523490E784A7846EA022666
:1042A000C6F30A06204B5E628878450145EAD205CE
:1042B000C5F30A059D62CA78920042EA90120C7911
:1042C00042EA8422C2F30A02DA6291F805C04FEA98
:1042D000CC1040EA5400C0F30A0018630C7C91F83B
:1042E00011E044EA0E245C634FEA9C1E83F838E038
:1042F000CCF3011C83F839C0A6F580665E62A5F593
:1043000080659D62A2F58062DA62A0F58060186324
:10431000A4F580645C6324220148FFF7DCFE70BDD5
:104320006C4A0020004B0020C44A0020144B93F834
:104330003930012B00D0704711494B6A5B4207EEC0
:10434000903AF8EEE77AB5EE007A67EE877A0D4A92
:10435000C2ED007A8B6A5B4207EE903AF8EEE77A9C
:1043600067EE877AC2ED017ACB6A5B4207EE903A3C
:10437000F8EEE77A67EE877AC2ED027ADBE700BFF4
:10438000C44A0020244B002008B5FFF7CFFF08BD2A
:1043900010EE103A036010EE903A436011EE103ABE
:1043A000836011EE903AC36012EE103A03617047D9
:1043B000FDEEC07A17EE903A4361FDEEE07A17EE1B
:1043C000902A8261C16901629B1AC361026807EE8B
:1043D000102A07EE903AF8EEE77A27EE277A17EEE2
:1043E000102A4262826A06EE902A426806EE102A7D
:1043F00067EE867A76EEA76A16EE902A8262826867
:104400005B1A07EE903AF8EEE77A06EE102A67EEAE
:10441000867A17EE903AC362C36806EE103AB1EEA0
:10442000466AF4EEC66AF1EE10FA08D906EE103AC2
:10443000F4EEC66AF1EE10FA01DAB0EE666A16EE34
:10444000103A836237EE067A77EE877A17EE903A63
:104450000363036907EE103AB1EE470AF4EEC07A3F
:10446000F1EE10FA06D9F4EEC77AF1EE10FA05DB98
:1044700000EE103A10EE103A03637047B0EE670A90
:10448000F8E7000010B58AB00023059306930122D7
:1044900007920093019302930393049308920E23CF
:1044A0000993084C69462046FCF7B4F92046FCF70E
:1044B0004DFA0F23059302212046FCF79FFB0AB01B
:1044C00010BD00BF2C00002000B58BB001AB03AACB
:1044D0000021FCF7DEFA039BA3F50072032A1ED825
:1044E0009DF804209DF80510DBB241EA022103EBA0
:1044F000830203EB42030B4A134499809DF8061094
:104500009DF8072042EA0122DA809DF808109DF804
:10451000092042EA01221A819DF80A209A720BB002
:104520005DF804FB344D002000B589B0BDF928C00A
:1045300002900020049005900820069041FA00F0B7
:104540008DF800008DF8011011128DF802108DF811
:1045500003201A128DF804208DF805309DF92930BA
:104560008DF806308DF807C001236A4602A903487A
:10457000FCF71AFA09B05DF804FB00BF2C0000201C
:1045800000B58BB02422002101A8FBF701FE084BE7
:1045900001934FF4007306931823079301AA002197
:1045A0000448FEF773FE044B18600BB05DF804FB83
:1045B0008849000829460008784D002010B51048A9
:1045C000FFF760FF24220F490F48FFF784FD012405
:1045D00010E0DFED0E1AB0EE612A9FED0D1AF0EE3D
:1045E000080A9FED0C0A34200B4B00FB0430FFF748
:1045F000CFFE0134042CECDDFFF7C2FF10BD00BF7D
:104600002C000020004B00206C4A002000803B461C
:10461000CDCC4C3D00008C42604B002008B5FFF72C
:10462000B3FEFFF7C1FD08BD08B5FFF7F7FF052092
:10463000FEF78AFEFFDE0000DFF834D0FDF726FB30
:104640000C480D490D4A002302E0D458C4500433ED
:10465000C4188C42F9D30A4A0A4C002301E01360C3
:104660000432A242FBD3FBF7E5FDFBF735FF7047B1
:10467000000002200000002010000020C8490008AF
:10468000100000207C4D0020FEE72DE9F047864613
:104690008C460846089E154674461946002B40F085
:1046A000C2808542B2FA82F245D94AB1C2F12003F2
:1046B00000FA02FC2EFA03F3954043EA0C0C9440F6
:1046C0004FEA154EA8B2BCFBFEF8230C0EFB18CC2B
:1046D00008FB00F943EA0C43994528D9EB1808F187
:1046E000FF3704D2994502D9A8F102072B44A3EB66
:1046F0000903A4B2B3FBFEFC0EFB1C330CFB00F061
:1047000044EA0344A04214D92C190CF1FF3304D21B
:10471000A04202D9ACF102032C44241A43EA074018
:104720001EB1D440002334607360BDE8F087474673
:10473000DDE76346F1E792BB431B01214FEA154ECB
:10474000AFB2B3FBFEFC200C0EFB1C330CFB07F8D6
:1047500040EA0343984562D9EB180CF1FF3004D2CC
:10476000984502D9ACF102002B44A3EB0803A4B294
:10477000B3FBFEFC0EFB1C330CFB07F744EA0344BF
:10478000A7424ED92C190CF1FF3304D2A74202D90B
:10479000ACF102032C44E41B43EA0040C0E7C2F141
:1047A000200320FA03F1954090402EFA03F30343CF
:1047B0004FEA154EAFB2B1FBFEFC0EFB1C10190CFC
:1047C0000CFB07F841EA0041884504FA02F422D9BB
:1047D00069180CF1FF3004D2884502D9ACF102000F
:1047E0002944A1EB08019BB2B1FBFEFC0EFB1C119E
:1047F0000CFB07F743EA01439F420ED9EB180CF17B
:10480000FF3104D29F4202D9ACF102012B44DB1BE1
:1048100041EA004192E76046E3E76146F7E7604618
:10482000A3E76346B7E7834206D916B900210846D5
:104830007BE7C6E900E0F9E7B3FA83F78FB9834273
:1048400001D3724508D8BEEB020460EB03030120DC
:104850009C461EB9002168E73846FAE7C6E9004CD5
:10486000F8E7C7F1200CBB4022FA0CF41C432EFAE7
:104870000CF120FA0CF3B84001434FEA14490EFA48
:1048800007F5B3FBF9F81FFA84FE09FB18300B0C8F
:1048900008FB0EFA43EA00439A4502FA07F240D9B0
:1048A000E31808F1FF3004D29A4502D9A8F10200BA
:1048B0002344A3EB0A0389B2B3FBF9F809FB1833CD
:1048C00008FB0EFE41EA03418E452CD9611808F120
:1048D000FF3304D28E4502D9A8F10203214443EAF2
:1048E0000040A0FB0298A1EB0E014145CE46434695
:1048F00002D306D14D4504D2B9EB020E68EB040396
:104900000138002EA6D0B5EB0E0261EB030101FACF
:104910000CFC22FA07F34CEA0303F940C6E9003124
:1049200098E74046C5E74346D9E70000F8B500BF21
:10493000F8BC08BC9E467047F8B500BFF8BC08BC80
:044940009E467047D8
:104944000006101600061016000000000102030401
:10495400000000000000000001020304060708092B
:1049640064656661756C745461736B0049444C45AD
:1049740000000000546D725100000000546D72205C
:1049840053766300726F626F745461736B0000003E
:10499400644900080000000000000000000000005E
:1049A40000000000000200001800000000000000E9
:0449B40000000000FF
:0849B800CCB8FF7F01000000F4
:0449C00011040008D6
:0449C400ED030008F7
:1049C80001000000100000000024F400AAAAAAAA0E
:040000050800463970
:00000001FF
