:020000040800F2
:10000000000003204D3D0008D9130008DB13000851
:10001000DD130008DF130008E113000800000000F2
:10002000000000000000000000000000E3130008D2
:10003000E513000800000000E7130008E9130008BA
:100040009D3D00089D3D00089D3D00089D3D000828
:100050009D3D00089D3D00089D3D00089D3D000818
:100060009D3D00089D3D00089D3D00089D3D000808
:100070009D3D00089D3D00089D3D00089D3D0008F8
:100080009D3D00089D3D00089D3D00089D3D0008E8
:10009000F1130008011400089D3D00089D3D000873
:1000A0009D3D00089D3D00089D3D00089D3D0008C8
:1000B000111400089D3D00089D3D00089D3D00086D
:1000C0009D3D00089D3D00089D3D00089D3D0008A8
:1000D0009D3D00089D3D00089D3D00089D3D000898
:1000E0009D3D00089D3D00089D3D00089D3D000888
:1000F0009D3D00089D3D00089D3D00089D3D000878
:100100009D3D00089D3D00089D3D00089D3D000867
:100110009D3D00089D3D00089D3D00089D3D000857
:100120009D3D00089D3D00089D3D00089D3D000847
:100130009D3D00089D3D00089D3D00089D3D000837
:1001400021140008311400089D3D00089D3D000861
:100150009D3D00089D3D00089D3D00089D3D000817
:100160009D3D00089D3D00089D3D00089D3D000807
:100170009D3D00089D3D00089D3D000800000000D9
:100180009D3D00089D3D00089D3D00089D3D0008E7
:100190009D3D00089D3D00089D3D00089D3D0008D7
:0C01A00000000000000000009D3D000871
:1001B000024B0146186800F02FB800BF0000002075
:1001C000024B0146186800F0EFB900BF00000020A4
:1001D00070B5104E336805460C46B3B1214628462B
:1001E00000F0F4F8431C0CD0C41C24F00304A0421B
:1001F00005D0211A284600F0E9F8013001D0204648
:1002000070BD4FF0FF34204670BD194600F0DEF897
:100210003060E3E7100100202DE9F041CD1C25F00E
:10022000030508350C2D38BF0C25002D82B006467D
:1002300016DBA94214D8354F00F06AF87A68AAB1E3
:10024000144603E06368224683B11C4623685B1BA7
:10025000F8D40B2B21D8A242636855D053600DE02F
:100260000C233360002002B0BDE8F08129463046FF
:10027000FFF7AEFF431C044619D00560304600F07E
:100280004DF804F10B00231D20F00700C21A1CBF1B
:100290001B1AA35002B0BDE8F0816119A24225608B
:1002A00014BF51607960635163684B60E6E77B6817
:1002B00023B31C465B68002BFBD1226801931946CF
:1002C000304604EB020800F081F8804516D1226820
:1002D000AD1A29463046FFF77BFF01300ED0226869
:1002E0007868019B2A442260426812B90CE01046EB
:1002F0005268A242FBD100234360BFE70C23336066
:10030000304600F00BF8ADE77B60B7E71001002046
:10031000014800F0A5B800BF68020020014800F0C5
:10032000A7B800BF68020020830730B547D0541E2D
:10033000002A3ED0CAB2034601E0013C39D303F89B
:10034000012B9D07F9D1032C2CD9CDB205EB052546
:100350000F2C05EB054535D9A4F1100222F00F0C46
:1003600003F1100EE6444FEA121C1A461560556060
:100370009560D56010327245F8D10CF1010214F08D
:100380000C0F03EB021204F00F0C13D0ACF10403BA
:1003900023F003030433134442F8045B9A42FBD175
:1003A0000CF003042CB1C9B21C4403F8011B9C429D
:1003B000FBD130BD64461346002CF4D1F9E7034667
:1003C0001446C0E71A46A446E0E700BF38B5074D1B
:1003D0000022044608462A6002F008FC431C00D0B4
:1003E00038BD2B68002BFBD0236038BD54020020A1
:1003F000014B1868704700BF0000002070B50F4B1C
:100400000F4DAB42A3EB050607D0B610002455F8FC
:10041000043B01349847A642F9D803F011FE094D78
:10042000094B5E1BAB424FEAA60606D0002455F8E6
:10043000043B01349847A642F9D870BD1842000821
:1004400018420008184200081C420008704700BF0C
:10045000704700BF704700BF704700BF704700BFC4
:10046000704700BF0120704701207047704700BFF0
:10047000704700BF844641EA000313F003036DD1C7
:10048000403A41D351F8043B40F8043B51F8043B57
:1004900040F8043B51F8043B40F8043B51F8043B5E
:1004A00040F8043B51F8043B40F8043B51F8043B4E
:1004B00040F8043B51F8043B40F8043B51F8043B3E
:1004C00040F8043B51F8043B40F8043B51F8043B2E
:1004D00040F8043B51F8043B40F8043B51F8043B1E
:1004E00040F8043B51F8043B40F8043B51F8043B0E
:1004F00040F8043B51F8043B40F8043B51F8043BFE
:1005000040F8043B403ABDD2303211D351F8043B9D
:1005100040F8043B51F8043B40F8043B51F8043BDD
:1005200040F8043B51F8043B40F8043B103AEDD24C
:100530000C3205D351F8043B40F8043B043AF9D29D
:10054000043208D0D2071CBF11F8013B00F8013B70
:1005500001D30B8803806046704700BF082A13D37D
:100560008B078DD010F003038AD0C3F10403D21A95
:10057000DB071CBF11F8013B00F8013B80D331F8C9
:10058000023B20F8023B7BE7043AD9D3013A11F849
:10059000013B00F8013BF9D20B7803704B784370B4
:1005A0008B78837060467047002950D038B551F879
:1005B000043C0C1F002BB8BFE4180546FFF7A8FE4B
:1005C000274A13682BB1A3420CD9216860188342D3
:1005D0002CD0636028461460BDE83840FFF79EBE0B
:1005E000A3420FD81A465B68002BF9D11168501846
:1005F000844217D02CD3636054602846BDE838404D
:10060000FFF78CBE11685018A04214D020D8216882
:1006100060188342EFD118685B680844C4E900039E
:100620005460EAE723680B441360E6E718685B68E8
:1006300008442060CDE720680144501883421160CF
:10064000DBD1D3E900040144C2E90014D5E77047C7
:100650000C232B602846BDE83840FFF75FBE00BF83
:100660001401002008B52DED028BF0EE408AB0EEAB
:10067000608A00F01BF8F4EE488AF1EE10FA06D614
:10068000DFED098AB4EE688AF1EE10FA02D0BDEC13
:10069000028B08BDFFF7ACFE88EEA80ABDEC028B0A
:1006A0002123036008BD00BF0000000070B582B0C8
:1006B000CDED010A019921F00040431EB3F1FF4F37
:1006C00042D210EE104A24F00045B5F1FF4F3BD264
:1006D00085423FDB04F0004C3ED014F0FF4F01F0A8
:1006E000FF4659D12B02002BC8BF6FF07D0279DD88
:1006F0005B00002B02F1FF32FADC002E5DD1030219
:100700004DD46FF07D0E5B000EF1FF3EFBD512F174
:100710007E0F57DBC4F3160444F400031EF17E0F72
:1007200046DA6FF07D01A1EB0E0100FA01F1B2EBA8
:100730000E0204D117E00FD04300013A13D0581A2B
:100740000028F8DA5B00F8E7DDED017A60EE277A41
:1007500087EEA70A02B070BD2C4B03EB5C7393EDE0
:10076000000A02B070BD591A58BF0B461BB9F3E717
:100770005B000EF1FF3EB3F5000FF9DB1EF17E0FBB
:1007800026DBA3F500030EF17F0E43EA0C0343EAD8
:10079000CE5300EE103ADDE7EA157F3AADE712F1ED
:1007A0007E0F2BDA6FF07D0EAEEB020305FA03F33A
:1007B000C1F3160141F40001B9E74FEAE05EAEF182
:1007C0007F0EA4E76FF07D039B1A05FA03F3A5E7FC
:1007D0006FF07D02A2EB0E02134143EA0C0300EE20
:1007E000103AB7E736B14FEAE05EAEF17F0E6FF038
:1007F0007D028FE703026FF07D0282D5C4F31604F9
:1008000044F400036FF07D0ED2E700BF58400008AB
:1008100081F0004102E000BF83F0004330B54FEAB1
:1008200041044FEA430594EA050F08BF90EA020F1E
:100830001FBF54EA000C55EA020C7FEA645C7FEAB1
:10084000655C00F0E2804FEA5454D4EB5555B8BFD4
:100850006D420CDD2C4480EA020281EA030382EA45
:10086000000083EA010180EA020281EA0303362DD7
:1008700088BF30BD11F0004F4FEA01314FF4801CAA
:100880004CEA113102D0404261EB410113F0004FBC
:100890004FEA03334CEA133302D0524263EB430373
:1008A00094EA050F00F0A780A4F10104D5F1200E11
:1008B0000DDB02FA0EFC22FA05F2801841F100016C
:1008C00003FA0EF2801843FA05F359410EE0A5F140
:1008D00020050EF1200E012A03FA0EFC28BF4CF071
:1008E000020C43FA05F3C01851EBE37101F0004527
:1008F00007D54FF0000EDCF1000C7EEB00006EEB34
:100900000101B1F5801F1BD3B1F5001F0CD34908BD
:100910005FEA30004FEA3C0C04F101044FEA445214
:1009200012F5800F80F09A80BCF1004F08BF5FEA9B
:10093000500C50F1000041EB045141EA050130BD7B
:100940005FEA4C0C404141EB0101013C28BFB1F58D
:10095000801FE9D291F0000F04BF01460020B1FAD8
:1009600081F308BF2033A3F10B03B3F120020CDAAB
:100970000C3208DD02F1140CC2F10C0201FA0CF089
:1009800021FA02F10CE002F11402D8BFC2F1200CEE
:1009900001FA02F120FA0CFCDCBF41EA0C019040A4
:1009A000E41AA2BF01EB0451294330BD6FEA0404ED
:1009B0001F3C1CDA0C340EDC04F11404C4F12002D8
:1009C00020FA04F001FA02F340EA030021FA04F3EA
:1009D00045EA030130BDC4F10C04C4F1200220FA41
:1009E00002F001FA04F340EA0300294630BD21FA7F
:1009F00004F0294630BD94F0000F83F4801306BF45
:100A000081F480110134013D4EE77FEA645C18BF38
:100A10007FEA655C29D094EA050F08BF90EA020FCF
:100A200005D054EA000C04BF1946104630BD91EAC7
:100A3000030F1EBF0021002030BD5FEA545C05D1CA
:100A40004000494128BF41F0004130BD14F5800409
:100A50003CBF01F5801130BD01F0004545F0FE417D
:100A600041F470014FF0000030BD7FEA645C1ABFB2
:100A7000194610467FEA655C1CBF0B46024650EAE9
:100A8000013406BF52EA033591EA030F41F4002115
:100A900030BD00BF90F0000F04BF0021704730B59B
:100AA0004FF4806404F132044FF000054FF0000170
:100AB00050E700BF90F0000F04BF0021704730B531
:100AC0004FF4806404F1320410F0004548BF404206
:100AD0004FF000013EE700BF42004FEAE2014FEA5B
:100AE00031014FEA02701FBF12F07F4393F07F4F36
:100AF00081F06051704732F07F4208BF704793F039
:100B00007F4F04BF41F40021704730B54FF460744B
:100B100001F0004521F000411CE700BF50EA01024E
:100B200008BF704730B54FF000050AE050EA0102F7
:100B300008BF704730B511F0004502D5404261EB67
:100B400041014FF4806404F132045FEA915C3FF4A8
:100B5000D8AE4FF003025FEADC0C18BF03325FEA45
:100B6000DC0C18BF033202EBDC02C2F1200300FAF6
:100B700003FC20FA02F001FA03FE40EA0E0021FA1B
:100B800002F11444BDE600BF70B54FF0FF0C4CF409
:100B9000E06C1CEA11541DBF1CEA135594EA0C0FBB
:100BA00095EA0C0F00F0DEF82C4481EA030621EAF6
:100BB0004C5123EA4C5350EA013518BF52EA033531
:100BC00041F4801143F4801338D0A0FB02CE4FF0E3
:100BD0000005E1FB02E506F00042E0FB03E54FF013
:100BE0000006E1FB03569CF0000F18BF4EF0010E0B
:100BF000A4F1FF04B6F5007F64F5407404D25FEA07
:100C00004E0E6D4146EB060642EAC62141EA5551B9
:100C10004FEAC52040EA5E504FEACE2EB4F1FD0CFB
:100C200088BFBCF5E06F1ED8BEF1004F08BF5FEA79
:100C3000500E50F1000041EB045170BD06F000462B
:100C400046EA010140EA020081EA0301B4EB5C04D8
:100C5000C2BFD4EB0C0541EA045170BD41F48011D0
:100C60004FF0000E013C00F3AB8014F1360FDEBFF5
:100C7000002001F0004170BDC4F10004203C35DAD1
:100C80000C341BDC04F11404C4F1200500FA05F354
:100C900020FA04F001FA05F240EA020001F00042F5
:100CA00021F0004110EBD37021FA04F642EB06016B
:100CB0005EEA430E08BF20EAD37070BDC4F10C0495
:100CC000C4F1200500FA04F320FA05F001FA04F259
:100CD00040EA020001F0004110EBD37041F1000145
:100CE0005EEA430E08BF20EAD37070BDC4F1200550
:100CF00000FA05F24EEA020E20FA04F301FA05F2B8
:100D000043EA020321FA04F001F0004121FA04F25F
:100D100020EA020000EBD3705EEA430E08BF20EA2F
:100D2000D37070BD94F0000F0FD101F00046400069
:100D300041EB010111F4801F08BF013CF7D041EAEB
:100D4000060195F0000F18BF704703F000465200EF
:100D500043EB030313F4801F08BF013DF7D043EAC0
:100D60000603704794EA0C0F0CEA135518BF95EA76
:100D70000C0F0CD050EA410618BF52EA4306D1D1FD
:100D800081EA030101F000414FF0000070BD50EA1C
:100D9000410606BF1046194652EA430619D094EAA6
:100DA0000C0F02D150EA013613D195EA0C0F05D190
:100DB00052EA03361CBF104619460AD181EA0301E4
:100DC00001F0004141F0FE4141F470014FF000009C
:100DD00070BD41F0FE4141F4780170BD70B54FF037
:100DE000FF0C4CF4E06C1CEA11541DBF1CEA1355B7
:100DF00094EA0C0F95EA0C0F00F0A7F8A4EB050499
:100E000081EA030E52EA03354FEA013100F088808F
:100E10004FEA03334FF0805545EA131343EA126358
:100E20004FEA022245EA111545EA10654FEA00260D
:100E30000EF000419D4208BF964244F1FD0404F5C6
:100E4000407402D25B084FEA3202B61A65EB030522
:100E50005B084FEA32024FF480104FF4002CB6EBDF
:100E6000020E75EB030E22BFB61A754640EA0C005F
:100E70005B084FEA3202B6EB020E75EB030E22BF9F
:100E8000B61A754640EA5C005B084FEA3202B6EBE0
:100E9000020E75EB030E22BFB61A754640EA9C009F
:100EA0005B084FEA3202B6EB020E75EB030E22BF6F
:100EB000B61A754640EADC0055EA060E18D04FEA2D
:100EC000051545EA16754FEA06164FEAC30343EACD
:100ED00052734FEAC2025FEA1C1CC0D111F4801F9A
:100EE0000BD141EA00014FF000004FF0004CB6E793
:100EF00011F4801F04BF01430020B4F1FD0C88BF32
:100F0000BCF5E06F3FF6AFAEB5EB030C04BFB6EB3C
:100F1000020C5FEA500C50F1000041EB045170BD2F
:100F20000EF0004E4EEA113114EB5C04C2BFD4EB5C
:100F30000C0541EA045170BD41F480114FF0000EE0
:100F4000013C90E645EA060E8DE60CEA135594EA5C
:100F50000C0F08BF95EA0C0F3FF43BAF94EA0C0F5F
:100F60000AD150EA01347FF434AF95EA0C0F7FF4D4
:100F700025AF104619462CE795EA0C0F06D152EA28
:100F800003353FF4FDAE1046194622E750EA41060C
:100F900018BF52EA43067FF4C5AE50EA41047FF41D
:100FA0000DAF52EA43057FF4EBAE12E74FEA410280
:100FB000B2F1E04324BFB3F5001CDCF1FE5C0DD9B7
:100FC00001F0004C4FEAC0024CEA5070B2F1004F01
:100FD00040EB830008BF20F00100704711F0804F04
:100FE00021D113F13872BCBF01F00040704741F4C9
:100FF00080114FEA5252C2F11802C2F1200C10FACD
:101000000CF320FA02F018BF40F001004FEAC123B0
:101010004FEAD32303FA0CFC40EA0C0023FA02F354
:101020004FEA4303CCE77FEA625307D150EA01332A
:101030001EBF4FF0FE4040F44000704701F00040FA
:1010400040F0FE4040F40000704700BF53B94AB979
:10105000002908BF00281CBF4FF0FF314FF0FF30C0
:1010600000F00CB8ADF1080C6DE904CE02F097FE6B
:10107000DDF804E0DDE9022304B07047704700BFEB
:1010800010B5054C237833B9044B13B10448AFF3C2
:1010900000800123237010BD7502002000000000B5
:1010A0004040000808B5034B1BB103490348AFF3A8
:1010B000008008BD000000007802002040400008C9
:1010C00072B6FEE700B595B03022002108A8FFF700
:1010D0002BF900230393049305930693079301933D
:1010E000234A116C41F080511164126C02F080525D
:1010F0000192019A02931F4B1A6842F440421A600F
:101100001B6803F440430293029B012308934FF4AE
:101110008033099302230E934FF480020F9206222C
:101120001092B422119212930423139308A800F092
:10113000AFFDB0B901F0B0F9A8B90F2303930223B2
:101140000493002305934FF4A05306934FF4805368
:101150000793052103A800F0EBFF30B915B05DF847
:1011600004FBFFF7ADFFFFF7ABFFFFF7A9FF00BFE1
:10117000003802400070004008B501F06DFAFFF73A
:10118000A1FF00F019F800F047F800F065F802F050
:101190007FFA064802F050F9054B18604FF0804383
:1011A000C0F8B231034801F0B3FAFEE75000002066
:1011B00090020020CC03002084B000220092154B46
:1011C000196B41F002011963196B01F002010091E2
:1011D00000990192196B41F001011963196B01F03B
:1011E0000101019101990292196B41F00801196303
:1011F000196B01F008010291029903921A6B42F0F7
:1012000080021A631B6B03F080030393039B04B0FB
:10121000704700BF0038024008B50D480D4B036011
:101220000923436000238360C3604FF4803202616E
:101230004FF480124261037643768376C376037758
:10124000437700F019F900B908BDFFF739FFFBE754
:10125000C00200200064004008B50D480D4B03603B
:101260000923436000238360C3604FF4803202612E
:101270004FF480124261037643768376C376037718
:10128000437700F0F9F800B908BDFFF719FFFBE755
:10129000980200200068004010B58AB00023059332
:1012A00006930793089309930368454A934204D031
:1012B000444A93423CD00AB010BD434A13680133FC
:1012C0001360012B27D000240194404B1A6B42F08D
:1012D00008021A631B6B03F008030193019B0323AD
:1012E00005930222069208930923099305A9384819
:1012F00000F0CEFF22462146142001F05FF91420B1
:1013000001F06CF922462146152001F057F915200D
:1013100001F064F9CFE7002300932C4B1A6C42F0E4
:1013200000721A641B6C03F000730093009BCAE701
:1013300000230293254B1A6C42F080621A641B6CE6
:1013400003F080630293029B1F4A1368013313600A
:10135000012B28D0002404941C4B1A6B42F002028B
:101360001A631B6B03F002030493049B6023059331
:1013700002230693032308930923099305A915481B
:1013800000F086FF22462146402001F017F9402058
:1013900001F024F922462146412001F00FF94120B5
:1013A00001F01CF987E700230393084B1A6C42F005
:1013B00000721A641B6C03F000730393039BC9E76C
:1013C00000640040006800409402002000380240A1
:1013D000000C024000040240FEE7FEE7FEE7FEE7E5
:1013E000FEE770477047704708B501F04FF908BD38
:1013F00008B5024800F023FB08BD00BFC002002072
:1014000008B5024800F01BFB08BD00BFC002002069
:1014100008B5024801F0C4F908BD00BFCC030020A4
:1014200008B5024800F00BFB08BD00BF9802002081
:1014300008B5024800F003FB08BD00BF9802002079
:1014400082B0002100910B4B5A6C42F480425A64E6
:101450005A6C02F480420092009A01911A6C42F098
:1014600080521A641B6C03F080530193019B02B0FD
:10147000704700BF00380240002800F0A18038B556
:10148000044690F82030D3B12268136843F001037A
:10149000136001F007F9054623685A6812F0010F3E
:1014A00010D101F0FFF8401B0A28F5D9636A43F414
:1014B00000336362052384F82030012038BDFFF734
:1014C000EBFEE1E71A6822F002021A6001F0EAF886
:1014D000054623685A6812F0020F0DD001F0E2F8B9
:1014E000401B0A28F5D9636A43F40033636205237D
:1014F00084F820300120E1E7227E012A3DD01A68DD
:1015000022F080021A60637E012B3BD022681368B0
:1015100023F040031360A37E012B39D022681368A7
:1015200023F020031360E37E012B37D02268136879
:1015300043F010031360237F012B35D0226813681A
:1015400023F008031360637F012B33D022681368F4
:1015500023F004031360A368E26813432269134372
:10156000626913436268013A21681343CB6100202A
:101570006062012384F82030A0E71A6842F08002FC
:101580001A60C0E72268136843F040031360C2E7A3
:101590002268136843F020031360C4E722681368CD
:1015A00023F010031360C6E72268136843F00803B2
:1015B0001360C8E72268136843F004031360CAE7A6
:1015C0000120704790F82030013BDBB2012B05D998
:1015D000436A43F4802343620120704730B5464B91
:1015E000D3F8002242F00102C3F80022D3F800220F
:1015F00022F47C52C3F80022D3F80022486A42EA5F
:101600000022C3F800224A6902F01F02012000FAFA
:1016100002F2D3F81C026FEA020C20EA0200C3F8BF
:101620001C02CB69C3B9344BD3F80C020CEA00009E
:10163000C3F80C028C884869CD6844EA05444830F8
:1016400043F830408C68088840EA04404C6904F153
:10165000480E03EBCE035860CB69012B1ED08B697B
:10166000002B33D12448D0F804320CEA0303C0F82D
:1016700004320B698BBB2048D0F814320CEA030308
:10168000C0F814320B6A012B2ED01B4AD2F800325C
:1016900023F00103C2F80032002030BD164BD3F80E
:1016A0000C021043C3F80C028C8848690D6844EAA8
:1016B0000544483043F8304088894C698D6840EAD9
:1016C0000540483403EBC4035860C8E70A48D0F823
:1016D00004321343C0F80432CBE70748D0F8143281
:1016E0001343C0F81432CDE70349D1F81C32134339
:1016F000C1F81C32C9E700BF0064004070B5044661
:1017000090F82050EDB2012D06D0436A43F4002337
:1017100043620125284670BD022380F8203002680C
:10172000136823F00103136000F0BCFF0646236832
:101730005B6813F0010F0CD000F0B4FF831B0A2B81
:10174000F5D9636A43F400336362052384F82030DB
:10175000E0E700256562DDE730B590F820C0046859
:10176000A4680CF1FF3C5FFA8CFCBCF1010F62D85D
:1017700014F0E05F59D0C4F3016C012404FA0CF4B6
:101780001C608B68002B3DD10D68CB68046843EA70
:1017900045550CF118031B01E55003680C690CF169
:1017A000180E03EB0E135C600B7D012B35D0D17945
:1017B00093791B0443EA0163517943EA01231479C5
:1017C0000168234301EB0C11C1F88C31D178937877
:1017D0001B0443EA0163517843EA0123117802684C
:1017E0000B4302EB0C12C2F8883102680CF1180CA2
:1017F0004FEA0C1C52F80C3043F0010342F80C3055
:1018000000201DE04C6843EAC403CC6823430CF17C
:101810001804240105682B51BFE7036803EB0E137E
:10182000596841F480715960C1E7436A43F4001379
:101830004362012004E0436A43F4802343620120B1
:1018400030BD90F82030013BDBB2012B01D90020E4
:1018500070470368986810F0806000D001209A6893
:1018600012F0006F00D001309B6813F0805FEFD062
:101870000130704790F820C00CF1FF3C5FFA8CFCFF
:10188000BCF1010F00F2A58030B451B90468E468DE
:1018900014F0030F10D1436A43F400134362012094
:1018A0007EE00468246914F0030F05D1436A43F411
:1018B00000134362012073E0056801F11B04240159
:1018C0002C5904F004049460002C6BD1056801F1DC
:1018D0001B0424012C59640D1460046801F11B0CD5
:1018E0004FEA0C1C54F80C4004F00204D460046865
:1018F000A444DCF8045015F0080F5BD008241461F0
:10190000046801F11B0C04EB0C146468C4F3072495
:101910009461046804EB0C146468240C546102683C
:1019200002EB0112D2F8B8211A70026802EB011220
:10193000D2F8B821C2F307225A70026802EB0112F2
:10194000D2F8B821C2F307429A70026802EB011282
:10195000D2F8B821120EDA70026802EB0112D2F846
:10196000BC211A71026802EB0112D2F8BC21C2F349
:1019700007225A71026802EB0112D2F8BC21C2F3AD
:1019800007429A71026802EB0112D2F8BC21120ED2
:10199000DA71C1B90268D36843F02003D360002034
:1019A00030BC7047056801F11B0424012C59E40880
:1019B000546092E701F11B0504EB0514646804F020
:1019C0000F0414619CE70268136943F0200313615C
:1019D000E5E7436A43F4802343620120704790F8AF
:1019E0002030013BDBB2012B01D90020704721B927
:1019F0000368D86800F0030070470368186900F0B6
:101A00000300704790F82030013BDBB2012B05D971
:101A1000436A43F48023436201207047026853699C
:101A20000B43536100207047704770477047704701
:101A300070477047704770477047704770472DE98F
:101A4000F84F054603685C69D3F804809F68D3F8B3
:101A50000CA0D3F81090D3F818B014F001063BD0C6
:101A600017F0010616D001229A6017F0020F08D174
:101A700017F0040F0CD117F0080606D04FF480566B
:101A800008E0FFF7D1FF002604E0FFF7D0FF01E0F8
:101A90004FF4006617F4807F0DD02B684FF48072EE
:101AA0009A6017F4007F40F0968017F4806F00F082
:101AB000968046F4005617F4803F0DD02B684FF403
:101AC00080329A6017F4003F40F0938017F4802F23
:101AD00000F0938046F4004614F0080F07D01AF087
:101AE000100F04D046F400762B681022DA6014F050
:101AF000040F03D01AF0080F40F0898014F0020F91
:101B000005D02B68DB6813F0030F40F0878014F0DA
:101B1000400F07D019F0100F04D046F480662B68F0
:101B200010221A6114F0200F02D019F0080F79D199
:101B300014F0100F04D02B681B6913F0030F78D139
:101B400014F4003F02D018F0100F76D114F4803F47
:101B500002D018F0080F77D114F4004F37D018F0E6
:101B6000040F31D014F4807F04D01BF0010F01D09A
:101B700046F0010614F4007F04D01BF0020F01D0E0
:101B800046F0020614F4806F04D01BF0040F01D05D
:101B900046F0040614F4006F16D01BF0700B13D03F
:101BA000BBF1400F66D056D8BBF1200F5CD0BBF123
:101BB000300F5CD0BBF1100F01D146F008062A6847
:101BC000936923F0700393612B6804225A60002EFE
:101BD00056D1BDE8F88F2846FFF727FF6BE717F4CB
:101BE000006F02D046F4804665E72846FFF720FFE5
:101BF00061E72846FFF71AFF6EE717F4002F02D0BF
:101C000046F4803668E72846FFF713FF64E72B6841
:101C10000822DA602846FFF70DFF6FE7284601F03B
:101C200073F974E72B6808221A612846FFF703FF4F
:101C30007EE7284601F06DF982E72B6810225A6092
:101C40002846FFF7F9FE81E72B6808225A602846EC
:101C5000FFF7F3FE80E7BBF1500F0ED0BBF1600F32
:101C6000ADD146F48076AAE746F01006A7E746F025
:101C70002006A4E746F04006A1E746F080069EE76E
:101C80006B6A33436B622846FFF7D8FEA1E700007A
:101C9000002800F0E08170B582B00446036813F0BC
:101CA000010F3BD09F4B9B6803F00C03042B2CD0FF
:101CB0009C4B9B6803F00C03082B21D06368B3F5A1
:101CC000803F4FD0B3F5A02F52D0964B1A6822F424
:101CD00080321A601A6822F480221A606368002B2E
:101CE00050D000F0DFFC05468E4B1B6813F4003F1C
:101CF00014D100F0D7FC401B6428F5D90320B1E1D2
:101D0000884B5B6813F4800FD8D0864B1B6813F4A4
:101D1000003F03D06368002B00F09F81236813F01D
:101D2000020F54D07F4B9B6813F00C0F3ED07D4BBD
:101D30009B6803F00C03082B33D0E368002B68D0BA
:101D4000794B01221A6000F0ADFC0546754B1B680B
:101D500013F0020F54D100F0A5FC401B0228F5D966
:101D600003207FE16F4A136843F480331360B5E7C3
:101D70006C4B1A6842F480221A601A6842F480326E
:101D80001A60ABE700F08EFC0546664B1B6813F447
:101D9000003FC3D000F086FC401B6428F5D9032027
:101DA00060E1604B5B6813F4800FC6D15D4B1B682C
:101DB00013F0020F03D0E368012B40F05081594A21
:101DC000136823F0F803216943EAC1031360236811
:101DD00013F0080F42D063696BB3534B0122C3F871
:101DE000802E00F05FFC05464E4B5B6F13F0020F38
:101DF00034D100F057FC401B0228F5D9032031E113
:101E0000484A136823F0F803216943EAC1031360C9
:101E1000DDE7454B00221A6000F044FC0546414BCB
:101E20001B6813F0020FD2D000F03CFC401B0228CC
:101E3000F5D9032016E13C4B0022C3F8802E00F0B8
:101E400031FC0546374B5B6F13F0020F06D000F0F4
:101E500029FC401B0228F5D9032003E1236813F075
:101E6000040F77D02F4B1B6C13F0805F33D100230E
:101E700001932C4B1A6C42F080521A641B6C03F0D5
:101E800080530193019B0125284B1B6813F4807F2D
:101E900023D0A368012B34D0052B38D0214B1A6FE7
:101EA00022F001021A671A6F22F004021A67A3686F
:101EB000002B3DD000F0F6FB06461A4B1B6F13F0CB
:101EC000020F46D100F0EEFB801B41F288339842AE
:101ED000F3D90320C6E00025D6E7144A136843F47B
:101EE0008073136000F0DEFB0646104B1B6813F492
:101EF000807FCED100F0D6FB801B0228F5D90320CD
:101F0000B0E0084A136F43F001031367CFE7054BB6
:101F10001A6F42F004021A671A6F42F001021A6740
:101F2000C5E700BF00380240000047420070004093
:101F300000F0B8FB0646524B1B6F13F0020F08D09F
:101F400000F0B0FB801B41F288339842F3D90320A4
:101F500088E0EDB9A369002B00F08380484A9268BD
:101F600002F00C02082A51D0022B17D0454B002258
:101F70001A6600F097FB0446414B1B6813F0007F84
:101F800042D000F08FFB001B0228F5D9032069E046
:101F90003B4A136C23F080531364DBE7394B002278
:101FA0001A6600F07FFB0546354B1B6813F0007F77
:101FB00006D000F077FB401B0228F5D9032051E042
:101FC000E369226A1343626A43EA8213A26A5208EF
:101FD000013A43EA0243E26A43EA0263284A536051
:101FE000284B01221A6600F05DFB0446244B1B6857
:101FF00013F0007F06D100F055FB001B0228F5D935
:1020000003202FE000202DE000202BE0012B2BD01F
:102010001B4B5B6803F48001E269914226D103F017
:102020003F02216A8A4223D1616A47F6C0721A4090
:10203000B2EB811F1ED103F44031A26A5208013A6B
:10204000B1EB024F18D103F07063E26AB3EB026F99
:1020500014D1002006E001207047012002E0012099
:1020600000E0002002B070BD0120FBE70120F9E78D
:102070000120F7E70120F5E70120F3E70120F1E770
:10208000003802400000474208B5264B9B6803F029
:102090000C03042B41D0082B41D1224B5A6802F08B
:1020A0003F025B6813F4800F12D01E4B5968C1F3D6
:1020B00088111D480023A1FB0001FEF7C7FF194B43
:1020C0005B68C3F3014301335B00B0FBF3F008BD71
:1020D000144B5868C0F388104FEA401CBCEB000C4E
:1020E0006EEB0E0E4FEA8E1343EA9C634FEA8C119F
:1020F000B1EB0C0163EB0E03DB0043EA5173C90043
:1021000011EB000C43F10003990200234FEA8C20ED
:1021100041EA9C51FEF79AFFD1E70348D7E703480D
:10212000D5E700BF00380240001BB7000024F400D0
:10213000002800F09B8070B50D4604464F4B1B688D
:1021400003F00F038B4208D2CBB24C4A13701368D2
:1021500003F00F038B4240F08B80236813F0020FD3
:1021600017D013F0040F04D0454A936843F4E053AA
:102170009360236813F0080F04D0414A936843F436
:10218000604393603E4A936823F0F003A1680B43D9
:102190009360236813F0010F32D06368012B21D0C4
:1021A0009A1E012A25D9364A126812F0020F61D010
:1021B00033498A6822F0030213438B6000F072FAFD
:1021C00006462F4B9B6803F00C036268B3EB820F4B
:1021D00016D000F067FA801B41F288339842F0D99C
:1021E000032042E0264A126812F4003FE0D10120A9
:1021F0003BE0234A126812F0007FD9D1012034E07D
:102200001E4B1B6803F00F03AB4207D9EAB21B4B0E
:102210001A701B6803F00F03AB422DD1236813F033
:10222000040F06D0164A936823F4E053E1680B4389
:102230009360236813F0080F07D0114A936823F4C2
:102240006043216943EAC1039360FFF71DFF0C4B14
:102250009B68C3F303130B4AD35CD8400A4B186046
:102260000A4B186800F0D2F9002070BD01207047B9
:102270000120FAE70120F8E70120F6E7003C0240E0
:1022800000380240604000080801002004010020DE
:1022900000230F2B00F2F68070B582B066E08568EF
:1022A0004FEA430E032404FA0EF425EA0405CC6831
:1022B00004FA0EF42C438460446824EA02044A6859
:1022C000C2F300129A40224342605DE0DC08083409
:1022D00050F8242003F00705AD004FF00F0E0EFA62
:1022E00005FE22EA0E0E0A69AA4042EA0E0240F8F2
:1022F00024205DE0092200E0002202FA0EF22A43C7
:102300000234614D45F82420604A94686FEA0C025B
:1023100024EA0C054E6816F4801F01D04CEA04052F
:102320005A4CA560E46802EA04054E6816F4001FE2
:1023300001D04CEA0405554CE560646802EA0405E6
:102340004E6816F4003F01D04CEA04054F4C65601E
:10235000246822404D6815F4803F01D04CEA040205
:102360004A4C226001330F2B00F28A8001229A40EE
:102370000C6804EA020C32EA0404F3D14C6804F05D
:102380000304013C012C8AD94A6802F00302032AA3
:1023900009D0C4685D000322AA4024EA02048A68C6
:1023A000AA402243C2604A6802F00302022A8DD08A
:1023B00004684FEA430E032202FA0EF224EA0204F2
:1023C0004A6802F0030202FA0EF2224302604A68EF
:1023D00012F4403FC6D0002201922D4A546C44F4BE
:1023E00080445464526C02F480420192019A9C0829
:1023F000A51C254A52F8255003F0030E4FEA8E0E15
:102400000F2202FA0EF225EA0205224A90423FF418
:1024100073AF02F58062904222D002F58062904252
:1024200020D002F5806290421ED002F58062904278
:102430001CD002F5806290421AD002F58062904270
:1024400018D002F58062904216D002F58062904268
:1024500014D002F5806290423FF44CAF0A224CE760
:1024600001224AE7022248E7032246E7042244E722
:10247000052242E7062240E707223EE708223CE722
:1024800002B070BD704700BF00380140003C014001
:10249000003802400000024010B582B000230193D2
:1024A000194B1A6C42F080521A641B6C03F0805373
:1024B0000193019B154B01221A6400F0F3F80446C6
:1024C000134B5B6813F4803F08D100F0EBF8001B5E
:1024D000B0F57A7FF4D9032002B010BD0B4B012276
:1024E0005A6400F0DFF80446094B5B6813F4003FC0
:1024F00007D100F0D7F8001BB0F57A7FF4D903209C
:10250000EAE70020E8E700BF0038024000000E4282
:1025100000700040002807DB00F01F024009012383
:102520009340024A42F82030704700BF00E100E0CB
:10253000002808DB0901C9B200F1604000F56140E4
:1025400080F80013704700F00F000901C9B2014B79
:102550001954704714ED00E000B500F00700C0F119
:10256000070CBCF1040F28BF4FF0040C031D062B11
:102570000FD9C31E4FF0FF3E0EFA0CF021EA000106
:1025800099400EFA03FE22EA0E0241EA02005DF8CB
:1025900004FB0023EEE70000074AD36823F4E0635E
:1025A0001B041B0C000200F4E060034343F0BF6314
:1025B00043F40033D360704700ED00E010B50446EB
:1025C000054BD868C0F30220FFF7C6FF014620463E
:1025D000FFF7AEFF10BD00BF00ED00E008B5FFF74C
:1025E00099FF08BD0138B0F1807F0BD24FF0E02396
:1025F0005861054AF02182F82310002098610722D3
:102600001A6170470120704700ED00E010B50446E4
:102610000E4B1A784FF47A73B3FBF2F30C4A10683E
:10262000B0FBF3F0FFF7DEFF68B90F2C01D90120F2
:102630000AE0002221464FF0FF30FFF7BFFF054BB5
:102640001C60002000E0012010BD00BF0001002040
:10265000080100200401002008B50B4B1A6842F461
:1026600000721A601A6842F480621A601A6842F4B2
:1026700080721A600320FFF78FFF0F20FFF7C6FF5D
:10268000FEF7DEFE002008BD003C0240034A116850
:10269000034B1B780B441360704700BFE802002017
:1026A00000010020014B1868704700BFE8020020BD
:1026B00010B4036A046A24F001040462846924F0FB
:1026C000F00C4CEA021223F00A030B43826103620E
:1026D0005DF8044B704710B4036A046A24F01004D8
:1026E0000462846924F4704C4CEA023223F0A003A3
:1026F00043EA0113826103625DF8044B704783680B
:1027000023F070030B4343F007038360704700001E
:1027100090F83D30DBB2012B37D1022380F83D30F9
:102720000268D36843F00103D3600368194A9342F7
:1027300020D0B3F1804F1DD0A2F57C42934219D036
:1027400002F58062934215D002F58062934211D067
:1027500002F5784293420DD002F57052934209D0AF
:10276000A2F59432934205D01A6842F001021A6031
:10277000002070479A6802F00702062A07D01A68FC
:1027800042F001021A6000207047012070470020CB
:10279000704700BF000001407047704770477047A6
:1027A00070B504460368DE681D6915F0020F10D08D
:1027B00016F0020F0DD06FF002021A6101230377A9
:1027C00003689B6913F0030F5ED0FFF7E6FF002359
:1027D000237715F0040F12D016F0040F0FD02368E2
:1027E0006FF004021A610223237723689B6913F4B4
:1027F000407F4FD02046FFF7D0FF0023237715F00E
:10280000080F12D016F0080F0FD023686FF00802DF
:102810001A61042323772368DB6913F0030F40D088
:102820002046FFF7BAFF0023237715F0100F12D0D0
:1028300016F0100F0FD023686FF010021A610823F2
:1028400023772368DB6913F4407F31D02046FFF7FC
:10285000A4FF0023237715F0010F02D016F0010F1B
:102860002DD115F0800F02D016F0800F2FD115F06A
:10287000400F02D016F0400F31D115F0200F02D0DA
:1028800016F0200F33D170BDFFF786FF2046FFF70B
:1028900085FF9CE72046FFF77FFF2046FFF77EFF7E
:1028A000ABE72046FFF778FF2046FFF777FFBAE750
:1028B0002046FFF771FF2046FFF770FFC9E7236846
:1028C0006FF001021A61204601F036FAC9E7236869
:1028D0006FF080021A61204600F07DF9C7E7236897
:1028E0006FF040021A612046FFF759FFC5E72368E1
:1028F0006FF020021A61204600F06CF9C3E7000077
:102900000368344A904212D0B0F1804F0FD0A2F544
:102910007C4290420BD002F58062904207D002F5D3
:102920008062904203D002F57842904203D123F0B6
:1029300070034A681343274A90422AD0B0F1804F6F
:1029400027D0A2F57C42904223D002F580629042CB
:102950001FD002F5806290421BD002F5784290426F
:1029600017D002F57052904213D002F58062904267
:102970000FD002F5806290420BD0A2F598329042BF
:1029800007D002F58062904203D002F58062904247
:1029900003D123F44073CA68134323F080034A69C8
:1029A000134303608B68C3620B688362094B9842D0
:1029B00003D003F58063984201D10B6903630123BF
:1029C0004361036913F0010F03D0036923F001038E
:1029D000036170470000014040B310B5044690F811
:1029E0003D30F3B1022384F83D30214651F8040B09
:1029F000FFF786FF012384F8463084F83E3084F8E0
:102A00003F3084F8403084F8413084F8423084F814
:102A1000433084F8443084F8453084F83D30002059
:102A200010BD80F83C3000F06BFEDBE70120704702
:102A300010B4846824F47F4C42EA03220A4342EA39
:102A40000C0282605DF8044B704790F83C30012B1B
:102A500078D010B50446012380F83C30022380F87A
:102A60003D300268936823F47F4323F0770393603B
:102A70000B68602B4CD023D8402B54D011D8202B7E
:102A800003D00AD80BB1102B05D119462068FFF7E7
:102A900036FE002028E0012026E0302BF5D0012072
:102AA00022E0502B0AD1CA6849680068FFF700FE8F
:102AB00050212068FFF723FE002015E0012013E0DD
:102AC000B3F5805F3AD0B3F5005F14D0702B37D1E7
:102AD000CB684A6889680068FFF7AAFF2268936894
:102AE00043F0770393600020012384F83D300023F6
:102AF00084F83C3010BDCB684A6889680068FFF7ED
:102B000097FF2268936843F4804393600020EBE7CB
:102B1000CA6849680068FFF7DEFD60212068FFF79A
:102B2000EEFD0020E0E7CA6849680068FFF7C0FDD5
:102B300040212068FFF7E3FD0020D5E70020D3E720
:102B40000120D1E70220704790F83C20012A3DD0B7
:102B500010B40346012280F83C20022280F83D2078
:102B600002685068946820F0700C086840EA0C0015
:102B700050601A68164882421AD0B2F1804F17D0BE
:102B8000A0F57C40824213D000F5806082420FD0D5
:102B900000F5806082420BD000F57840824207D079
:102BA00000F57050824203D0A0F59430824204D1E7
:102BB00024F08004496821439160012283F83D207C
:102BC000002083F83C005DF8044B704702207047FA
:102BD0000000014070477047034AD2F8883043F440
:102BE0007003C2F88830704700ED00E010B503466E
:102BF0000C4A0D490D48006840B10C480068034478
:102C0000521A934206D8094A136010BD0748084C6F
:102C10000460F2E7FDF7ECFB0C2303604FF0FF309C
:102C2000F3E700BF0000032000040000EC020020D6
:102C3000D008002010B50C4C2046FEF75FFD0221A5
:102C40002046FEF7DFFE10212046FEF7DBFE074C94
:102C50002046FEF753FD02212046FEF7D3FE102149
:102C60002046FEF7CFFE10BDC002002098020020D3
:102C700000B58BB00123069300230793C36913F0BB
:102C8000010F0CBF0123002304930E230993436B10
:102C90005B01019302680B4B9A420DD00A4A1378EC
:102CA000591C117005930123089369460068FEF7CB
:102CB00089FC0BB05DF804FB044A1378591C1170B1
:102CC000F0E700BFC00200200C0100201403002028
:102CD00070B582B005460E4631462846FEF77FFEA7
:102CE00048B36B46154A31462846FEF7C3FD00241B
:102CF00000E00134124B1B78A342EDD9114B53F87D
:102D000024301A68AA42F4D10C4A11685A6B9142D5
:102D1000EFD1D3F8392072B1084A126983F838200C
:102D2000084D184669462C30FDF7A4FB55F82400E1
:102D3000D0F83930984702B070BD00BFF0020020D3
:102D4000150300201803002030B585B00446314B30
:102D50001B7873B12F4B93F800C0BCF10F0F2FD924
:102D60002D4B00932D4B2E4A2E49002000F0E4FEFF
:102D7000F6E7FFF75FFF284B00932B4B2B4A2C49BC
:102D8000002000F0D9FEE5E701339C451AD9294A15
:102D900052F82320506BA1688842F5D1116822684F
:102DA0009142F1D11C4B029304F108030193231DBE
:102DB00000931A4B1A4A2049002000F0BDFEF1E7AB
:102DC0000023E2E74120FDF7F3F905464122002107
:102DD000FDF7AAFA62686A600023082129756B75FD
:102DE000AB75EB7523682B60EA61A3686B63E368DE
:102DF000C5F839302369C5F83D302846FFF738FF5C
:102E0000044A1378591C11700A4A42F82350284684
:102E100005B030BD15030020A4400008AC400008F8
:102E2000B0400008B8400008704000087440000836
:102E30007C400008180300201041000810B52DED5B
:102E4000028B82B00446F0EE408A00F01BF908EED7
:102E5000100AB8EEC88A2068FEF7F3FCF8B900F053
:102E600011F907EE900AF8EEE77A77EEC87AF4EEF9
:102E7000E87AF1EE10FAEEDD1C4B01931C4C23684E
:102E800000931C4B1C4A1D49002000F055FE23688E
:102E900001332360002002B0BDEC028B10BD00F0B6
:102EA000F1F807EE900AF8EEE77A77EEC87A144B5D
:102EB000C3ED007A234653F8200B04F12402211DB0
:102EC000FEF74AFC08B90120E5E7084B0193084CDE
:102ED00023680093074B084A0A49002000F02CFEA3
:102EE0002368013323600020D5E700BFA440000819
:102EF000100300205C4100086041000868410008A0
:102F00000C030020B841000808B50021FFF7E0FEDF
:102F100008BD08B50121FFF7DBFE08BD0E4B1B788D
:102F2000C3B982B00C4B01221A700C4B5B68019341
:102F3000019A0B4B1B689A4203D20A4A1368013369
:102F40001360064B5A68064B1A60034B00221A7036
:102F500002B07047704700BF70030020001000E00F
:102F6000800300208403002000B52DED028B83B088
:102F70000D4B5B680193019B02689B1A07EE903A28
:102F8000F8EE677A094B93ED007AB8EE477A87EE50
:102F9000878A019B0360FFF7C1FFB0EE480A03B0C8
:102FA000BDEC028B5DF804FB001000E090030020F4
:102FB0002DE9F04182B0294B5B680193FFF7AEFF2A
:102FC000274B1C6800266508E3071B1B65F10005FD
:102FD000DB186D411C1945F10005019BE41845F112
:102FE0000005204B1C605D601F4BD3F800804246FB
:102FF000334620462946FEF729F807461B4B186042
:1030000059604246334620462946FEF71FF81046CF
:103010001C461546164B1A605C60DFF86480C8F8E1
:103020000070144B1F683A4633462146FEF70EF8EF
:1030300080B2A8F8040000FB07F7E81B64F1000168
:103040000D4B186059600D4B1A683346FDF7FEFFB3
:10305000A8F8060002B0BDE8F08100BF001000E053
:1030600084030020780300209003002068030020E0
:10307000600300208C0300205803002088030020F8
:103080009403002008B5FFF793FF0B4A116893885B
:103090004FF47A7000FB013300EE103AB8EE400AAC
:1030A000D38807EE903AF8EEE77A9FED047A67EE60
:1030B000877A30EE270A08BD940300206F12833A06
:1030C0000A4B5968094B5B685B1A094AD2ED007AD2
:1030D000F8EE677A67EE807A07EE103AB8EE477A34
:1030E000B4EEE77AF1EE10FAECD47047001000E08D
:1030F0009003002031EE601A30EE600AFCEEC07AD8
:1031000017EE903A9BB207EE903A01238340013BC1
:1031100007EE103AB8EEC77AC7EE016AF8EEE77A22
:1031200067EEA67AFCEEE77A17EE903A98B270470F
:1031300007EE900A70EEC00AF8EEE77A27EEA07A62
:1031400001238B40013B07EE903AF8EEE77AC7EE99
:10315000276A36EE800A7047F9EE097AB4EEE70A7C
:10316000F1EE10FA22D4B5EEC00AF1EE10FA0DD449
:10317000F1EE097AB4EEE70AF1EE10FA0DD5B5EEEC
:10318000C00AF1EE10FA13DB03207047B4EEE70A31
:10319000F1EE10FAECDB02207047F1EE097AB4EEA2
:1031A000E70AF1EE10FA05DA0020704701207047B7
:1031B000002070470420704738B50446D0F80A3024
:1031C00000EE103A104B83ED000A90F92A500F4B95
:1031D0001D70FFF7C1FF42B20D4B1A70431B84F8FC
:1031E0002A2075B1D9B258B200B938BD022802DD23
:1031F000043948B2F9E710F1020FF6DA043148B2A7
:10320000F3E72846F1E700BFA00300209D0300205C
:103210009C03002008B5D1F8B7314FF0FF325A6255
:10322000C3F82720D1F8B73183F82B00B7EE000A96
:10323000D1F8B701FFF702FE08BD00000000000052
:103240002DE9F0472DED028B0546D0F83D40D4F82E
:103250000A30C4F8063090F82D0095F82E30102171
:10326000F2EE090ABAEE090A43EA0020FFF760FF0E
:1032700010EE103AC4F80A3095F82F0095F8303067
:103280001B090C21DFED5E0A9FED5E0A43EA001088
:10329000FFF74EFF10EE103AC4F8023095F83030C8
:1032A00095F831001B0203F470630C21F3EE020A5F
:1032B000BBEE020A1843FFF73BFF10EE103AC4F8CA
:1032C0001E3095F8323007EE903AF8EE677A17EE36
:1032D000903AC4F8223095F8333007EE903AF8EE81
:1032E000677A17EE903AC4F826302046FFF764FF5D
:1032F000D4F80E301844C4F80E0000286FDD851C89
:103300006BD4AD10C4F8125007EE900AF8EEE77ACD
:103310009FED3D8A67EE887A17EE900AFDF7DCFB99
:1033200006460F462846FDF7C5FB31A3D3E9002327
:10333000FDF72AFC02460B4630463946FDF76EFA89
:1033400006460F46D4F80A502846FDF7C5FB002272
:103350002E4BFDF763FA8046894694F92A0001381E
:10336000FDF7A8FB00222A4BFDF70EFC02460B4698
:1033700040464946FDF750FA1FA3D3E90023FDF765
:1033800003FC0022234BFDF7FFFB00221F4BFDF740
:1033900025FD02460B4630463946FDF73FFAFDF75C
:1033A00005FE00EE100AC4F82B0007EE905AC7EE97
:1033B000887AFDEEE77A17EE903AC4F82F30C4F819
:1033C0001650F0EE480AFDF74DF910EE103AC4F829
:1033D0001A30BDEC028BBDE8F087033591E7851EFE
:1033E00001D4AD108EE70335FBE700BFAFF30080DB
:1033F00000000000B0FDB03F00000060FB2109406C
:1034000000003442000034C2DB0FC94000002940F4
:10341000000019400000104008B50146FE20FFF7EB
:10342000F9FE9FED020AFFF74BFE08BDCDCCCC3D67
:10343000012380F8B631704738B52DED028B054673
:1034400040F2BF10FCF7B4FE044640F2BF12002168
:10345000FCF76AFFD5F89400C4F83300B5F898205B
:1034600095F89A30A4F8372084F8393005F1100126
:1034700004F13A0000F0E6F805F13C0104F1B20075
:1034800000F0E0F805F1680104F5957000F0DAF855
:103490002B68C4F8A2316B68C4F8A631144BC5F888
:1034A000A830C5F8AC4005F19C00FFF74DFCC4F80E
:1034B000B7012046FFF7BCFF2146FC20FFF7AAFE1C
:1034C0009FED0C8AB0EE480AFFF7FAFD2046FFF7A1
:1034D000A3FFB0EE480AFFF7F3FD074A1378591C23
:1034E0001170064A42F823402046BDEC028B38BDDD
:1034F00041320008CDCCCC3DC8030020B8030020E9
:103500002DE9F0412DED028B84B004461020B2EE7F
:10351000091AFAEE090A424B93ED000AFFF7EAFD99
:103520008046ADF804000C209FED3E1ADFED3E0A08
:103530003E4B93ED000AFFF7DDFD0746ADF80600B0
:103540000C20B3EE021AFBEE020A394B93ED000A8F
:10355000FFF7D0FDADF808009FED368A0C209FEDF7
:10356000361AF0EE480A354B93ED000AFFF7C2FD1C
:103570000646ADF80A000C20B1EE041AF0EE480A37
:103580002F4B93ED000AFFF7B5FD0546ADF80C0093
:1035900094F8B63153B90C20B3EE021AFBEE020ACE
:1035A000B0EE480AFFF7A6FDADF80800D4F8B73131
:1035B0004FEA182283F82420D4F8B73183F8258005
:1035C000D4F8B731C7F3071283F82620C6F30323D4
:1035D00043EA0713D4F8B72182F82730D4F8B7317B
:1035E00083F82860D4F8B731C5F3071283F829208F
:1035F000BDF80820130A43EA0513D4F8B71181F87F
:103600002A30D4F8B73183F82B20B7EE000AD4F86B
:10361000B701FFF713FC04B0BDEC028BBDE8F081ED
:10362000B403002000003442000034C2B003002084
:10363000AC030020000000000000FA43A8030020B3
:10364000A403002038B505460C4678220021FCF77B
:103650006BFE23462A462034D3F800E0D3F804C09A
:103660009868D968C2F800E0C2F804C09060D160E0
:1036700010331032A342EFD1186859689B6810606C
:103680005160936005F16000FFF76EFC38BD0000EB
:1036900000B587B00023029303930493059300932E
:1036A000019316484FF08042026040F20772426078
:1036B000836040F2F312C26003618361FFF78CF90B
:1036C00090B94FF48053029302A90C48FFF7BDF95B
:1036D00068B900230093019369460848FFF734FA5C
:1036E00040B907B05DF804FBFDF7EAFCE9E7FDF738
:1036F000E7FCEEE7FDF7E4FCF3E700BFCC030020B6
:103700000368B3F1804F00D0704700B583B000214B
:10371000019103F50E331A6C42F001021A641B6C1E
:1037200003F001030193019B0A461C20FEF746FFAC
:103730001C20FEF753FF03B05DF804FB10B50446F0
:103740008268531C4068834205D820688154A36076
:10375000E3680133E360A26863689A4200D010BD59
:103760002168206900F0C6FAA368984203D04FF0A0
:10377000FF33E360F3E70023A360F0E72DE9F84FA0
:1037800081460F4615461E46DDF828A00B9A0B46CB
:103790004FF0010803E0B3FBF5F308F10108AB4279
:1037A000F9D2B04500D2B04612F0010B18D1BAF1EF
:1037B000000F15D012F0020F02D0BEB1202400E09D
:1037C0002024BAF1000F0BD0C24509D90AF1FF3A03
:1037D00021464846FFF7B2FFD9F80C30002BF0DA4B
:1037E000D9F80C30002B25DB012404E03024E8E775
:1037F000013E05FB04F4012EFAD8B7FBF4F39D4219
:10380000F7D900E01C46B7FBF4F304FB1377124A28
:10381000D15C4846FFF792FFD9F80C30002B03DB50
:10382000B4FBF5F3AC42EDD2BBF1000F02D0BAF11C
:10383000000F01D1BDE8F88FBAF1000FFAD0C245F0
:10384000F8D90AF1FF3A20214846FFF777FFD9F867
:103850000C30002BF0DAEDE7EC4100082DE9F047E1
:1038600082B007468846154699460A9EDDF82CA088
:1038700081EAE17CACEBE17C012402E09CFBF5FCFD
:1038800001346545FADD4C4500D24C4636B1B8F1FD
:10389000000F02DB1AF0040F00D0013E1AF0020FF5
:1038A00002D0B9F1000F03D01AF0010F00D1AEB968
:1038B000FB68002B0FDBB8F1000F1CDB1AF0040FC4
:1038C00020D1FB68002B06DB0AF00303022B1ED07D
:1038D000FB68002B2DDA02B0BDE8F087002EE7D0A0
:1038E000A642E5D9013E20213846FFF727FFFB68B5
:1038F000002BF3DADCE7C8F100082D213846FFF78A
:103900001DFFDEE72B213846FFF718FFD9E7B9F195
:10391000000FDDD1002EDBD0002ED9D0A642D7D9A2
:10392000013E30213846FFF709FFFB68002BF3DA30
:10393000CEE7CDF804A000964B462A4641463846CD
:10394000FFF71CFFC7E70000F0B599B006460C462C
:10395000154603AB1393402314930023159317903C
:1039600016938BE00020012211E040F001000134A9
:103970000CE040F00200013408E040F004000134A3
:1039800004E040F00800013400E0002212B3237884
:10399000233B0D2BF9D801A151F823F083390008FE
:1039A0008B3900088B3900088B3900088B390008E7
:1039B0008B3900088B3900088B3900087B390008E7
:1039C0008B3900086B3900088B3900088B390008E7
:1039D000733900082378A3F13001C9B2092907D847
:1039E000013402EB820203EB4203A3F13002F1E760
:1039F0002E2B02D00023217814E00134002306E0AE
:103A0000013403EB830301EB4301A1F1300321787F
:103A1000A1F1300C5FFA8CFCBCF1090FF0D9EAE798
:103A200014F8011F6C29FBD06829F9D025296DD025
:103A300020D378291ED858291CD35839202919D8C1
:103A4000DFE801F03D181818181818181818181180
:103A50002718181818181818181818185718184868
:103A6000183218183D002B681A1D2A60197813A8FF
:103A7000FFF764FE0134169B002B4CDB14F8011B8E
:103A8000002948D025293FF46DAF13A8FFF756FE53
:103A9000F1E729680F1D2F600968019000920A2242
:103AA00013A8FFF7DBFEE5E729680F1D2F60096803
:103AB000019000920A2213A8FFF760FEDAE7296856
:103AC0000F1D2F60096801900092102213A8FFF7C4
:103AD00055FECFE72B681A1D2A601F6817F8011BD7
:103AE0000029C7D013A8FFF729FE169B002BF5DA93
:103AF000C0E72B681A1D2A60196800230193082368
:103B00000093102213A8FFF739FEB3E7252113A86D
:103B1000FFF714FEAEE7169B002B05DD159A32B9B0
:103B2000169B159A13441693169819B0F0BD03A965
:103B3000304600F0DFF8F3E70EB400B582B003AB17
:103B400053F8041B019301AAFFF7FEFE02B05DF8D3
:103B500004EB03B070470369C268934204D88168DC
:103B60008A1A1344581E7047981A013870472DE975
:103B7000F843044688461646C5688768A7EB0509DA
:103B8000914509D940682844FCF774FCBFF35F8F66
:103B90003544E560BDE8F88340684A462844FCF7B0
:103BA00069FCED1B35442A4608EB09016068FCF707
:103BB00061FCBFF35F8FE560ECE72DE9F843064653
:103BC00088461746C5684FF000091AE05B1B5A1E6D
:103BD000B3685C1B944228BF1446BC4228BF3C46D5
:103BE0007068224641462844FCF744FCA144A044A6
:103BF0003F1B2544B368AB420BD0BFF35F8FF5602A
:103C00004FB133699D42E1D3B2685B1B1A44013A5C
:103C1000DEE70025F1E74846BDE8F88310B5154C0E
:103C2000A82200212046FCF77FFB03232361636168
:103C3000114AA261114BE3614FF4806323620023B8
:103C4000A3626362E36222660D4A62661022A26684
:103C50002367E3666367BFF35F8F06E0C3F10F027C
:103C60000849895C034AD15401330F2BF6D9BFF3BD
:103C70005F8F10BD24080020E041000824040020CC
:103C800014040020FC410008F8B50F461646441CF9
:103C900004EB4404164B03EBC40400EB400003EBBD
:103CA000C003DD6A012D0ED0022D1AD0F5B92046D1
:103CB000FFF751FF864212D8324639462046FFF7B9
:103CC00056FF35460BE02046FFF745FF3546864256
:103CD00028BF05462A4639462046FFF748FF2846B2
:103CE000F8BD2046FFF769FF0546F8E70025F6E72F
:103CF00024080020F8B504460D461646094B1B78EB
:103D00006BB1EFF311874FF0200181F31188324638
:103D100029462046FFF7B8FF87F31188F8BDFFF763
:103D20007DFFEEE72408002008B5024B1868FFF776
:103D3000E7FB08BD9002002008B50368B3F1804F8F
:103D400000D008BDFFF7F0FFFBE70000DFF834D03C
:103D5000FEF742FF0C480D490D4A002302E0D458FB
:103D6000C4500433C4188C42F9D30A4A0A4C0023C5
:103D700001E013600432A242FBD3FCF73FFBFDF7E6
:103D8000FBF9704700000320000000201001002014
:103D90002042000810010020CC080020FEE72DE999
:103DA000F04786468C460846089E154674461946D6
:103DB000002B40F0C2808542B2FA82F245D94AB166
:103DC000C2F1200300FA02FC2EFA03F3954043EA05
:103DD0000C0C94404FEA154EA8B2BCFBFEF8230C25
:103DE0000EFB18CC08FB00F943EA0C43994528D98F
:103DF000EB1808F1FF3704D2994502D9A8F1020760
:103E00002B44A3EB0903A4B2B3FBFEFC0EFB1C3353
:103E10000CFB00F044EA0344A04214D92C190CF125
:103E2000FF3304D2A04202D9ACF102032C44241A7D
:103E300043EA07401EB1D440002334607360BDE8FC
:103E4000F0874746DDE76346F1E792BB431B01215C
:103E50004FEA154EAFB2B3FBFEFC200C0EFB1C3339
:103E60000CFB07F840EA0343984562D9EB180CF1C4
:103E7000FF3004D2984502D9ACF102002B44A3EBE9
:103E80000803A4B2B3FBFEFC0EFB1C330CFB07F7CC
:103E900044EA0344A7424ED92C190CF1FF3304D253
:103EA000A74202D9ACF102032C44E41B43EA0040D0
:103EB000C0E7C2F1200320FA03F1954090402EFAAA
:103EC00003F303434FEA154EAFB2B1FBFEFC0EFB0A
:103ED0001C10190C0CFB07F841EA0041884504FA54
:103EE00002F422D969180CF1FF3004D2884502D9B6
:103EF000ACF102002944A1EB08019BB2B1FBFEFC2E
:103F00000EFB1C110CFB07F743EA01439F420ED93D
:103F1000EB180CF1FF3104D29F4202D9ACF102013F
:103F20002B44DB1B41EA004192E76046E3E7614630
:103F3000F7E76046A3E76346B7E7834206D916B9B9
:103F4000002108467BE7C6E900E0F9E7B3FA83F70A
:103F50008FB9834201D3724508D8BEEB020460EBEF
:103F6000030301209C461EB9002168E73846FAE7A2
:103F7000C6E9004CF8E7C7F1200CBB4022FA0CF46C
:103F80001C432EFA0CF120FA0CF3B84001434FEA1F
:103F900014490EFA07F5B3FBF9F81FFA84FE09FB82
:103FA00018300B0C08FB0EFA43EA00439A4502FA5C
:103FB00007F240D9E31808F1FF3004D29A4502D93C
:103FC000A8F102002344A3EB0A0389B2B3FBF9F87A
:103FD00009FB183308FB0EFE41EA03418E452CD93C
:103FE000611808F1FF3304D28E4502D9A8F102030B
:103FF000214443EA0040A0FB0298A1EB0E01414599
:10400000CE46434602D306D14D4504D2B9EB020E4B
:1040100068EB04030138002EA6D0B5EB0E0261EB6D
:10402000030101FA0CFC22FA07F34CEA0303F940FE
:10403000C6E9003198E74046C5E74346D9E70000A6
:10404000F8B500BFF8BC08BC9E467047F8B500BF85
:08405000F8BC08BC9E46704755
:1040580000000000000000800000000000000000D8
:104068000102030406070809493A00001B5B313BBB
:1040780033326D002020257325735B6273705F6394
:10408800616E5D2043414E205365727669636520F9
:10409800496E69740D0A2573000000001B5B306DC2
:1040A80000000000453A00001B5B313B33316D00D6
:1040B8002020257325735B6273705F63616E5D20DA
:1040C80043414E20696E7374616E63652065786341
:1040D8006565646564204D4158206E756D2C2063BC
:1040E8006F6E73696465722062616C616E636520CE
:1040F800746865206C6F6164206F662043414E20B0
:104108006275730D0A2573002020257325735B7D66
:104118006273705F63616E5D2043414E2069642065
:104128006372617368202C7478205B25645D206F4E
:1041380072207278205B25645D20616C7265616411
:104148007920726567697374657265640D0A2573F1
:1041580000000000573A00001B5B313B33336D0011
:104168002020257325735B6273705F63616E5D2029
:1041780043414E204D41494C626F782066756C6C06
:1041880021206661696C656420746F206164642015
:104198006D736720746F206D61696C626F782E2073
:1041A800436E74205B25645D0D0A257300000000D2
:1041B8002020257325735B6273705F63616E5D20D9
:1041C80043414E20627573204255532120636E741B
:1041D8003A25640D0A2573005465726D696E616C29
:1041E8000000000030313233343536373839414237
:1041F80043444546000000000000545452205245F4
:08420800474745530000000088
:0842100064C2FF7F0100000001
:04421800A5100008E5
:04421C008110000805
:104220000400002000000000180100208001002090
:10423000E801002000000000000000000000000075
:10424000000000000000000000000000000000006E
:10425000000000000000000000000000000000005E
:10426000000000000000000000000000000000004E
:10427000000000000000000000000000000000003E
:10428000000000000000000000000000000000002E
:10429000000000000000000000000000000000001E
:1042A000000000000000000000000000CDCCCC3D6C
:1042B000000000000AD7233C0000000000000000BE
:1042C00000000000000000000000000000000000EE
:1042D00000000000000000000000000000000000DE
:1042E00000000000000000000000000000000000CE
:1042F00000000000000000000000000000000000BE
:10430000000000000204000000000200C0020020C3
:104310000F00000000000000000000000F0000007F
:1043200001000000100000000024F4000E00000056
:0400000508003D4D65
:00000001FF
